{
  "contractName": "BigbomContributorWhiteList",
  "abi": [
    {
      "constant": true,
      "inputs": [
        {
          "name": "",
          "type": "address"
        }
      ],
      "name": "addressMinCap",
      "outputs": [
        {
          "name": "",
          "type": "uint256"
        }
      ],
      "payable": false,
      "stateMutability": "view",
      "type": "function"
    },
    {
      "constant": true,
      "inputs": [],
      "name": "owner",
      "outputs": [
        {
          "name": "",
          "type": "address"
        }
      ],
      "payable": false,
      "stateMutability": "view",
      "type": "function"
    },
    {
      "constant": true,
      "inputs": [
        {
          "name": "",
          "type": "address"
        }
      ],
      "name": "addressMaxCap",
      "outputs": [
        {
          "name": "",
          "type": "uint256"
        }
      ],
      "payable": false,
      "stateMutability": "view",
      "type": "function"
    },
    {
      "constant": false,
      "inputs": [
        {
          "name": "newOwner",
          "type": "address"
        }
      ],
      "name": "transferOwnership",
      "outputs": [],
      "payable": false,
      "stateMutability": "nonpayable",
      "type": "function"
    },
    {
      "inputs": [],
      "payable": false,
      "stateMutability": "nonpayable",
      "type": "constructor"
    },
    {
      "anonymous": false,
      "inputs": [
        {
          "indexed": false,
          "name": "_user",
          "type": "address"
        },
        {
          "indexed": false,
          "name": "_mincap",
          "type": "uint256"
        },
        {
          "indexed": false,
          "name": "_maxcap",
          "type": "uint256"
        },
        {
          "indexed": false,
          "name": "_time",
          "type": "uint256"
        }
      ],
      "name": "ListAddress",
      "type": "event"
    },
    {
      "constant": false,
      "inputs": [
        {
          "name": "_user",
          "type": "address"
        },
        {
          "name": "_mincap",
          "type": "uint256"
        },
        {
          "name": "_maxcap",
          "type": "uint256"
        }
      ],
      "name": "listAddress",
      "outputs": [],
      "payable": false,
      "stateMutability": "nonpayable",
      "type": "function"
    },
    {
      "constant": false,
      "inputs": [
        {
          "name": "_users",
          "type": "address[]"
        },
        {
          "name": "_mincap",
          "type": "uint256[]"
        },
        {
          "name": "_maxcap",
          "type": "uint256[]"
        }
      ],
      "name": "listAddresses",
      "outputs": [],
      "payable": false,
      "stateMutability": "nonpayable",
      "type": "function"
    },
    {
      "constant": true,
      "inputs": [
        {
          "name": "_user",
          "type": "address"
        }
      ],
      "name": "getMinCap",
      "outputs": [
        {
          "name": "",
          "type": "uint256"
        }
      ],
      "payable": false,
      "stateMutability": "view",
      "type": "function"
    },
    {
      "constant": true,
      "inputs": [
        {
          "name": "_user",
          "type": "address"
        }
      ],
      "name": "getMaxCap",
      "outputs": [
        {
          "name": "",
          "type": "uint256"
        }
      ],
      "payable": false,
      "stateMutability": "view",
      "type": "function"
    }
  ],
  "bytecode": "0x6060604052341561000f57600080fd5b336000806101000a81548173ffffffffffffffffffffffffffffffffffffffff021916908373ffffffffffffffffffffffffffffffffffffffff1602179055506107fe8061005e6000396000f30060606040526004361061008e576000357c0100000000000000000000000000000000000000000000000000000000900463ffffffff168063301846351461009357806356e2eab8146100e05780635fc3c84d1461012b5780638da5cb5b1461017857806394a5601a146101cd578063c62af2581461021a578063d45bcac114610267578063f2fde38b14610341575b600080fd5b341561009e57600080fd5b6100ca600480803573ffffffffffffffffffffffffffffffffffffffff1690602001909190505061037a565b6040518082815260200191505060405180910390f35b34156100eb57600080fd5b610129600480803573ffffffffffffffffffffffffffffffffffffffff169060200190919080359060200190919080359060200190919050506103c3565b005b341561013657600080fd5b610162600480803573ffffffffffffffffffffffffffffffffffffffff16906020019091905050610571565b6040518082815260200191505060405180910390f35b341561018357600080fd5b61018b610589565b604051808273ffffffffffffffffffffffffffffffffffffffff1673ffffffffffffffffffffffffffffffffffffffff16815260200191505060405180910390f35b34156101d857600080fd5b610204600480803573ffffffffffffffffffffffffffffffffffffffff169060200190919050506105ae565b6040518082815260200191505060405180910390f35b341561022557600080fd5b610251600480803573ffffffffffffffffffffffffffffffffffffffff169060200190919050506105f7565b6040518082815260200191505060405180910390f35b341561027257600080fd5b61033f600480803590602001908201803590602001908080602002602001604051908101604052809392919081815260200183836020028082843782019150505050505091908035906020019082018035906020019080806020026020016040519081016040528093929190818152602001838360200280828437820191505050505050919080359060200190820180359060200190808060200260200160405190810160405280939291908181526020018383602002808284378201915050505050509190505061060f565b005b341561034c57600080fd5b610378600480803573ffffffffffffffffffffffffffffffffffffffff169060200190919050506106fd565b005b6000600160008373ffffffffffffffffffffffffffffffffffffffff1673ffffffffffffffffffffffffffffffffffffffff168152602001908152602001600020549050919050565b6000809054906101000a900473ffffffffffffffffffffffffffffffffffffffff1673ffffffffffffffffffffffffffffffffffffffff163373ffffffffffffffffffffffffffffffffffffffff1614151561041e57600080fd5b80821115151561042d57600080fd5b600073ffffffffffffffffffffffffffffffffffffffff168373ffffffffffffffffffffffffffffffffffffffff161415151561046957600080fd5b81600160008573ffffffffffffffffffffffffffffffffffffffff1673ffffffffffffffffffffffffffffffffffffffff1681526020019081526020016000208190555080600260008573ffffffffffffffffffffffffffffffffffffffff1673ffffffffffffffffffffffffffffffffffffffff168152602001908152602001600020819055507f3bcda6b26563f283585ce7ba1e5a048a4c36a8f81d2d2bc2ebd62380429a0a6283838342604051808573ffffffffffffffffffffffffffffffffffffffff1673ffffffffffffffffffffffffffffffffffffffff16815260200184815260200183815260200182815260200194505050505060405180910390a1505050565b60016020528060005260406000206000915090505481565b6000809054906101000a900473ffffffffffffffffffffffffffffffffffffffff1681565b6000600260008373ffffffffffffffffffffffffffffffffffffffff1673ffffffffffffffffffffffffffffffffffffffff168152602001908152602001600020549050919050565b60026020528060005260406000206000915090505481565b60008060009054906101000a900473ffffffffffffffffffffffffffffffffffffffff1673ffffffffffffffffffffffffffffffffffffffff163373ffffffffffffffffffffffffffffffffffffffff1614151561066c57600080fd5b8251845114151561067c57600080fd5b8151845114151561068c57600080fd5b600090505b83518110156106f7576106ea84828151811015156106ab57fe5b9060200190602002015184838151811015156106c357fe5b9060200190602002015184848151811015156106db57fe5b906020019060200201516103c3565b8080600101915050610691565b50505050565b6000809054906101000a900473ffffffffffffffffffffffffffffffffffffffff1673ffffffffffffffffffffffffffffffffffffffff163373ffffffffffffffffffffffffffffffffffffffff1614151561075857600080fd5b600073ffffffffffffffffffffffffffffffffffffffff168173ffffffffffffffffffffffffffffffffffffffff161415156107cf57806000806101000a81548173ffffffffffffffffffffffffffffffffffffffff021916908373ffffffffffffffffffffffffffffffffffffffff1602179055505b505600a165627a7a72305820aed02a28d2f7e0cdb8e7206dd4dd10ca750fb219daccc33a69c8c20a0d299c1d0029",
  "source": "pragma solidity ^0.4.19;\n\nimport './zeppelin/ownership/Ownable.sol';\n\ncontract BigbomContributorWhiteList is Ownable {\n    mapping(address=>uint) public addressMinCap;\n    mapping(address=>uint) public addressMaxCap;\n\n    function BigbomContributorWhiteList() public  {}\n\n    event ListAddress( address _user, uint _mincap, uint _maxcap, uint _time );\n\n    // Owner can delist by setting cap = 0.\n    // Onwer can also change it at any time\n    function listAddress( address _user, uint _mincap, uint _maxcap ) public onlyOwner {\n        require(_mincap <= _maxcap);\n        require(_user != address(0x0));\n\n        addressMinCap[_user] = _mincap;\n        addressMaxCap[_user] = _maxcap;\n        ListAddress( _user, _mincap, _maxcap, now );\n    }\n\n    // an optimization in case of network congestion\n    function listAddresses( address[] _users, uint[] _mincap, uint[] _maxcap ) public  onlyOwner {\n        require(_users.length == _mincap.length );\n        require(_users.length == _maxcap.length );\n        for( uint i = 0 ; i < _users.length ; i++ ) {\n            listAddress( _users[i], _mincap[i], _maxcap[i] );\n        }\n    }\n\n    function getMinCap( address _user ) public constant returns(uint) {\n        return addressMinCap[_user];\n    }\n    function getMaxCap( address _user ) public constant returns(uint) {\n        return addressMaxCap[_user];\n    }\n\n}\n",
  "sourcePath": "/Users/tuongnguyen/Documents/tuongnguyen/BigBomTokenSale/contracts/BigbomContributorWhiteList.sol",
  "compiler": {
    "name": "solc",
    "version": "0.4.19+commit.c4cbbb05.Emscripten.clang"
  },
  "schemaVersion": "2.0.0",
  "updatedAt": "2018-04-04T13:17:25.881Z"
}