{
  "contractName": "BigbomPrivateSaleList",
  "abi": [
    {
      "constant": true,
      "inputs": [],
      "name": "owner",
      "outputs": [
        {
          "name": "",
          "type": "address"
        }
      ],
      "payable": false,
      "stateMutability": "view",
      "type": "function"
    },
    {
      "constant": false,
      "inputs": [
        {
          "name": "newOwner",
          "type": "address"
        }
      ],
      "name": "transferOwnership",
      "outputs": [],
      "payable": false,
      "stateMutability": "nonpayable",
      "type": "function"
    },
    {
      "constant": true,
      "inputs": [],
      "name": "usersAmount",
      "outputs": [
        {
          "name": "",
          "type": "uint256"
        }
      ],
      "payable": false,
      "stateMutability": "view",
      "type": "function"
    },
    {
      "constant": true,
      "inputs": [
        {
          "name": "",
          "type": "address"
        }
      ],
      "name": "addressCap",
      "outputs": [
        {
          "name": "",
          "type": "uint256"
        }
      ],
      "payable": false,
      "stateMutability": "view",
      "type": "function"
    },
    {
      "inputs": [],
      "payable": false,
      "stateMutability": "nonpayable",
      "type": "constructor"
    },
    {
      "anonymous": false,
      "inputs": [
        {
          "indexed": false,
          "name": "_user",
          "type": "address"
        },
        {
          "indexed": false,
          "name": "_amount",
          "type": "uint256"
        },
        {
          "indexed": false,
          "name": "_time",
          "type": "uint256"
        }
      ],
      "name": "ListAddress",
      "type": "event"
    },
    {
      "constant": false,
      "inputs": [
        {
          "name": "_user",
          "type": "address"
        },
        {
          "name": "_amount",
          "type": "uint256"
        }
      ],
      "name": "listAddress",
      "outputs": [],
      "payable": false,
      "stateMutability": "nonpayable",
      "type": "function"
    },
    {
      "constant": false,
      "inputs": [
        {
          "name": "_users",
          "type": "address[]"
        },
        {
          "name": "_amount",
          "type": "uint256[]"
        }
      ],
      "name": "listAddresses",
      "outputs": [],
      "payable": false,
      "stateMutability": "nonpayable",
      "type": "function"
    },
    {
      "constant": false,
      "inputs": [
        {
          "name": "_amount",
          "type": "uint256"
        }
      ],
      "name": "setUsersAmount",
      "outputs": [],
      "payable": false,
      "stateMutability": "nonpayable",
      "type": "function"
    },
    {
      "constant": true,
      "inputs": [
        {
          "name": "_user",
          "type": "address"
        }
      ],
      "name": "getCap",
      "outputs": [
        {
          "name": "",
          "type": "uint256"
        }
      ],
      "payable": false,
      "stateMutability": "view",
      "type": "function"
    },
    {
      "constant": false,
      "inputs": [],
      "name": "destroy",
      "outputs": [],
      "payable": false,
      "stateMutability": "nonpayable",
      "type": "function"
    }
  ],
  "bytecode": "0x6060604052600b600155341561001457600080fd5b336000806101000a81548173ffffffffffffffffffffffffffffffffffffffff021916908373ffffffffffffffffffffffffffffffffffffffff16021790555061077e806100636000396000f300606060405260043610610099576000357c0100000000000000000000000000000000000000000000000000000000900463ffffffff16806319a0b2651461009e57806347d3def9146100c157806383197ef0146101035780638da5cb5b14610118578063af7b2eb71461016d578063b3aefb7514610207578063f2fde38b14610254578063f794077e1461028d578063fc87c766146102b6575b600080fd5b34156100a957600080fd5b6100bf6004808035906020019091905050610303565b005b34156100cc57600080fd5b610101600480803573ffffffffffffffffffffffffffffffffffffffff16906020019091908035906020019091905050610368565b005b341561010e57600080fd5b61011661047e565b005b341561012357600080fd5b61012b610513565b604051808273ffffffffffffffffffffffffffffffffffffffff1673ffffffffffffffffffffffffffffffffffffffff16815260200191505060405180910390f35b341561017857600080fd5b61020560048080359060200190820180359060200190808060200260200160405190810160405280939291908181526020018383602002808284378201915050505050509190803590602001908201803590602001908080602002602001604051908101604052809392919081815260200183836020028082843782019150505050505091905050610538565b005b341561021257600080fd5b61023e600480803573ffffffffffffffffffffffffffffffffffffffff169060200190919050506105fd565b6040518082815260200191505060405180910390f35b341561025f57600080fd5b61028b600480803573ffffffffffffffffffffffffffffffffffffffff1690602001909190505061065f565b005b341561029857600080fd5b6102a0610734565b6040518082815260200191505060405180910390f35b34156102c157600080fd5b6102ed600480803573ffffffffffffffffffffffffffffffffffffffff1690602001909190505061073a565b6040518082815260200191505060405180910390f35b6000809054906101000a900473ffffffffffffffffffffffffffffffffffffffff1673ffffffffffffffffffffffffffffffffffffffff163373ffffffffffffffffffffffffffffffffffffffff1614151561035e57600080fd5b8060018190555050565b6000809054906101000a900473ffffffffffffffffffffffffffffffffffffffff1673ffffffffffffffffffffffffffffffffffffffff163373ffffffffffffffffffffffffffffffffffffffff161415156103c357600080fd5b80600260008473ffffffffffffffffffffffffffffffffffffffff1673ffffffffffffffffffffffffffffffffffffffff168152602001908152602001600020819055507f050a17b796524934d80b5e8a2a3ed1462eb1964cfbd6ad62be43290b16a8023d828242604051808473ffffffffffffffffffffffffffffffffffffffff1673ffffffffffffffffffffffffffffffffffffffff168152602001838152602001828152602001935050505060405180910390a15050565b6000809054906101000a900473ffffffffffffffffffffffffffffffffffffffff1673ffffffffffffffffffffffffffffffffffffffff163373ffffffffffffffffffffffffffffffffffffffff161415156104d957600080fd5b6000809054906101000a900473ffffffffffffffffffffffffffffffffffffffff1673ffffffffffffffffffffffffffffffffffffffff16ff5b6000809054906101000a900473ffffffffffffffffffffffffffffffffffffffff1681565b60008060009054906101000a900473ffffffffffffffffffffffffffffffffffffffff1673ffffffffffffffffffffffffffffffffffffffff163373ffffffffffffffffffffffffffffffffffffffff1614151561059557600080fd5b815183511415156105a557600080fd5b600090505b82518110156105f8576105eb83828151811015156105c457fe5b9060200190602002015183838151811015156105dc57fe5b90602001906020020151610368565b80806001019150506105aa565b505050565b600080600260008473ffffffffffffffffffffffffffffffffffffffff1673ffffffffffffffffffffffffffffffffffffffff1681526020019081526020016000205490506001811415610655576001549150610659565b8091505b50919050565b6000809054906101000a900473ffffffffffffffffffffffffffffffffffffffff1673ffffffffffffffffffffffffffffffffffffffff163373ffffffffffffffffffffffffffffffffffffffff161415156106ba57600080fd5b600073ffffffffffffffffffffffffffffffffffffffff168173ffffffffffffffffffffffffffffffffffffffff1614151561073157806000806101000a81548173ffffffffffffffffffffffffffffffffffffffff021916908373ffffffffffffffffffffffffffffffffffffffff1602179055505b50565b60015481565b600260205280600052604060002060009150905054815600a165627a7a72305820df5edacbe33c6e19b583c6371b1cdd967aa118378ce7bb49fb48c57d8217af2a0029",
  "source": "pragma solidity ^0.4.19;\n\nimport './zeppelin/ownership/Ownable.sol';\n\ncontract BigbomPrivateSaleList is Ownable {\n    // amount is in wei. The value of 11 is just a stub.\n    uint public usersAmount = 11;\n    mapping(address=>uint) public addressCap;\n\n    function BigbomPrivateSaleList() {}\n\n    event ListAddress( address _user, uint _amount, uint _time );\n\n    // Owner can delist by setting amount = 0.\n    // Onwer can also change it at any time\n    function listAddress( address _user, uint _amount ) onlyOwner {\n        addressCap[_user] = _amount;\n        ListAddress( _user, _amount, now );\n    }\n\n    // an optimization in case of network congestion\n    function listAddresses( address[] _users, uint[] _amount ) onlyOwner {\n        require(_users.length == _amount.length );\n        for( uint i = 0 ; i < _users.length ; i++ ) {\n            listAddress( _users[i], _amount[i] );\n        }\n    }\n\n    function setUsersAmount( uint _amount ) onlyOwner {\n        usersAmount = _amount;\n    }\n\n    function getCap( address _user ) constant returns(uint) {\n        uint cap = addressCap[_user];\n\n        if( cap == 1 ) return usersAmount;\n        else return cap;\n    }\n\n    function destroy() onlyOwner {\n        selfdestruct(owner);\n    }\n}\n",
  "sourcePath": "/Users/applepen/Documents/git/bigbom/BigBomTokenSale/contracts/BigbomPrivateSaleList.sol",
  "compiler": {
    "name": "solc",
    "version": "0.4.19+commit.c4cbbb05.Emscripten.clang"
  },
  "schemaVersion": "2.0.0",
  "updatedAt": "2018-03-08T13:21:59.809Z"
}