{
  "contractName": "BigbomTokenSale",
  "abi": [
    {
      "constant": true,
      "inputs": [],
      "name": "openSaleStartTime",
      "outputs": [
        {
          "name": "",
          "type": "uint256"
        }
      ],
      "payable": false,
      "stateMutability": "view",
      "type": "function"
    },
    {
      "constant": true,
      "inputs": [],
      "name": "list",
      "outputs": [
        {
          "name": "",
          "type": "address"
        }
      ],
      "payable": false,
      "stateMutability": "view",
      "type": "function"
    },
    {
      "constant": true,
      "inputs": [],
      "name": "haltSale",
      "outputs": [
        {
          "name": "",
          "type": "bool"
        }
      ],
      "payable": false,
      "stateMutability": "view",
      "type": "function"
    },
    {
      "constant": true,
      "inputs": [],
      "name": "bigbomMultiSigWallet",
      "outputs": [
        {
          "name": "",
          "type": "address"
        }
      ],
      "payable": false,
      "stateMutability": "view",
      "type": "function"
    },
    {
      "constant": true,
      "inputs": [
        {
          "name": "",
          "type": "address"
        }
      ],
      "name": "participated",
      "outputs": [
        {
          "name": "",
          "type": "uint256"
        }
      ],
      "payable": false,
      "stateMutability": "view",
      "type": "function"
    },
    {
      "constant": true,
      "inputs": [],
      "name": "raisedWei",
      "outputs": [
        {
          "name": "",
          "type": "uint256"
        }
      ],
      "payable": false,
      "stateMutability": "view",
      "type": "function"
    },
    {
      "constant": true,
      "inputs": [],
      "name": "openSaleEndTime",
      "outputs": [
        {
          "name": "",
          "type": "uint256"
        }
      ],
      "payable": false,
      "stateMutability": "view",
      "type": "function"
    },
    {
      "constant": true,
      "inputs": [],
      "name": "admin",
      "outputs": [
        {
          "name": "",
          "type": "address"
        }
      ],
      "payable": false,
      "stateMutability": "view",
      "type": "function"
    },
    {
      "constant": true,
      "inputs": [],
      "name": "token",
      "outputs": [
        {
          "name": "",
          "type": "address"
        }
      ],
      "payable": false,
      "stateMutability": "view",
      "type": "function"
    },
    {
      "inputs": [
        {
          "name": "_admin",
          "type": "address"
        },
        {
          "name": "_bigbomMultiSigWallet",
          "type": "address"
        },
        {
          "name": "_whilteListContract",
          "type": "address"
        },
        {
          "name": "_publicSaleStartTime",
          "type": "uint256"
        },
        {
          "name": "_publicSaleEndTime",
          "type": "uint256"
        }
      ],
      "payable": false,
      "stateMutability": "nonpayable",
      "type": "constructor"
    },
    {
      "payable": true,
      "stateMutability": "payable",
      "type": "fallback"
    },
    {
      "anonymous": false,
      "inputs": [
        {
          "indexed": false,
          "name": "_buyer",
          "type": "address"
        },
        {
          "indexed": false,
          "name": "_tokens",
          "type": "uint256"
        },
        {
          "indexed": false,
          "name": "_payedWei",
          "type": "uint256"
        },
        {
          "indexed": false,
          "name": "_bonus",
          "type": "uint256"
        }
      ],
      "name": "Buy",
      "type": "event"
    },
    {
      "anonymous": false,
      "inputs": [],
      "name": "FinalizeSale",
      "type": "event"
    },
    {
      "constant": true,
      "inputs": [],
      "name": "saleEnded",
      "outputs": [
        {
          "name": "",
          "type": "bool"
        }
      ],
      "payable": false,
      "stateMutability": "view",
      "type": "function"
    },
    {
      "constant": true,
      "inputs": [],
      "name": "saleStarted",
      "outputs": [
        {
          "name": "",
          "type": "bool"
        }
      ],
      "payable": false,
      "stateMutability": "view",
      "type": "function"
    },
    {
      "constant": false,
      "inputs": [
        {
          "name": "halt",
          "type": "bool"
        }
      ],
      "name": "setHaltSale",
      "outputs": [],
      "payable": false,
      "stateMutability": "nonpayable",
      "type": "function"
    },
    {
      "constant": true,
      "inputs": [
        {
          "name": "contributor",
          "type": "address"
        }
      ],
      "name": "contributorMinCap",
      "outputs": [
        {
          "name": "",
          "type": "uint256"
        }
      ],
      "payable": false,
      "stateMutability": "view",
      "type": "function"
    },
    {
      "constant": true,
      "inputs": [
        {
          "name": "contributor",
          "type": "address"
        },
        {
          "name": "amountInWei",
          "type": "uint256"
        }
      ],
      "name": "contributorMaxCap",
      "outputs": [
        {
          "name": "",
          "type": "uint256"
        }
      ],
      "payable": false,
      "stateMutability": "view",
      "type": "function"
    },
    {
      "constant": true,
      "inputs": [
        {
          "name": "contributor",
          "type": "address"
        },
        {
          "name": "amountInWei",
          "type": "uint256"
        }
      ],
      "name": "checkMaxCap",
      "outputs": [
        {
          "name": "",
          "type": "uint256"
        }
      ],
      "payable": false,
      "stateMutability": "view",
      "type": "function"
    },
    {
      "constant": false,
      "inputs": [
        {
          "name": "_tokens",
          "type": "uint256"
        },
        {
          "name": "_amountInWei",
          "type": "uint256"
        }
      ],
      "name": "getBonus",
      "outputs": [
        {
          "name": "",
          "type": "uint256"
        }
      ],
      "payable": false,
      "stateMutability": "nonpayable",
      "type": "function"
    },
    {
      "constant": false,
      "inputs": [
        {
          "name": "recipient",
          "type": "address"
        }
      ],
      "name": "buy",
      "outputs": [
        {
          "name": "",
          "type": "uint256"
        }
      ],
      "payable": true,
      "stateMutability": "payable",
      "type": "function"
    },
    {
      "constant": false,
      "inputs": [],
      "name": "finalizeSale",
      "outputs": [],
      "payable": false,
      "stateMutability": "nonpayable",
      "type": "function"
    },
    {
      "constant": false,
      "inputs": [
        {
          "name": "anyToken",
          "type": "address"
        }
      ],
      "name": "emergencyDrain",
      "outputs": [
        {
          "name": "",
          "type": "bool"
        }
      ],
      "payable": false,
      "stateMutability": "nonpayable",
      "type": "function"
    },
    {
      "constant": false,
      "inputs": [],
      "name": "debugBuy",
      "outputs": [],
      "payable": true,
      "stateMutability": "payable",
      "type": "function"
    }
  ],
  "bytecode": "0x6060604052341561000f57600080fd5b60405160a08061177183398101604052808051906020019091908051906020019091908051906020019091908051906020019091908051906020019091905050846000806101000a81548173ffffffffffffffffffffffffffffffffffffffff021916908373ffffffffffffffffffffffffffffffffffffffff16021790555083600160006101000a81548173ffffffffffffffffffffffffffffffffffffffff021916908373ffffffffffffffffffffffffffffffffffffffff16021790555082600760006101000a81548173ffffffffffffffffffffffffffffffffffffffff021916908373ffffffffffffffffffffffffffffffffffffffff1602179055508160058190555080600681905550505050505061163e806101336000396000f300606060405260043610610112576000357c0100000000000000000000000000000000000000000000000000000000900463ffffffff168063053e31691461011e578063060c265f146101475780630992e4c31461019d5780630f560cd7146101f3578063361b94be1461024857806358a687ec146102955780635c474f9e146102aa5780635fbaa390146102d757806362aac84d1461030457806371a18bfb146103295780639427aa961461037a5780639b8906ae146103ba578063a6f07a5c146103e7578063b1f561871461043c578063b3bd870a14610446578063bc59d45a14610493578063e58018c5146104bc578063f088d547146104e5578063f851a44014610527578063fc0c546a1461057c575b61011b336105d1565b50005b341561012957600080fd5b6101316108a2565b6040518082815260200191505060405180910390f35b341561015257600080fd5b610187600480803573ffffffffffffffffffffffffffffffffffffffff169060200190919080359060200190919050506108a8565b6040518082815260200191505060405180910390f35b34156101a857600080fd5b6101dd600480803573ffffffffffffffffffffffffffffffffffffffff16906020019091908035906020019091905050610956565b6040518082815260200191505060405180910390f35b34156101fe57600080fd5b610206610abf565b604051808273ffffffffffffffffffffffffffffffffffffffff1673ffffffffffffffffffffffffffffffffffffffff16815260200191505060405180910390f35b341561025357600080fd5b61027f600480803573ffffffffffffffffffffffffffffffffffffffff16906020019091905050610ae5565b6040518082815260200191505060405180910390f35b34156102a057600080fd5b6102a8610bce565b005b34156102b557600080fd5b6102bd610dfe565b604051808215151515815260200191505060405180910390f35b34156102e257600080fd5b6102ea610e0b565b604051808215151515815260200191505060405180910390f35b341561030f57600080fd5b61032760048080351515906020019091905050610e1e565b005b341561033457600080fd5b610360600480803573ffffffffffffffffffffffffffffffffffffffff16906020019091905050610e96565b604051808215151515815260200191505060405180910390f35b341561038557600080fd5b6103a46004808035906020019091908035906020019091905050611134565b6040518082815260200191505060405180910390f35b34156103c557600080fd5b6103cd61146d565b604051808215151515815260200191505060405180910390f35b34156103f257600080fd5b6103fa611479565b604051808273ffffffffffffffffffffffffffffffffffffffff1673ffffffffffffffffffffffffffffffffffffffff16815260200191505060405180910390f35b61044461149f565b005b341561045157600080fd5b61047d600480803573ffffffffffffffffffffffffffffffffffffffff169060200190919050506114b9565b6040518082815260200191505060405180910390f35b341561049e57600080fd5b6104a66114d1565b6040518082815260200191505060405180910390f35b34156104c757600080fd5b6104cf6114d7565b6040518082815260200191505060405180910390f35b610511600480803573ffffffffffffffffffffffffffffffffffffffff169060200190919050506105d1565b6040518082815260200191505060405180910390f35b341561053257600080fd5b61053a6114dd565b604051808273ffffffffffffffffffffffffffffffffffffffff1673ffffffffffffffffffffffffffffffffffffffff16815260200191505060405180910390f35b341561058757600080fd5b61058f611502565b604051808273ffffffffffffffffffffffffffffffffffffffff1673ffffffffffffffffffffffffffffffffffffffff16815260200191505060405180910390f35b6000806000806000640ba43b74003a111515156105ed57600080fd5b600460009054906101000a900460ff1615151561060957600080fd5b610611610dfe565b151561061c57600080fd5b61062461146d565b15151561063057600080fd5b61063986610ae5565b935061064586346108a8565b925060008411151561065657600080fd5b60008311151561066557600080fd5b83341015151561067457600080fd5b823411156106cf573373ffffffffffffffffffffffffffffffffffffffff166108fc6106a9853461152890919063ffffffff16565b9081150290604051600060405180830381858888f1935050505015156106ce57600080fd5b5b6106d834611541565b6106ed346003546115a690919063ffffffff16565b600381905550610708614e20346115c490919063ffffffff16565b91506107148234611134565b905061072981836115a690919063ffffffff16565b9150600260009054906101000a900473ffffffffffffffffffffffffffffffffffffffff1673ffffffffffffffffffffffffffffffffffffffff1663a9059cbb87846000604051602001526040518363ffffffff167c0100000000000000000000000000000000000000000000000000000000028152600401808373ffffffffffffffffffffffffffffffffffffffff1673ffffffffffffffffffffffffffffffffffffffff16815260200182815260200192505050602060405180830381600087803b15156107f857600080fd5b6102c65a03f1151561080957600080fd5b50505060405180519050151561081b57fe5b7fbeae048c6d270d9469f86cf6e8fedda3c60ad770f16c24c9fc131c8e9a09101d86833484604051808573ffffffffffffffffffffffffffffffffffffffff1673ffffffffffffffffffffffffffffffffffffffff16815260200184815260200183815260200182815260200194505050505060405180910390a134945050505050919050565b60055481565b6000806108b58484610956565b905061090981600860008773ffffffffffffffffffffffffffffffffffffffff1673ffffffffffffffffffffffffffffffffffffffff168152602001908152602001600020546115a690919063ffffffff16565b600860008673ffffffffffffffffffffffffffffffffffffffff1673ffffffffffffffffffffffffffffffffffffffff168152602001908152602001600020819055508091505092915050565b6000806000600760009054906101000a900473ffffffffffffffffffffffffffffffffffffffff1673ffffffffffffffffffffffffffffffffffffffff166394a5601a866000604051602001526040518263ffffffff167c0100000000000000000000000000000000000000000000000000000000028152600401808273ffffffffffffffffffffffffffffffffffffffff1673ffffffffffffffffffffffffffffffffffffffff168152602001915050602060405180830381600087803b1515610a2057600080fd5b6102c65a03f11515610a3157600080fd5b5050506040518051905091506000821415610a4f5760009250610ab7565b610aa1600860008773ffffffffffffffffffffffffffffffffffffffff1673ffffffffffffffffffffffffffffffffffffffff168152602001908152602001600020548361152890919063ffffffff16565b905083811115610ab357839250610ab7565b8092505b505092915050565b600760009054906101000a900473ffffffffffffffffffffffffffffffffffffffff1681565b6000600760009054906101000a900473ffffffffffffffffffffffffffffffffffffffff1673ffffffffffffffffffffffffffffffffffffffff166330184635836000604051602001526040518263ffffffff167c0100000000000000000000000000000000000000000000000000000000028152600401808273ffffffffffffffffffffffffffffffffffffffff1673ffffffffffffffffffffffffffffffffffffffff168152602001915050602060405180830381600087803b1515610bac57600080fd5b6102c65a03f11515610bbd57600080fd5b505050604051805190509050919050565b610bd661146d565b1515610be157600080fd5b6000809054906101000a900473ffffffffffffffffffffffffffffffffffffffff1673ffffffffffffffffffffffffffffffffffffffff163373ffffffffffffffffffffffffffffffffffffffff16141515610c3c57600080fd5b600260009054906101000a900473ffffffffffffffffffffffffffffffffffffffff1673ffffffffffffffffffffffffffffffffffffffff166342966c68600260009054906101000a900473ffffffffffffffffffffffffffffffffffffffff1673ffffffffffffffffffffffffffffffffffffffff166370a08231306000604051602001526040518263ffffffff167c0100000000000000000000000000000000000000000000000000000000028152600401808273ffffffffffffffffffffffffffffffffffffffff1673ffffffffffffffffffffffffffffffffffffffff168152602001915050602060405180830381600087803b1515610d3f57600080fd5b6102c65a03f11515610d5057600080fd5b505050604051805190506000604051602001526040518263ffffffff167c010000000000000000000000000000000000000000000000000000000002815260040180828152602001915050602060405180830381600087803b1515610db457600080fd5b6102c65a03f11515610dc557600080fd5b50505060405180519050507f49943394d1d9872d58364da1ca74d2b7af3f9be1146ac3c37513b0b1cb97ae2b60405160405180910390a1565b6000600554421015905090565b600460009054906101000a900460ff1681565b6000809054906101000a900473ffffffffffffffffffffffffffffffffffffffff1673ffffffffffffffffffffffffffffffffffffffff163373ffffffffffffffffffffffffffffffffffffffff16141515610e7957600080fd5b80600460006101000a81548160ff02191690831515021790555050565b60008060009054906101000a900473ffffffffffffffffffffffffffffffffffffffff1673ffffffffffffffffffffffffffffffffffffffff163373ffffffffffffffffffffffffffffffffffffffff16141515610ef357600080fd5b610efb61146d565b1515610f0657600080fd5b60003073ffffffffffffffffffffffffffffffffffffffff16311115610f4757610f463073ffffffffffffffffffffffffffffffffffffffff1631611541565b5b600073ffffffffffffffffffffffffffffffffffffffff168273ffffffffffffffffffffffffffffffffffffffff1614151561112b578173ffffffffffffffffffffffffffffffffffffffff1663a9059cbb600160009054906101000a900473ffffffffffffffffffffffffffffffffffffffff168473ffffffffffffffffffffffffffffffffffffffff166370a08231306000604051602001526040518263ffffffff167c0100000000000000000000000000000000000000000000000000000000028152600401808273ffffffffffffffffffffffffffffffffffffffff1673ffffffffffffffffffffffffffffffffffffffff168152602001915050602060405180830381600087803b151561105f57600080fd5b6102c65a03f1151561107057600080fd5b505050604051805190506000604051602001526040518363ffffffff167c0100000000000000000000000000000000000000000000000000000000028152600401808373ffffffffffffffffffffffffffffffffffffffff1673ffffffffffffffffffffffffffffffffffffffff16815260200182815260200192505050602060405180830381600087803b151561110757600080fd5b6102c65a03f1151561111857600080fd5b50505060405180519050151561112a57fe5b5b60019050919050565b60006005544211801561114e57506203f480600554014211155b156112d25768056bc75e2d6310000082101580156111745750681043561a882930000082105b156111a7576111a06064611192602d866115c490919063ffffffff16565b6115f790919063ffffffff16565b9050611467565b681043561a882930000082101580156111c85750681b1ae4d6e2ef50000082105b156111fb576111f460646111e66032866115c490919063ffffffff16565b6115f790919063ffffffff16565b9050611467565b681b1ae4d6e2ef500000821015801561121c5750683635c9adc5dea0000082105b1561124f57611248606461123a603c866115c490919063ffffffff16565b6115f790919063ffffffff16565b9050611467565b683635c9adc5dea000008210158015611271575068a2a15d09519be000008211155b156112a45761129d606461128f6041866115c490919063ffffffff16565b6115f790919063ffffffff16565b9050611467565b6112cb60646112bd6019866115c490919063ffffffff16565b6115f790919063ffffffff16565b9050611467565b6203f48060055401421180156112ef575062151800600554014211155b156113225761131b606461130d6019866115c490919063ffffffff16565b6115f790919063ffffffff16565b9050611467565b62151800600554014211801561133f575062239880600554014211155b156113725761136b606461135d600f866115c490919063ffffffff16565b6115f790919063ffffffff16565b9050611467565b62239880600554014211801561138f57506230c780600554014211155b156113c2576113bb60646113ad600a866115c490919063ffffffff16565b6115f790919063ffffffff16565b9050611467565b6230c78060055401421180156113df5750623df680600554014211155b156114125761140b60646113fd6005866115c490919063ffffffff16565b6115f790919063ffffffff16565b9050611467565b623df680600554014211801561142f575062448e00600554014211155b156114625761145b606461144d6003866115c490919063ffffffff16565b6115f790919063ffffffff16565b9050611467565b600090505b92915050565b60006006544211905090565b600160009054906101000a900473ffffffffffffffffffffffffffffffffffffffff1681565b607b341415156114ae57600080fd5b6114b734611541565b565b60086020528060005260406000206000915090505481565b60035481565b60065481565b6000809054906101000a900473ffffffffffffffffffffffffffffffffffffffff1681565b600260009054906101000a900473ffffffffffffffffffffffffffffffffffffffff1681565b600082821115151561153657fe5b818303905092915050565b600160009054906101000a900473ffffffffffffffffffffffffffffffffffffffff1673ffffffffffffffffffffffffffffffffffffffff166108fc829081150290604051600060405180830381858888f1935050505015156115a357600080fd5b50565b60008082840190508381101515156115ba57fe5b8091505092915050565b600080828402905060008414806115e557508284828115156115e257fe5b04145b15156115ed57fe5b8091505092915050565b600080828481151561160557fe5b04905080915050929150505600a165627a7a72305820a0623b0c54784df69017547fcfabce1cb7162e6ce9f575c139a4ca3bad6987dc0029",
  "source": "pragma solidity ^0.4.19;\n\nimport './BigbomToken.sol';\nimport './zeppelin/ownership/Ownable.sol';\nimport './BigbomContributorWhiteList.sol';\nimport './BigbomPrivateSaleList.sol';\nimport './zeppelin/math/SafeMath.sol';\n\ncontract BigbomTokenSale {\n    address             public admin;\n    address             public bigbomMultiSigWallet;\n    BigbomToken         public token;\n    uint                public raisedWei;\n    bool                public haltSale;\n    uint                      public openSaleStartTime;\n    uint                      public openSaleEndTime;\n    BigbomContributorWhiteList public list;\n\n    mapping(address=>uint)    public participated;\n\n    // mapping(bytes32=>uint) public proxyPurchases;\n    using SafeMath for uint;\n\n    function BigbomTokenSale( address _admin,\n                              address _bigbomMultiSigWallet,\n                              BigbomContributorWhiteList _whilteListContract,\n                              uint _publicSaleStartTime,\n                              uint _publicSaleEndTime)       \n    {\n        admin = _admin;\n        bigbomMultiSigWallet = _bigbomMultiSigWallet;\n        list = _whilteListContract;\n        openSaleStartTime = _publicSaleStartTime;\n        openSaleEndTime = _publicSaleEndTime;\n    }\n    \n    function saleEnded() constant returns(bool) {\n        return now > openSaleEndTime;\n    }\n\n    function saleStarted() constant returns(bool) {\n        return now >= openSaleStartTime;\n    }\n\n    function setHaltSale( bool halt ) {\n        require( msg.sender == admin );\n        haltSale = halt;\n    }\n    // this is a seperate function so user could query it before crowdsale starts\n    function contributorMinCap( address contributor ) constant returns(uint) {\n        return list.getMinCap( contributor );\n    }\n    function contributorMaxCap( address contributor, uint amountInWei ) constant returns(uint) {\n        uint cap = list.getMaxCap( contributor );\n        if( cap == 0 ) return 0;\n        uint remainedCap = cap.sub( participated[ contributor ] );\n\n        if( remainedCap > amountInWei ) return amountInWei;\n        else return remainedCap;\n    }\n\n    function checkMaxCap( address contributor, uint amountInWei ) constant returns(uint) {\n        uint result = contributorMaxCap( contributor, amountInWei );\n        participated[contributor] = participated[contributor].add( result );\n        return result;\n    }\n\n    function() payable {\n        buy( msg.sender );\n    }\n\n    // event ProxyBuy( bytes32 indexed _proxy, address _recipient, uint _amountInWei );\n    // function proxyBuy( bytes32 proxy, address recipient ) payable returns(uint){\n    //     uint amount = buy( recipient );\n    //     proxyPurchases[proxy] = proxyPurchases[proxy].add(amount);\n    //     ProxyBuy( proxy, recipient, amount );\n\n    //     return amount;\n    // }\n\n\n    function getBonus(uint _tokens, uint _amountInWei) returns (uint){\n        if (now > openSaleStartTime && now <= (openSaleStartTime+3 days)){\n            if (_amountInWei >= 100*1e18 && _amountInWei < 300 * 1e18){\n                return  _tokens.mul(45).div(100);\n            }\n            if (_amountInWei >= 300*1e18 && _amountInWei < 500 * 1e18){\n                return  _tokens.mul(50).div(100);\n            }\n            if (_amountInWei >= 500*1e18 && _amountInWei < 1000 * 1e18){\n                return  _tokens.mul(60).div(100);\n            }\n            if (_amountInWei >= 1000*1e18 && _amountInWei <= 3000 * 1e18){\n                return  _tokens.mul(65).div(100);\n            }\n            return _tokens.mul(25).div(100);\n        }else if (now > (openSaleStartTime+3  days) && now <= (openSaleStartTime+16 days)){\n            return _tokens.mul(25).div(100);\n        }else if (now > (openSaleStartTime+16 days) && now <= (openSaleStartTime+27 days)){\n            return _tokens.mul(15).div(100);\n        }else if (now > (openSaleStartTime+27 days) && now <= (openSaleStartTime+37 days)){\n            return _tokens.mul(10).div(100);\n        }else if (now > (openSaleStartTime+37 days) && now <= (openSaleStartTime+47 days)){\n            return _tokens.mul(5).div(100);\n        }else if (now > (openSaleStartTime+47 days) && now <= (openSaleStartTime+52 days)){\n            return _tokens.mul(3).div(100);\n        }else{\n            return 0;\n        }\n    }\n\n    event Buy( address _buyer, uint _tokens, uint _payedWei, uint _bonus );\n    function buy( address recipient ) payable returns(uint){\n        require( tx.gasprice <= 50000000000 wei );\n\n        require( ! haltSale );\n        require( saleStarted() );\n        require( ! saleEnded() );\n\n        uint mincap = contributorMinCap(recipient);\n\n        uint maxcap = checkMaxCap(recipient, msg.value );\n\n        require( mincap > 0 );\n        require( maxcap > 0 );\n        // fail if msg.value < mincap\n        require (msg.value >= mincap);\n        // send to msg.sender, not to recipient if value > maxcap\n        if( msg.value > maxcap  ) {\n            msg.sender.transfer( msg.value.sub( maxcap ) );\n        }\n\n        // send payment to wallet\n        sendETHToMultiSig( msg.value );\n        raisedWei = raisedWei.add( msg.value );\n        // 1ETH = 20000 BBO\n        uint recievedTokens = msg.value.mul( 20000 );\n        // TODO bounce\n        uint bonus = getBonus(recievedTokens, msg.value);\n        recievedTokens = recievedTokens.add(bonus);\n        assert( token.transfer( recipient, recievedTokens ) );\n        //\n\n        Buy( recipient, recievedTokens, msg.value, bonus );\n\n        return msg.value;\n    }\n\n    function sendETHToMultiSig( uint value ) internal {\n        bigbomMultiSigWallet.transfer( value );\n    }\n\n    event FinalizeSale();\n    // function is callable by everyone\n    function finalizeSale() {\n        require( saleEnded() );\n        require( msg.sender == admin );\n\n        // burn remaining tokens\n        token.burn(token.balanceOf(this));\n\n        FinalizeSale();\n    }\n\n    // ETH balance is always expected to be 0.\n    // but in case something went wrong, we use this function to extract the eth.\n    function emergencyDrain(ERC20 anyToken) returns(bool){\n        require( msg.sender == admin );\n        require( saleEnded() );\n\n        if( this.balance > 0 ) {\n            sendETHToMultiSig( this.balance );\n        }\n\n        if( anyToken != address(0x0) ) {\n            assert( anyToken.transfer(bigbomMultiSigWallet, anyToken.balanceOf(this)) );\n        }\n\n        return true;\n    }\n\n    // just to check that funds goes to the right place\n    // tokens are not given in return\n    function debugBuy() payable {\n        require( msg.value == 123 );\n        sendETHToMultiSig( msg.value );\n    }\n}\n",
  "sourcePath": "/Users/applepen/Documents/git/bigbom/BigBomTokenSale/contracts/BigbomTokenSale.sol",
  "compiler": {
    "name": "solc",
    "version": "0.4.19+commit.c4cbbb05.Emscripten.clang"
  },
  "schemaVersion": "2.0.0",
  "updatedAt": "2018-03-13T04:11:10.943Z"
}