{
  "contractName": "BigbomTokenSale",
  "abi": [
    {
      "constant": true,
      "inputs": [],
      "name": "openSaleStartTime",
      "outputs": [
        {
          "name": "",
          "type": "uint256"
        }
      ],
      "payable": false,
      "stateMutability": "view",
      "type": "function"
    },
    {
      "constant": true,
      "inputs": [
        {
          "name": "contributor",
          "type": "address"
        },
        {
          "name": "amountInWei",
          "type": "uint256"
        }
      ],
      "name": "contributorMaxCap",
      "outputs": [
        {
          "name": "",
          "type": "uint256"
        }
      ],
      "payable": false,
      "stateMutability": "view",
      "type": "function"
    },
    {
      "constant": true,
      "inputs": [],
      "name": "list",
      "outputs": [
        {
          "name": "",
          "type": "address"
        }
      ],
      "payable": false,
      "stateMutability": "view",
      "type": "function"
    },
    {
      "constant": true,
      "inputs": [
        {
          "name": "contributor",
          "type": "address"
        }
      ],
      "name": "contributorMinCap",
      "outputs": [
        {
          "name": "",
          "type": "uint256"
        }
      ],
      "payable": false,
      "stateMutability": "view",
      "type": "function"
    },
    {
      "constant": false,
      "inputs": [],
      "name": "finalizeSale",
      "outputs": [],
      "payable": false,
      "stateMutability": "nonpayable",
      "type": "function"
    },
    {
      "constant": true,
      "inputs": [],
      "name": "saleStarted",
      "outputs": [
        {
          "name": "",
          "type": "bool"
        }
      ],
      "payable": false,
      "stateMutability": "view",
      "type": "function"
    },
    {
      "constant": true,
      "inputs": [],
      "name": "haltSale",
      "outputs": [
        {
          "name": "",
          "type": "bool"
        }
      ],
      "payable": false,
      "stateMutability": "view",
      "type": "function"
    },
    {
      "constant": false,
      "inputs": [
        {
          "name": "halt",
          "type": "bool"
        }
      ],
      "name": "setHaltSale",
      "outputs": [],
      "payable": false,
      "stateMutability": "nonpayable",
      "type": "function"
    },
    {
      "constant": false,
      "inputs": [
        {
          "name": "anyToken",
          "type": "address"
        }
      ],
      "name": "emergencyDrain",
      "outputs": [
        {
          "name": "",
          "type": "bool"
        }
      ],
      "payable": false,
      "stateMutability": "nonpayable",
      "type": "function"
    },
    {
      "constant": false,
      "inputs": [
        {
          "name": "_tokens",
          "type": "uint256"
        },
        {
          "name": "_amountInWei",
          "type": "uint256"
        }
      ],
      "name": "getBonus",
      "outputs": [
        {
          "name": "",
          "type": "uint256"
        }
      ],
      "payable": false,
      "stateMutability": "nonpayable",
      "type": "function"
    },
    {
      "constant": true,
      "inputs": [],
      "name": "saleEnded",
      "outputs": [
        {
          "name": "",
          "type": "bool"
        }
      ],
      "payable": false,
      "stateMutability": "view",
      "type": "function"
    },
    {
      "constant": true,
      "inputs": [],
      "name": "bigbomMultiSigWallet",
      "outputs": [
        {
          "name": "",
          "type": "address"
        }
      ],
      "payable": false,
      "stateMutability": "view",
      "type": "function"
    },
    {
      "constant": false,
      "inputs": [],
      "name": "debugBuy",
      "outputs": [],
      "payable": true,
      "stateMutability": "payable",
      "type": "function"
    },
    {
      "constant": true,
      "inputs": [
        {
          "name": "",
          "type": "address"
        }
      ],
      "name": "participated",
      "outputs": [
        {
          "name": "",
          "type": "uint256"
        }
      ],
      "payable": false,
      "stateMutability": "view",
      "type": "function"
    },
    {
      "constant": true,
      "inputs": [],
      "name": "raisedWei",
      "outputs": [
        {
          "name": "",
          "type": "uint256"
        }
      ],
      "payable": false,
      "stateMutability": "view",
      "type": "function"
    },
    {
      "constant": true,
      "inputs": [],
      "name": "openSaleEndTime",
      "outputs": [
        {
          "name": "",
          "type": "uint256"
        }
      ],
      "payable": false,
      "stateMutability": "view",
      "type": "function"
    },
    {
      "constant": false,
      "inputs": [
        {
          "name": "recipient",
          "type": "address"
        }
      ],
      "name": "buy",
      "outputs": [
        {
          "name": "",
          "type": "uint256"
        }
      ],
      "payable": true,
      "stateMutability": "payable",
      "type": "function"
    },
    {
      "constant": true,
      "inputs": [],
      "name": "admin",
      "outputs": [
        {
          "name": "",
          "type": "address"
        }
      ],
      "payable": false,
      "stateMutability": "view",
      "type": "function"
    },
    {
      "constant": true,
      "inputs": [],
      "name": "token",
      "outputs": [
        {
          "name": "",
          "type": "address"
        }
      ],
      "payable": false,
      "stateMutability": "view",
      "type": "function"
    },
    {
      "inputs": [
        {
          "name": "_admin",
          "type": "address"
        },
        {
          "name": "_bigbomMultiSigWallet",
          "type": "address"
        },
        {
          "name": "_whilteListContract",
          "type": "address"
        },
        {
          "name": "_publicSaleStartTime",
          "type": "uint256"
        },
        {
          "name": "_publicSaleEndTime",
          "type": "uint256"
        },
        {
          "name": "_token",
          "type": "address"
        }
      ],
      "payable": false,
      "stateMutability": "nonpayable",
      "type": "constructor"
    },
    {
      "payable": true,
      "stateMutability": "payable",
      "type": "fallback"
    },
    {
      "anonymous": false,
      "inputs": [
        {
          "indexed": false,
          "name": "_buyer",
          "type": "address"
        },
        {
          "indexed": false,
          "name": "_tokens",
          "type": "uint256"
        },
        {
          "indexed": false,
          "name": "_payedWei",
          "type": "uint256"
        },
        {
          "indexed": false,
          "name": "_bonus",
          "type": "uint256"
        }
      ],
      "name": "Buy",
      "type": "event"
    },
    {
      "anonymous": false,
      "inputs": [],
      "name": "FinalizeSale",
      "type": "event"
    }
  ],
  "bytecode": "0x6060604052341561000f57600080fd5b60405160c08061174f83398101604052808051906020019091908051906020019091908051906020019091908051906020019091908051906020019091908051906020019091905050856000806101000a81548173ffffffffffffffffffffffffffffffffffffffff021916908373ffffffffffffffffffffffffffffffffffffffff16021790555084600160006101000a81548173ffffffffffffffffffffffffffffffffffffffff021916908373ffffffffffffffffffffffffffffffffffffffff16021790555083600760006101000a81548173ffffffffffffffffffffffffffffffffffffffff021916908373ffffffffffffffffffffffffffffffffffffffff160217905550826005819055508160068190555080600260006101000a81548173ffffffffffffffffffffffffffffffffffffffff021916908373ffffffffffffffffffffffffffffffffffffffff1602179055505050505050506115d18061017e6000396000f300606060405260043610610107576000357c0100000000000000000000000000000000000000000000000000000000900463ffffffff168063053e3169146101135780630992e4c31461013c5780630f560cd714610192578063361b94be146101e757806358a687ec146102345780635c474f9e146102495780635fbaa3901461027657806362aac84d146102a357806371a18bfb146102c85780639427aa96146103195780639b8906ae14610359578063a6f07a5c14610386578063b1f56187146103db578063b3bd870a146103e5578063bc59d45a14610432578063e58018c51461045b578063f088d54714610484578063f851a440146104c6578063fc0c546a1461051b575b61011033610570565b50005b341561011e57600080fd5b610126610835565b6040518082815260200191505060405180910390f35b341561014757600080fd5b61017c600480803573ffffffffffffffffffffffffffffffffffffffff1690602001909190803590602001909190505061083b565b6040518082815260200191505060405180910390f35b341561019d57600080fd5b6101a56109a4565b604051808273ffffffffffffffffffffffffffffffffffffffff1673ffffffffffffffffffffffffffffffffffffffff16815260200191505060405180910390f35b34156101f257600080fd5b61021e600480803573ffffffffffffffffffffffffffffffffffffffff169060200190919050506109ca565b6040518082815260200191505060405180910390f35b341561023f57600080fd5b610247610ab3565b005b341561025457600080fd5b61025c610ce3565b604051808215151515815260200191505060405180910390f35b341561028157600080fd5b610289610cf0565b604051808215151515815260200191505060405180910390f35b34156102ae57600080fd5b6102c660048080351515906020019091905050610d03565b005b34156102d357600080fd5b6102ff600480803573ffffffffffffffffffffffffffffffffffffffff16906020019091905050610d7b565b604051808215151515815260200191505060405180910390f35b341561032457600080fd5b6103436004808035906020019091908035906020019091905050611019565b6040518082815260200191505060405180910390f35b341561036457600080fd5b61036c611352565b604051808215151515815260200191505060405180910390f35b341561039157600080fd5b61039961135e565b604051808273ffffffffffffffffffffffffffffffffffffffff1673ffffffffffffffffffffffffffffffffffffffff16815260200191505060405180910390f35b6103e3611384565b005b34156103f057600080fd5b61041c600480803573ffffffffffffffffffffffffffffffffffffffff1690602001909190505061139e565b6040518082815260200191505060405180910390f35b341561043d57600080fd5b6104456113b6565b6040518082815260200191505060405180910390f35b341561046657600080fd5b61046e6113bc565b6040518082815260200191505060405180910390f35b6104b0600480803573ffffffffffffffffffffffffffffffffffffffff16906020019091905050610570565b6040518082815260200191505060405180910390f35b34156104d157600080fd5b6104d96113c2565b604051808273ffffffffffffffffffffffffffffffffffffffff1673ffffffffffffffffffffffffffffffffffffffff16815260200191505060405180910390f35b341561052657600080fd5b61052e6113e7565b604051808273ffffffffffffffffffffffffffffffffffffffff1673ffffffffffffffffffffffffffffffffffffffff16815260200191505060405180910390f35b600080600080600080600460009054906101000a900460ff1615151561059557600080fd5b61059d610ce3565b15156105a857600080fd5b6105b0611352565b1515156105bc57600080fd5b6105c5876109ca565b94506105d1873461140d565b93503492506000851115156105e557600080fd5b6000841115156105f457600080fd5b84341015151561060357600080fd5b83341115610661578392503373ffffffffffffffffffffffffffffffffffffffff166108fc61063b86346114bb90919063ffffffff16565b9081150290604051600060405180830381858888f19350505050151561066057600080fd5b5b61066a836114d4565b61067f8360035461153990919063ffffffff16565b60038190555061069a614e208461155790919063ffffffff16565b91506106a68284611019565b90506106bb818361153990919063ffffffff16565b9150600260009054906101000a900473ffffffffffffffffffffffffffffffffffffffff1673ffffffffffffffffffffffffffffffffffffffff1663a9059cbb88846000604051602001526040518363ffffffff167c0100000000000000000000000000000000000000000000000000000000028152600401808373ffffffffffffffffffffffffffffffffffffffff1673ffffffffffffffffffffffffffffffffffffffff16815260200182815260200192505050602060405180830381600087803b151561078a57600080fd5b6102c65a03f1151561079b57600080fd5b5050506040518051905015156107ad57fe5b7fbeae048c6d270d9469f86cf6e8fedda3c60ad770f16c24c9fc131c8e9a09101d87838584604051808573ffffffffffffffffffffffffffffffffffffffff1673ffffffffffffffffffffffffffffffffffffffff16815260200184815260200183815260200182815260200194505050505060405180910390a13495505050505050919050565b60055481565b6000806000600760009054906101000a900473ffffffffffffffffffffffffffffffffffffffff1673ffffffffffffffffffffffffffffffffffffffff166394a5601a866000604051602001526040518263ffffffff167c0100000000000000000000000000000000000000000000000000000000028152600401808273ffffffffffffffffffffffffffffffffffffffff1673ffffffffffffffffffffffffffffffffffffffff168152602001915050602060405180830381600087803b151561090557600080fd5b6102c65a03f1151561091657600080fd5b5050506040518051905091506000821415610934576000925061099c565b610986600860008773ffffffffffffffffffffffffffffffffffffffff1673ffffffffffffffffffffffffffffffffffffffff16815260200190815260200160002054836114bb90919063ffffffff16565b9050838111156109985783925061099c565b8092505b505092915050565b600760009054906101000a900473ffffffffffffffffffffffffffffffffffffffff1681565b6000600760009054906101000a900473ffffffffffffffffffffffffffffffffffffffff1673ffffffffffffffffffffffffffffffffffffffff166330184635836000604051602001526040518263ffffffff167c0100000000000000000000000000000000000000000000000000000000028152600401808273ffffffffffffffffffffffffffffffffffffffff1673ffffffffffffffffffffffffffffffffffffffff168152602001915050602060405180830381600087803b1515610a9157600080fd5b6102c65a03f11515610aa257600080fd5b505050604051805190509050919050565b610abb611352565b1515610ac657600080fd5b6000809054906101000a900473ffffffffffffffffffffffffffffffffffffffff1673ffffffffffffffffffffffffffffffffffffffff163373ffffffffffffffffffffffffffffffffffffffff16141515610b2157600080fd5b600260009054906101000a900473ffffffffffffffffffffffffffffffffffffffff1673ffffffffffffffffffffffffffffffffffffffff166342966c68600260009054906101000a900473ffffffffffffffffffffffffffffffffffffffff1673ffffffffffffffffffffffffffffffffffffffff166370a08231306000604051602001526040518263ffffffff167c0100000000000000000000000000000000000000000000000000000000028152600401808273ffffffffffffffffffffffffffffffffffffffff1673ffffffffffffffffffffffffffffffffffffffff168152602001915050602060405180830381600087803b1515610c2457600080fd5b6102c65a03f11515610c3557600080fd5b505050604051805190506000604051602001526040518263ffffffff167c010000000000000000000000000000000000000000000000000000000002815260040180828152602001915050602060405180830381600087803b1515610c9957600080fd5b6102c65a03f11515610caa57600080fd5b50505060405180519050507f49943394d1d9872d58364da1ca74d2b7af3f9be1146ac3c37513b0b1cb97ae2b60405160405180910390a1565b6000600554421015905090565b600460009054906101000a900460ff1681565b6000809054906101000a900473ffffffffffffffffffffffffffffffffffffffff1673ffffffffffffffffffffffffffffffffffffffff163373ffffffffffffffffffffffffffffffffffffffff16141515610d5e57600080fd5b80600460006101000a81548160ff02191690831515021790555050565b60008060009054906101000a900473ffffffffffffffffffffffffffffffffffffffff1673ffffffffffffffffffffffffffffffffffffffff163373ffffffffffffffffffffffffffffffffffffffff16141515610dd857600080fd5b610de0611352565b1515610deb57600080fd5b60003073ffffffffffffffffffffffffffffffffffffffff16311115610e2c57610e2b3073ffffffffffffffffffffffffffffffffffffffff16316114d4565b5b600073ffffffffffffffffffffffffffffffffffffffff168273ffffffffffffffffffffffffffffffffffffffff16141515611010578173ffffffffffffffffffffffffffffffffffffffff1663a9059cbb600160009054906101000a900473ffffffffffffffffffffffffffffffffffffffff168473ffffffffffffffffffffffffffffffffffffffff166370a08231306000604051602001526040518263ffffffff167c0100000000000000000000000000000000000000000000000000000000028152600401808273ffffffffffffffffffffffffffffffffffffffff1673ffffffffffffffffffffffffffffffffffffffff168152602001915050602060405180830381600087803b1515610f4457600080fd5b6102c65a03f11515610f5557600080fd5b505050604051805190506000604051602001526040518363ffffffff167c0100000000000000000000000000000000000000000000000000000000028152600401808373ffffffffffffffffffffffffffffffffffffffff1673ffffffffffffffffffffffffffffffffffffffff16815260200182815260200192505050602060405180830381600087803b1515610fec57600080fd5b6102c65a03f11515610ffd57600080fd5b50505060405180519050151561100f57fe5b5b60019050919050565b60006005544211801561103357506203f480600554014211155b156111b75768056bc75e2d6310000082101580156110595750681043561a882930000082105b1561108c576110856064611077602d8661155790919063ffffffff16565b61158a90919063ffffffff16565b905061134c565b681043561a882930000082101580156110ad5750681b1ae4d6e2ef50000082105b156110e0576110d960646110cb60328661155790919063ffffffff16565b61158a90919063ffffffff16565b905061134c565b681b1ae4d6e2ef50000082101580156111015750683635c9adc5dea0000082105b156111345761112d606461111f603c8661155790919063ffffffff16565b61158a90919063ffffffff16565b905061134c565b683635c9adc5dea000008210158015611156575068a2a15d09519be000008211155b1561118957611182606461117460418661155790919063ffffffff16565b61158a90919063ffffffff16565b905061134c565b6111b060646111a260198661155790919063ffffffff16565b61158a90919063ffffffff16565b905061134c565b6203f48060055401421180156111d4575062151800600554014211155b156112075761120060646111f260198661155790919063ffffffff16565b61158a90919063ffffffff16565b905061134c565b621518006005540142118015611224575062224700600554014211155b15611257576112506064611242600f8661155790919063ffffffff16565b61158a90919063ffffffff16565b905061134c565b6222470060055401421180156112745750622f7600600554014211155b156112a7576112a06064611292600a8661155790919063ffffffff16565b61158a90919063ffffffff16565b905061134c565b622f760060055401421180156112c45750623df680600554014211155b156112f7576112f060646112e260058661155790919063ffffffff16565b61158a90919063ffffffff16565b905061134c565b623df6806005540142118015611314575062433c80600554014211155b1561134757611340606461133260038661155790919063ffffffff16565b61158a90919063ffffffff16565b905061134c565b600090505b92915050565b60006006544211905090565b600160009054906101000a900473ffffffffffffffffffffffffffffffffffffffff1681565b60003411151561139357600080fd5b61139c346114d4565b565b60086020528060005260406000206000915090505481565b60035481565b60065481565b6000809054906101000a900473ffffffffffffffffffffffffffffffffffffffff1681565b600260009054906101000a900473ffffffffffffffffffffffffffffffffffffffff1681565b60008061141a848461083b565b905061146e81600860008773ffffffffffffffffffffffffffffffffffffffff1673ffffffffffffffffffffffffffffffffffffffff1681526020019081526020016000205461153990919063ffffffff16565b600860008673ffffffffffffffffffffffffffffffffffffffff1673ffffffffffffffffffffffffffffffffffffffff168152602001908152602001600020819055508091505092915050565b60008282111515156114c957fe5b818303905092915050565b600160009054906101000a900473ffffffffffffffffffffffffffffffffffffffff1673ffffffffffffffffffffffffffffffffffffffff166108fc829081150290604051600060405180830381858888f19350505050151561153657600080fd5b50565b600080828401905083811015151561154d57fe5b8091505092915050565b60008082840290506000841480611578575082848281151561157557fe5b04145b151561158057fe5b8091505092915050565b600080828481151561159857fe5b04905080915050929150505600a165627a7a7230582041266ee6f5acf17f45700443f8805a050e96ca83495dd72069f80f7163bbf88d0029",
  "source": "pragma solidity ^0.4.18;\n\nimport './BigbomToken.sol';\nimport './zeppelin/ownership/Ownable.sol';\nimport './BigbomContributorWhiteList.sol';\nimport './BigbomPrivateSaleList.sol';\nimport './zeppelin/math/SafeMath.sol';\n\ncontract BigbomTokenSale {\n    address             public admin;\n    address             public bigbomMultiSigWallet;\n    BigbomToken         public token;\n    uint                public raisedWei;\n    bool                public haltSale;\n    uint                      public openSaleStartTime;\n    uint                      public openSaleEndTime;\n    BigbomContributorWhiteList public list;\n\n    mapping(address=>uint)    public participated;\n\n    // mapping(bytes32=>uint) public proxyPurchases;\n    using SafeMath for uint;\n\n    function BigbomTokenSale( address _admin,\n                              address _bigbomMultiSigWallet,\n                              BigbomContributorWhiteList _whilteListContract,\n                              uint _publicSaleStartTime,\n                              uint _publicSaleEndTime,\n                              BigbomToken _token)       \n    {\n        admin = _admin;\n        bigbomMultiSigWallet = _bigbomMultiSigWallet;\n        list = _whilteListContract;\n        openSaleStartTime = _publicSaleStartTime;\n        openSaleEndTime = _publicSaleEndTime;\n        token = _token;\n    }\n    \n    function saleEnded() constant returns(bool) {\n        return now > openSaleEndTime;\n    }\n\n    function saleStarted() constant returns(bool) {\n        return now >= openSaleStartTime;\n    }\n\n    function setHaltSale( bool halt ) {\n        require( msg.sender == admin );\n        haltSale = halt;\n    }\n    // this is a seperate function so user could query it before crowdsale starts\n    function contributorMinCap( address contributor ) constant returns(uint) {\n        return list.getMinCap( contributor );\n    }\n    function contributorMaxCap( address contributor, uint amountInWei ) constant returns(uint) {\n        uint cap = list.getMaxCap( contributor );\n        if( cap == 0 ) return 0;\n        uint remainedCap = cap.sub( participated[ contributor ] );\n\n        if( remainedCap > amountInWei ) return amountInWei;\n        else return remainedCap;\n    }\n\n    function checkMaxCap( address contributor, uint amountInWei ) internal returns(uint) {\n        uint result = contributorMaxCap( contributor, amountInWei );\n        participated[contributor] = participated[contributor].add( result );\n        return result;\n    }\n\n    function() payable {\n        buy( msg.sender );\n    }\n\n    // event ProxyBuy( bytes32 indexed _proxy, address _recipient, uint _amountInWei );\n    // function proxyBuy( bytes32 proxy, address recipient ) payable returns(uint){\n    //     uint amount = buy( recipient );\n    //     proxyPurchases[proxy] = proxyPurchases[proxy].add(amount);\n    //     ProxyBuy( proxy, recipient, amount );\n\n    //     return amount;\n    // }\n\n\n    function getBonus(uint _tokens, uint _amountInWei) returns (uint){\n        if (now > openSaleStartTime && now <= (openSaleStartTime+3 days)){\n            if (_amountInWei >= 100*1e18 && _amountInWei < 300 * 1e18){\n                return  _tokens.mul(45).div(100);\n            }\n            if (_amountInWei >= 300*1e18 && _amountInWei < 500 * 1e18){\n                return  _tokens.mul(50).div(100);\n            }\n            if (_amountInWei >= 500*1e18 && _amountInWei < 1000 * 1e18){\n                return  _tokens.mul(60).div(100);\n            }\n            if (_amountInWei >= 1000*1e18 && _amountInWei <= 3000 * 1e18){\n                return  _tokens.mul(65).div(100);\n            }\n            return _tokens.mul(25).div(100);\n        }else if (now > (openSaleStartTime+3  days) && now <= (openSaleStartTime+16 days)){\n            return _tokens.mul(25).div(100);\n        }else if (now > (openSaleStartTime+16 days) && now <= (openSaleStartTime+26 days)){\n            return _tokens.mul(15).div(100);\n        }else if (now > (openSaleStartTime+26 days) && now <= (openSaleStartTime+36 days)){\n            return _tokens.mul(10).div(100);\n        }else if (now > (openSaleStartTime+36 days) && now <= (openSaleStartTime+47 days)){\n            return _tokens.mul(5).div(100);\n        }else if (now > (openSaleStartTime+47 days) && now <= (openSaleStartTime+51 days)){\n            return _tokens.mul(3).div(100);\n        }else{\n            return 0;\n        }\n    }\n\n    event Buy( address _buyer, uint _tokens, uint _payedWei, uint _bonus );\n    function buy( address recipient ) payable returns(uint){\n        //require( tx.gasprice <= 50000000000 wei );\n\n        require( ! haltSale );\n        require( saleStarted() );\n        require( ! saleEnded() );\n\n        uint mincap = contributorMinCap(recipient);\n\n        uint maxcap = checkMaxCap(recipient, msg.value );\n        uint allowValue = msg.value;\n        require( mincap > 0 );\n        require( maxcap > 0 );\n        // fail if msg.value < mincap\n        require (msg.value >= mincap);\n        // send to msg.sender, not to recipient if value > maxcap\n        if( msg.value > maxcap  ) {\n            allowValue = maxcap;\n            //require (allowValue >= mincap);\n            msg.sender.transfer( msg.value.sub( maxcap ) );\n        }\n\n        // send payment to wallet\n        sendETHToMultiSig(allowValue);\n        raisedWei = raisedWei.add( allowValue );\n        // 1ETH = 20000 BBO\n        uint recievedTokens = allowValue.mul( 20000 );\n        // TODO bounce\n        //uint bonus = getBonus(recievedTokens, msg.value);\n        uint bonus = getBonus(recievedTokens, allowValue);\n        \n        recievedTokens = recievedTokens.add(bonus);\n        assert( token.transfer( recipient, recievedTokens ) );\n        //\n\n        Buy( recipient, recievedTokens, allowValue, bonus );\n\n        return msg.value;\n    }\n\n    function sendETHToMultiSig( uint value ) internal {\n        bigbomMultiSigWallet.transfer( value );\n    }\n\n    event FinalizeSale();\n    // function is callable by everyone\n    function finalizeSale() {\n        require( saleEnded() );\n        require( msg.sender == admin );\n\n        // burn remaining tokens\n        token.burn(token.balanceOf(this));\n\n        FinalizeSale();\n    }\n\n    // ETH balance is always expected to be 0.\n    // but in case something went wrong, we use this function to extract the eth.\n    function emergencyDrain(ERC20 anyToken) returns(bool){\n        require( msg.sender == admin );\n        require( saleEnded() );\n\n        if( this.balance > 0 ) {\n            sendETHToMultiSig( this.balance );\n        }\n\n        if( anyToken != address(0x0) ) {\n            assert( anyToken.transfer(bigbomMultiSigWallet, anyToken.balanceOf(this)) );\n        }\n\n        return true;\n    }\n\n    // just to check that funds goes to the right place\n    // tokens are not given in return\n    function debugBuy() payable {\n        require( msg.value > 0 );\n        sendETHToMultiSig( msg.value );\n    }\n}\n",
  "sourcePath": "/Users/sun/Documents/git/bigbom/BigBomTokenSale/contracts/BigbomTokenSale.sol",
  "compiler": {
    "name": "solc",
    "version": "0.4.18+commit.9cf6e910.Emscripten.clang"
  },
  "schemaVersion": "1.0.1",
  "updatedAt": "2018-03-20T14:02:24.786Z"
}