{
  "contractName": "BigbomCrowdSale",
  "abi": [
    {
      "constant": true,
      "inputs": [],
      "name": "openSaleStartTime",
      "outputs": [
        {
          "name": "",
          "type": "uint256"
        }
      ],
      "payable": false,
      "stateMutability": "view",
      "type": "function"
    },
    {
      "constant": true,
      "inputs": [],
      "name": "list",
      "outputs": [
        {
          "name": "",
          "type": "address"
        }
      ],
      "payable": false,
      "stateMutability": "view",
      "type": "function"
    },
    {
      "constant": true,
      "inputs": [],
      "name": "maxGasPrice",
      "outputs": [
        {
          "name": "",
          "type": "uint256"
        }
      ],
      "payable": false,
      "stateMutability": "view",
      "type": "function"
    },
    {
      "constant": true,
      "inputs": [],
      "name": "haltSale",
      "outputs": [
        {
          "name": "",
          "type": "bool"
        }
      ],
      "payable": false,
      "stateMutability": "view",
      "type": "function"
    },
    {
      "constant": true,
      "inputs": [],
      "name": "bigbomMultiSigWallet",
      "outputs": [
        {
          "name": "",
          "type": "address"
        }
      ],
      "payable": false,
      "stateMutability": "view",
      "type": "function"
    },
    {
      "constant": true,
      "inputs": [
        {
          "name": "",
          "type": "address"
        }
      ],
      "name": "participated",
      "outputs": [
        {
          "name": "",
          "type": "uint256"
        }
      ],
      "payable": false,
      "stateMutability": "view",
      "type": "function"
    },
    {
      "constant": true,
      "inputs": [],
      "name": "raisedWei",
      "outputs": [
        {
          "name": "",
          "type": "uint256"
        }
      ],
      "payable": false,
      "stateMutability": "view",
      "type": "function"
    },
    {
      "constant": true,
      "inputs": [],
      "name": "minGasPrice",
      "outputs": [
        {
          "name": "",
          "type": "uint256"
        }
      ],
      "payable": false,
      "stateMutability": "view",
      "type": "function"
    },
    {
      "constant": true,
      "inputs": [],
      "name": "openSaleEndTime",
      "outputs": [
        {
          "name": "",
          "type": "uint256"
        }
      ],
      "payable": false,
      "stateMutability": "view",
      "type": "function"
    },
    {
      "constant": true,
      "inputs": [],
      "name": "admin",
      "outputs": [
        {
          "name": "",
          "type": "address"
        }
      ],
      "payable": false,
      "stateMutability": "view",
      "type": "function"
    },
    {
      "constant": true,
      "inputs": [],
      "name": "token",
      "outputs": [
        {
          "name": "",
          "type": "address"
        }
      ],
      "payable": false,
      "stateMutability": "view",
      "type": "function"
    },
    {
      "inputs": [
        {
          "name": "_admin",
          "type": "address"
        },
        {
          "name": "_bigbomMultiSigWallet",
          "type": "address"
        },
        {
          "name": "_whilteListContract",
          "type": "address"
        },
        {
          "name": "_publicSaleStartTime",
          "type": "uint256"
        },
        {
          "name": "_publicSaleEndTime",
          "type": "uint256"
        },
        {
          "name": "_token",
          "type": "address"
        }
      ],
      "payable": false,
      "stateMutability": "nonpayable",
      "type": "constructor"
    },
    {
      "payable": true,
      "stateMutability": "payable",
      "type": "fallback"
    },
    {
      "anonymous": false,
      "inputs": [
        {
          "indexed": false,
          "name": "_buyer",
          "type": "address"
        },
        {
          "indexed": false,
          "name": "_tokens",
          "type": "uint256"
        },
        {
          "indexed": false,
          "name": "_payedWei",
          "type": "uint256"
        },
        {
          "indexed": false,
          "name": "_bonus",
          "type": "uint256"
        }
      ],
      "name": "Buy",
      "type": "event"
    },
    {
      "anonymous": false,
      "inputs": [],
      "name": "FinalizeSale",
      "type": "event"
    },
    {
      "anonymous": false,
      "inputs": [
        {
          "indexed": false,
          "name": "_buyer",
          "type": "address"
        },
        {
          "indexed": false,
          "name": "_tokens",
          "type": "uint256"
        },
        {
          "indexed": false,
          "name": "_payedWei",
          "type": "uint256"
        },
        {
          "indexed": false,
          "name": "_bonus",
          "type": "uint256"
        },
        {
          "indexed": false,
          "name": "depositTx",
          "type": "string"
        }
      ],
      "name": "Erc20Buy",
      "type": "event"
    },
    {
      "anonymous": false,
      "inputs": [
        {
          "indexed": false,
          "name": "_buyer",
          "type": "address"
        },
        {
          "indexed": false,
          "name": "_erc20RefundAmount",
          "type": "uint256"
        },
        {
          "indexed": false,
          "name": "_erc20Name",
          "type": "string"
        }
      ],
      "name": "Erc20Refund",
      "type": "event"
    },
    {
      "constant": true,
      "inputs": [],
      "name": "saleEnded",
      "outputs": [
        {
          "name": "",
          "type": "bool"
        }
      ],
      "payable": false,
      "stateMutability": "view",
      "type": "function"
    },
    {
      "constant": false,
      "inputs": [
        {
          "name": "price",
          "type": "uint256"
        }
      ],
      "name": "setMinGasPrice",
      "outputs": [],
      "payable": false,
      "stateMutability": "nonpayable",
      "type": "function"
    },
    {
      "constant": false,
      "inputs": [
        {
          "name": "price",
          "type": "uint256"
        }
      ],
      "name": "setMaxGasPrice",
      "outputs": [],
      "payable": false,
      "stateMutability": "nonpayable",
      "type": "function"
    },
    {
      "constant": true,
      "inputs": [],
      "name": "saleStarted",
      "outputs": [
        {
          "name": "",
          "type": "bool"
        }
      ],
      "payable": false,
      "stateMutability": "view",
      "type": "function"
    },
    {
      "constant": false,
      "inputs": [
        {
          "name": "halt",
          "type": "bool"
        }
      ],
      "name": "setHaltSale",
      "outputs": [],
      "payable": false,
      "stateMutability": "nonpayable",
      "type": "function"
    },
    {
      "constant": true,
      "inputs": [
        {
          "name": "contributor",
          "type": "address"
        }
      ],
      "name": "contributorMinCap",
      "outputs": [
        {
          "name": "",
          "type": "uint256"
        }
      ],
      "payable": false,
      "stateMutability": "view",
      "type": "function"
    },
    {
      "constant": true,
      "inputs": [
        {
          "name": "contributor",
          "type": "address"
        },
        {
          "name": "amountInWei",
          "type": "uint256"
        }
      ],
      "name": "contributorMaxCap",
      "outputs": [
        {
          "name": "",
          "type": "uint256"
        }
      ],
      "payable": false,
      "stateMutability": "view",
      "type": "function"
    },
    {
      "constant": true,
      "inputs": [
        {
          "name": "_tokens",
          "type": "uint256"
        }
      ],
      "name": "getBonus",
      "outputs": [
        {
          "name": "",
          "type": "uint256"
        }
      ],
      "payable": false,
      "stateMutability": "pure",
      "type": "function"
    },
    {
      "constant": false,
      "inputs": [
        {
          "name": "recipient",
          "type": "address"
        }
      ],
      "name": "buy",
      "outputs": [
        {
          "name": "",
          "type": "uint256"
        }
      ],
      "payable": true,
      "stateMutability": "payable",
      "type": "function"
    },
    {
      "constant": false,
      "inputs": [],
      "name": "finalizeSale",
      "outputs": [],
      "payable": false,
      "stateMutability": "nonpayable",
      "type": "function"
    },
    {
      "constant": false,
      "inputs": [
        {
          "name": "anyToken",
          "type": "address"
        }
      ],
      "name": "emergencyDrain",
      "outputs": [
        {
          "name": "",
          "type": "bool"
        }
      ],
      "payable": false,
      "stateMutability": "nonpayable",
      "type": "function"
    },
    {
      "constant": false,
      "inputs": [],
      "name": "debugBuy",
      "outputs": [],
      "payable": true,
      "stateMutability": "payable",
      "type": "function"
    },
    {
      "constant": true,
      "inputs": [
        {
          "name": "erc20Name",
          "type": "string"
        }
      ],
      "name": "getErc20Rate",
      "outputs": [
        {
          "name": "",
          "type": "uint256"
        }
      ],
      "payable": false,
      "stateMutability": "view",
      "type": "function"
    },
    {
      "constant": false,
      "inputs": [
        {
          "name": "erc20Name",
          "type": "string"
        },
        {
          "name": "rate",
          "type": "uint256"
        }
      ],
      "name": "setErc20Rate",
      "outputs": [],
      "payable": false,
      "stateMutability": "nonpayable",
      "type": "function"
    },
    {
      "constant": true,
      "inputs": [
        {
          "name": "_tx",
          "type": "string"
        }
      ],
      "name": "getDepositTxMap",
      "outputs": [
        {
          "name": "",
          "type": "uint256"
        }
      ],
      "payable": false,
      "stateMutability": "view",
      "type": "function"
    },
    {
      "constant": false,
      "inputs": [
        {
          "name": "recipient",
          "type": "address"
        },
        {
          "name": "erc20Amount",
          "type": "uint256"
        },
        {
          "name": "erc20Name",
          "type": "string"
        },
        {
          "name": "depositTx",
          "type": "string"
        }
      ],
      "name": "erc20Buy",
      "outputs": [
        {
          "name": "",
          "type": "uint256"
        }
      ],
      "payable": false,
      "stateMutability": "nonpayable",
      "type": "function"
    }
  ],
  "bytecode": "0x6060604052341561000f57600080fd5b60405160c080611ff183398101604052808051906020019091908051906020019091908051906020019091908051906020019091908051906020019091908051906020019091905050818310151561006657600080fd5b600073ffffffffffffffffffffffffffffffffffffffff168673ffffffffffffffffffffffffffffffffffffffff16141515156100a257600080fd5b600073ffffffffffffffffffffffffffffffffffffffff168573ffffffffffffffffffffffffffffffffffffffff16141515156100de57600080fd5b600073ffffffffffffffffffffffffffffffffffffffff168473ffffffffffffffffffffffffffffffffffffffff161415151561011a57600080fd5b600073ffffffffffffffffffffffffffffffffffffffff168173ffffffffffffffffffffffffffffffffffffffff161415151561015657600080fd5b856000806101000a81548173ffffffffffffffffffffffffffffffffffffffff021916908373ffffffffffffffffffffffffffffffffffffffff16021790555084600160006101000a81548173ffffffffffffffffffffffffffffffffffffffff021916908373ffffffffffffffffffffffffffffffffffffffff16021790555083600960006101000a81548173ffffffffffffffffffffffffffffffffffffffff021916908373ffffffffffffffffffffffffffffffffffffffff160217905550826005819055508160068190555080600260006101000a81548173ffffffffffffffffffffffffffffffffffffffff021916908373ffffffffffffffffffffffffffffffffffffffff160217905550505050505050611d758061027c6000396000f30060606040526004361061015f576000357c0100000000000000000000000000000000000000000000000000000000900463ffffffff168063053e31691461016b5780630992e4c3146101945780630f560cd7146101ea578063361b94be1461023f5780633de39c111461028c5780634aa66b28146102b557806358a687ec146102ec5780635c474f9e146103015780635fbaa3901461032e57806361ef8d911461035b57806362aac84d146103c157806371a18bfb146103e657806390ac1866146104375780639b8906ae1461045a5780639d119a7b14610487578063a6f07a5c146104f8578063b1f561871461054d578063b3bd870a14610557578063bc59d45a146105a4578063d2fa635e146105cd578063d96ed505146105f0578063e00be2a914610619578063e58018c51461068a578063f088d547146106b3578063f851a440146106f5578063faa5ca931461074a578063fc0c546a14610826575b6101683361087b565b50005b341561017657600080fd5b61017e610b72565b6040518082815260200191505060405180910390f35b341561019f57600080fd5b6101d4600480803573ffffffffffffffffffffffffffffffffffffffff16906020019091908035906020019091905050610b78565b6040518082815260200191505060405180910390f35b34156101f557600080fd5b6101fd610cf4565b604051808273ffffffffffffffffffffffffffffffffffffffff1673ffffffffffffffffffffffffffffffffffffffff16815260200191505060405180910390f35b341561024a57600080fd5b610276600480803573ffffffffffffffffffffffffffffffffffffffff16906020019091905050610d1a565b6040518082815260200191505060405180910390f35b341561029757600080fd5b61029f610e03565b6040518082815260200191505060405180910390f35b34156102c057600080fd5b6102d66004808035906020019091905050610e09565b6040518082815260200191505060405180910390f35b34156102f757600080fd5b6102ff610e39565b005b341561030c57600080fd5b61031461100e565b604051808215151515815260200191505060405180910390f35b341561033957600080fd5b61034161101b565b604051808215151515815260200191505060405180910390f35b341561036657600080fd5b6103bf600480803590602001908201803590602001908080601f0160208091040260200160405190810160405280939291908181526020018383808284378201915050505050509190803590602001909190505061102e565b005b34156103cc57600080fd5b6103e4600480803515159060200190919050506110fd565b005b34156103f157600080fd5b61041d600480803573ffffffffffffffffffffffffffffffffffffffff16906020019091905050611175565b604051808215151515815260200191505060405180910390f35b341561044257600080fd5b6104586004808035906020019091905050611413565b005b341561046557600080fd5b61046d611478565b604051808215151515815260200191505060405180910390f35b341561049257600080fd5b6104e2600480803590602001908201803590602001908080601f01602080910402602001604051908101604052809392919081815260200183838082843782019150505050505091905050611484565b6040518082815260200191505060405180910390f35b341561050357600080fd5b61050b6114f9565b604051808273ffffffffffffffffffffffffffffffffffffffff1673ffffffffffffffffffffffffffffffffffffffff16815260200191505060405180910390f35b61055561151f565b005b341561056257600080fd5b61058e600480803573ffffffffffffffffffffffffffffffffffffffff16906020019091905050611539565b6040518082815260200191505060405180910390f35b34156105af57600080fd5b6105b7611551565b6040518082815260200191505060405180910390f35b34156105d857600080fd5b6105ee6004808035906020019091905050611557565b005b34156105fb57600080fd5b6106036115bc565b6040518082815260200191505060405180910390f35b341561062457600080fd5b610674600480803590602001908201803590602001908080601f016020809104026020016040519081016040528093929190818152602001838380828437820191505050505050919050506115c2565b6040518082815260200191505060405180910390f35b341561069557600080fd5b61069d611637565b6040518082815260200191505060405180910390f35b6106df600480803573ffffffffffffffffffffffffffffffffffffffff1690602001909190505061087b565b6040518082815260200191505060405180910390f35b341561070057600080fd5b61070861163d565b604051808273ffffffffffffffffffffffffffffffffffffffff1673ffffffffffffffffffffffffffffffffffffffff16815260200191505060405180910390f35b341561075557600080fd5b610810600480803573ffffffffffffffffffffffffffffffffffffffff1690602001909190803590602001909190803590602001908201803590602001908080601f0160208091040260200160405190810160405280939291908181526020018383808284378201915050505050509190803590602001908201803590602001908080601f01602080910402602001604051908101604052809392919081815260200183838082843782019150505050505091905050611662565b6040518082815260200191505060405180910390f35b341561083157600080fd5b610839611b83565b604051808273ffffffffffffffffffffffffffffffffffffffff1673ffffffffffffffffffffffffffffffffffffffff16815260200191505060405180910390f35b6000806000806000806008543a1115151561089557600080fd5b6007543a101515156108a657600080fd5b600460009054906101000a900460ff161515156108c257600080fd5b6108ca61100e565b15156108d557600080fd5b6108dd611478565b1515156108e957600080fd5b6108f287610d1a565b94506108fe8734611ba9565b935034925060008511151561091257600080fd5b60008411151561092157600080fd5b84341015151561093057600080fd5b6202a300600554014211151561099f578334111561099e578392503373ffffffffffffffffffffffffffffffffffffffff166108fc6109788634611c5790919063ffffffff16565b9081150290604051600060405180830381858888f19350505050151561099d57600080fd5b5b5b6109a883611c70565b6109bd83600354611cd590919063ffffffff16565b6003819055506109d8614e2084611cf390919063ffffffff16565b91506109e382610e09565b90506109f88183611cd590919063ffffffff16565b9150600260009054906101000a900473ffffffffffffffffffffffffffffffffffffffff1673ffffffffffffffffffffffffffffffffffffffff1663a9059cbb88846000604051602001526040518363ffffffff167c0100000000000000000000000000000000000000000000000000000000028152600401808373ffffffffffffffffffffffffffffffffffffffff1673ffffffffffffffffffffffffffffffffffffffff16815260200182815260200192505050602060405180830381600087803b1515610ac757600080fd5b6102c65a03f11515610ad857600080fd5b505050604051805190501515610aea57fe5b7fbeae048c6d270d9469f86cf6e8fedda3c60ad770f16c24c9fc131c8e9a09101d87838584604051808573ffffffffffffffffffffffffffffffffffffffff1673ffffffffffffffffffffffffffffffffffffffff16815260200184815260200183815260200182815260200194505050505060405180910390a13495505050505050919050565b60055481565b6000806000600960009054906101000a900473ffffffffffffffffffffffffffffffffffffffff1673ffffffffffffffffffffffffffffffffffffffff166394a5601a866000604051602001526040518263ffffffff167c0100000000000000000000000000000000000000000000000000000000028152600401808273ffffffffffffffffffffffffffffffffffffffff1673ffffffffffffffffffffffffffffffffffffffff168152602001915050602060405180830381600087803b1515610c4257600080fd5b6102c65a03f11515610c5357600080fd5b5050506040518051905091506000821415610c715760009250610cec565b610cc3600a60008773ffffffffffffffffffffffffffffffffffffffff1673ffffffffffffffffffffffffffffffffffffffff1681526020019081526020016000205483611c5790919063ffffffff16565b90506202a300421115610cd857839250610cec565b83811115610ce857839250610cec565b8092505b505092915050565b600960009054906101000a900473ffffffffffffffffffffffffffffffffffffffff1681565b6000600960009054906101000a900473ffffffffffffffffffffffffffffffffffffffff1673ffffffffffffffffffffffffffffffffffffffff166330184635836000604051602001526040518263ffffffff167c0100000000000000000000000000000000000000000000000000000000028152600401808273ffffffffffffffffffffffffffffffffffffffff1673ffffffffffffffffffffffffffffffffffffffff168152602001915050602060405180830381600087803b1515610de157600080fd5b6102c65a03f11515610df257600080fd5b505050604051805190509050919050565b60085481565b6000610e326064610e24600a85611cf390919063ffffffff16565b611d2e90919063ffffffff16565b9050919050565b610e41611478565b1515610e4c57600080fd5b600260009054906101000a900473ffffffffffffffffffffffffffffffffffffffff1673ffffffffffffffffffffffffffffffffffffffff166342966c68600260009054906101000a900473ffffffffffffffffffffffffffffffffffffffff1673ffffffffffffffffffffffffffffffffffffffff166370a08231306000604051602001526040518263ffffffff167c0100000000000000000000000000000000000000000000000000000000028152600401808273ffffffffffffffffffffffffffffffffffffffff1673ffffffffffffffffffffffffffffffffffffffff168152602001915050602060405180830381600087803b1515610f4f57600080fd5b6102c65a03f11515610f6057600080fd5b505050604051805190506000604051602001526040518263ffffffff167c010000000000000000000000000000000000000000000000000000000002815260040180828152602001915050602060405180830381600087803b1515610fc457600080fd5b6102c65a03f11515610fd557600080fd5b50505060405180519050507f49943394d1d9872d58364da1ca74d2b7af3f9be1146ac3c37513b0b1cb97ae2b60405160405180910390a1565b6000600554421015905090565b600460009054906101000a900460ff1681565b6000809054906101000a900473ffffffffffffffffffffffffffffffffffffffff1673ffffffffffffffffffffffffffffffffffffffff163373ffffffffffffffffffffffffffffffffffffffff1614151561108957600080fd5b80600c836040518082805190602001908083835b6020831015156110c2578051825260208201915060208101905060208303925061109d565b6001836020036101000a0380198251168184511680821785525050505050509050019150509081526020016040518091039020819055505050565b6000809054906101000a900473ffffffffffffffffffffffffffffffffffffffff1673ffffffffffffffffffffffffffffffffffffffff163373ffffffffffffffffffffffffffffffffffffffff1614151561115857600080fd5b80600460006101000a81548160ff02191690831515021790555050565b60008060009054906101000a900473ffffffffffffffffffffffffffffffffffffffff1673ffffffffffffffffffffffffffffffffffffffff163373ffffffffffffffffffffffffffffffffffffffff161415156111d257600080fd5b6111da611478565b15156111e557600080fd5b60003073ffffffffffffffffffffffffffffffffffffffff16311115611226576112253073ffffffffffffffffffffffffffffffffffffffff1631611c70565b5b600073ffffffffffffffffffffffffffffffffffffffff168273ffffffffffffffffffffffffffffffffffffffff1614151561140a578173ffffffffffffffffffffffffffffffffffffffff1663a9059cbb600160009054906101000a900473ffffffffffffffffffffffffffffffffffffffff168473ffffffffffffffffffffffffffffffffffffffff166370a08231306000604051602001526040518263ffffffff167c0100000000000000000000000000000000000000000000000000000000028152600401808273ffffffffffffffffffffffffffffffffffffffff1673ffffffffffffffffffffffffffffffffffffffff168152602001915050602060405180830381600087803b151561133e57600080fd5b6102c65a03f1151561134f57600080fd5b505050604051805190506000604051602001526040518363ffffffff167c0100000000000000000000000000000000000000000000000000000000028152600401808373ffffffffffffffffffffffffffffffffffffffff1673ffffffffffffffffffffffffffffffffffffffff16815260200182815260200192505050602060405180830381600087803b15156113e657600080fd5b6102c65a03f115156113f757600080fd5b50505060405180519050151561140957fe5b5b60019050919050565b6000809054906101000a900473ffffffffffffffffffffffffffffffffffffffff1673ffffffffffffffffffffffffffffffffffffffff163373ffffffffffffffffffffffffffffffffffffffff1614151561146e57600080fd5b8060078190555050565b60006006544211905090565b6000600b826040518082805190602001908083835b6020831015156114be5780518252602082019150602081019050602083039250611499565b6001836020036101000a0380198251168184511680821785525050505050509050019150509081526020016040518091039020549050919050565b600160009054906101000a900473ffffffffffffffffffffffffffffffffffffffff1681565b60003411151561152e57600080fd5b61153734611c70565b565b600a6020528060005260406000206000915090505481565b60035481565b6000809054906101000a900473ffffffffffffffffffffffffffffffffffffffff1673ffffffffffffffffffffffffffffffffffffffff163373ffffffffffffffffffffffffffffffffffffffff161415156115b257600080fd5b8060088190555050565b60075481565b6000600c826040518082805190602001908083835b6020831015156115fc57805182526020820191506020810190506020830392506115d7565b6001836020036101000a0380198251168184511680821785525050505050509050019150509081526020016040518091039020549050919050565b60065481565b6000809054906101000a900473ffffffffffffffffffffffffffffffffffffffff1681565b6000806000806000806000806000809054906101000a900473ffffffffffffffffffffffffffffffffffffffff1673ffffffffffffffffffffffffffffffffffffffff163373ffffffffffffffffffffffffffffffffffffffff161415156116c957600080fd5b600460009054906101000a900460ff161515156116e557600080fd5b6116ed61100e565b15156116f857600080fd5b611700611478565b15151561170c57600080fd5b670de0b6b3a76400008b61171f8c6115c2565b0281151561172957fe5b0496506117358c610d1a565b95506117418c88611ba9565b9450600061174e8a611484565b14151561175a57600080fd5b60008711151561176957600080fd5b86935060008611151561177b57600080fd5b60008511151561178a57600080fd5b85871015151561179957600080fd5b6202a30060055401421115156118d757848711156118d6578493506117fb6117c08b6115c2565b6117ed670de0b6b3a76400006117df898c611c5790919063ffffffff16565b611cf390919063ffffffff16565b611d2e90919063ffffffff16565b92507ffe0a8f4e854dce6fd77c228c356fca4c780240591431bf89efd9b49fae21c6878c848c604051808473ffffffffffffffffffffffffffffffffffffffff1673ffffffffffffffffffffffffffffffffffffffff16815260200183815260200180602001828103825283818151815260200191508051906020019080838360005b8381101561189957808201518184015260208101905061187e565b50505050905090810190601f1680156118c65780820380516001836020036101000a031916815260200191505b5094505050505060405180910390a15b5b6118ec84600354611cd590919063ffffffff16565b600381905550611907614e2085611cf390919063ffffffff16565b915061191282610e09565b90506119278183611cd590919063ffffffff16565b9150600260009054906101000a900473ffffffffffffffffffffffffffffffffffffffff1673ffffffffffffffffffffffffffffffffffffffff1663a9059cbb8d846000604051602001526040518363ffffffff167c0100000000000000000000000000000000000000000000000000000000028152600401808373ffffffffffffffffffffffffffffffffffffffff1673ffffffffffffffffffffffffffffffffffffffff16815260200182815260200192505050602060405180830381600087803b15156119f657600080fd5b6102c65a03f11515611a0757600080fd5b505050604051805190501515611a1957fe5b86600b8a6040518082805190602001908083835b602083101515611a525780518252602082019150602081019050602083039250611a2d565b6001836020036101000a0380198251168184511680821785525050505050509050019150509081526020016040518091039020819055507ff25d3860625e04323372db6e6d9c615084035d7493695cb9571d947e5d3ebcb88c8386848d604051808673ffffffffffffffffffffffffffffffffffffffff1673ffffffffffffffffffffffffffffffffffffffff16815260200185815260200184815260200183815260200180602001828103825283818151815260200191508051906020019080838360005b83811015611b33578082015181840152602081019050611b18565b50505050905090810190601f168015611b605780820380516001836020036101000a031916815260200191505b50965050505050505060405180910390a183975050505050505050949350505050565b600260009054906101000a900473ffffffffffffffffffffffffffffffffffffffff1681565b600080611bb68484610b78565b9050611c0a81600a60008773ffffffffffffffffffffffffffffffffffffffff1673ffffffffffffffffffffffffffffffffffffffff16815260200190815260200160002054611cd590919063ffffffff16565b600a60008673ffffffffffffffffffffffffffffffffffffffff1673ffffffffffffffffffffffffffffffffffffffff168152602001908152602001600020819055508091505092915050565b6000828211151515611c6557fe5b818303905092915050565b600160009054906101000a900473ffffffffffffffffffffffffffffffffffffffff1673ffffffffffffffffffffffffffffffffffffffff166108fc829081150290604051600060405180830381858888f193505050501515611cd257600080fd5b50565b6000808284019050838110151515611ce957fe5b8091505092915050565b6000806000841415611d085760009150611d27565b8284029050828482811515611d1957fe5b04141515611d2357fe5b8091505b5092915050565b6000808284811515611d3c57fe5b04905080915050929150505600a165627a7a7230582041be5d023681622d51c732a79d21bda11940e874e7abcca909dca049b30309d10029",
  "source": "pragma solidity ^0.4.19;\n\nimport './BigbomTokenExtended.sol';\nimport './zeppelin/ownership/Ownable.sol';\nimport './BigbomContributorWhiteList.sol';\nimport './BigbomPrivateSaleList.sol';\nimport './zeppelin/math/SafeMath.sol';\n\ncontract BigbomCrowdSale{\n    address             public admin;\n    address             public bigbomMultiSigWallet;\n    BigbomTokenExtended         public token;\n    uint                public raisedWei;\n    bool                public haltSale;\n    uint                public openSaleStartTime;\n    uint                public openSaleEndTime;\n    \n    uint                public minGasPrice;\n    uint                public maxGasPrice;\n\n    BigbomContributorWhiteList public list;\n\n    mapping(address=>uint)    public participated;\n    mapping(string=>uint)     depositTxMap;\n    mapping(string=>uint)     erc20Rate;\n\n    using SafeMath for uint;\n\n    function BigbomCrowdSale( address _admin,\n                              address _bigbomMultiSigWallet,\n                              BigbomContributorWhiteList _whilteListContract,\n                              uint _publicSaleStartTime,\n                              uint _publicSaleEndTime,\n                              BigbomTokenExtended _token) public       \n    {\n        require (_publicSaleStartTime < _publicSaleEndTime);\n        require (_admin != address(0x0));\n        require (_bigbomMultiSigWallet != address(0x0));\n        require (_whilteListContract != address(0x0));\n        require (_token != address(0x0));\n\n        admin = _admin;\n        bigbomMultiSigWallet = _bigbomMultiSigWallet;\n        list = _whilteListContract;\n        openSaleStartTime = _publicSaleStartTime;\n        openSaleEndTime = _publicSaleEndTime;\n        token = _token;\n    }\n    \n    function saleEnded() public constant returns(bool) {\n        return now > openSaleEndTime;\n    }\n\n    function setMinGasPrice(uint price) public {\n        require (msg.sender == admin);\n        minGasPrice = price;\n    }\n    function setMaxGasPrice(uint price) public {\n        require (msg.sender == admin);\n        maxGasPrice = price;\n    }\n\n    function saleStarted() public constant returns(bool) {\n        return now >= openSaleStartTime;\n    }\n\n    function setHaltSale( bool halt ) public {\n        require( msg.sender == admin );\n        haltSale = halt;\n    }\n    // this is a seperate function so user could query it before crowdsale starts\n    function contributorMinCap( address contributor ) public constant returns(uint) {\n        return list.getMinCap( contributor );\n    }\n    function contributorMaxCap( address contributor, uint amountInWei ) public constant returns(uint) {\n        uint cap = list.getMaxCap( contributor );\n        if( cap == 0 ) return 0;\n        uint remainedCap = cap.sub( participated[ contributor ] );\n        if(now > 2 * 24 * 60 * 60){\n            return amountInWei;\n        }\n        if( remainedCap > amountInWei ) return amountInWei;\n        else return remainedCap;\n    }\n\n    function checkMaxCap( address contributor, uint amountInWei ) internal returns(uint) {\n        uint result = contributorMaxCap( contributor, amountInWei );\n        participated[contributor] = participated[contributor].add( result );\n        return result;\n    }\n\n    function() payable public {\n        buy( msg.sender );\n    }\n\n\n\n    function getBonus(uint _tokens) public pure returns (uint){\n        return _tokens.mul(10).div(100);\n    }\n\n    event Buy( address _buyer, uint _tokens, uint _payedWei, uint _bonus );\n    function buy( address recipient ) payable public returns(uint){\n        require( tx.gasprice <= maxGasPrice );\n        require( tx.gasprice >= minGasPrice );\n\n        require( ! haltSale );\n        require( saleStarted() );\n        require( ! saleEnded() );\n\n        uint mincap = contributorMinCap(recipient);\n\n        uint maxcap = checkMaxCap(recipient, msg.value );\n        uint allowValue = msg.value;\n        require( mincap > 0 );\n\n        require( maxcap > 0 );\n        // fail if msg.value < mincap\n        require (msg.value >= mincap);\n        // send to msg.sender, not to recipient if value > maxcap\n        if(now <= openSaleStartTime + 2* 24 * 60 * 60) {\n            if( msg.value > maxcap ) {\n                allowValue = maxcap;\n                //require (allowValue >= mincap);\n                msg.sender.transfer( msg.value.sub( maxcap ) );\n            }\n        }\n       \n\n        // send payment to wallet\n        sendETHToMultiSig(allowValue);\n        raisedWei = raisedWei.add( allowValue );\n        // 1ETH = 20000 BBO\n        uint recievedTokens = allowValue.mul( 20000 );\n        // TODO bounce\n        uint bonus = getBonus(recievedTokens);\n        \n        recievedTokens = recievedTokens.add(bonus);\n        assert( token.transfer( recipient, recievedTokens ) );\n        //\n\n        Buy( recipient, recievedTokens, allowValue, bonus );\n\n        return msg.value;\n    }\n\n    function sendETHToMultiSig( uint value ) internal {\n        bigbomMultiSigWallet.transfer( value );\n    }\n\n    event FinalizeSale();\n    // function is callable by everyone\n    function finalizeSale() public {\n        require( saleEnded() );\n        //require( msg.sender == admin );\n\n        // burn remaining tokens\n        token.burn(token.balanceOf(this));\n\n        FinalizeSale();\n    }\n\n    // ETH balance is always expected to be 0.\n    // but in case something went wrong, we use this function to extract the eth.\n    function emergencyDrain(ERC20 anyToken) public returns(bool){\n        require( msg.sender == admin );\n        require( saleEnded() );\n\n        if( this.balance > 0 ) {\n            sendETHToMultiSig( this.balance );\n        }\n\n        if( anyToken != address(0x0) ) {\n            assert( anyToken.transfer(bigbomMultiSigWallet, anyToken.balanceOf(this)) );\n        }\n\n        return true;\n    }\n\n    // just to check that funds goes to the right place\n    // tokens are not given in return\n    function debugBuy() payable public {\n        require( msg.value > 0 );\n        sendETHToMultiSig( msg.value );\n    }\n\n    function getErc20Rate(string erc20Name) public constant returns(uint){\n        return erc20Rate[erc20Name];\n    }\n\n    function setErc20Rate(string erc20Name, uint rate) public{\n        require (msg.sender == admin);\n        erc20Rate[erc20Name] = rate;\n    }\n\n    function getDepositTxMap(string _tx) public constant returns(uint){\n        return depositTxMap[_tx];\n    }\n    event Erc20Buy( address _buyer, uint _tokens, uint _payedWei, uint _bonus, string depositTx );\n\n    event Erc20Refund( address _buyer, uint _erc20RefundAmount, string _erc20Name );\n    function erc20Buy( address recipient, uint erc20Amount, string erc20Name, string depositTx )  public returns(uint){\n        require (msg.sender == admin);\n        //require( tx.gasprice <= 50000000000 wei );\n\n        require( ! haltSale );\n        require( saleStarted() );\n        require( ! saleEnded() );\n        uint ethAmount = getErc20Rate(erc20Name) * erc20Amount / 1e18;\n        uint mincap = contributorMinCap(recipient);\n\n        uint maxcap = checkMaxCap(recipient, ethAmount );\n        require (getDepositTxMap(depositTx) == 0);\n        require (ethAmount > 0);\n        uint allowValue = ethAmount;\n        require( mincap > 0 );\n        require( maxcap > 0 );\n        // fail if msg.value < mincap\n        require (ethAmount >= mincap);\n        // send to msg.sender, not to recipient if value > maxcap\n        if(now <= openSaleStartTime + 2 * 24 * 60 * 60) {\n            if( ethAmount > maxcap  ) {\n                allowValue = maxcap;\n                //require (allowValue >= mincap);\n                // send event refund\n                // msg.sender.transfer( ethAmount.sub( maxcap ) );\n                uint erc20RefundAmount = ethAmount.sub( maxcap ).mul(1e18).div(getErc20Rate(erc20Name));\n                Erc20Refund(recipient, erc20RefundAmount, erc20Name);\n            }\n        }\n\n        raisedWei = raisedWei.add( allowValue );\n        // 1ETH = 20000 BBO\n        uint recievedTokens = allowValue.mul( 20000 );\n        // TODO bounce\n        uint bonus = getBonus(recievedTokens);\n        \n        recievedTokens = recievedTokens.add(bonus);\n        assert( token.transfer( recipient, recievedTokens ) );\n        // set tx\n        depositTxMap[depositTx] = ethAmount;\n        //\n\n        Erc20Buy( recipient, recievedTokens, allowValue, bonus, depositTx);\n\n        return allowValue;\n    }\n\n}\n",
  "sourcePath": "/Users/yena/Documents/tuongnguyen/BigBomTokenSale/contracts/BigbomCrowdSale.sol",
  "compiler": {
    "name": "solc",
    "version": "0.4.19+commit.c4cbbb05.Emscripten.clang"
  },
  "schemaVersion": "2.0.0",
  "updatedAt": "2018-05-21T13:32:26.056Z"
}