{
  "contractName": "BigbomToken",
  "abi": [
    {
      "constant": true,
      "inputs": [],
      "name": "name",
      "outputs": [
        {
          "name": "",
          "type": "string"
        }
      ],
      "payable": false,
      "stateMutability": "view",
      "type": "function"
    },
    {
      "constant": false,
      "inputs": [
        {
          "name": "_spender",
          "type": "address"
        },
        {
          "name": "_value",
          "type": "uint256"
        }
      ],
      "name": "approve",
      "outputs": [
        {
          "name": "",
          "type": "bool"
        }
      ],
      "payable": false,
      "stateMutability": "nonpayable",
      "type": "function"
    },
    {
      "constant": true,
      "inputs": [],
      "name": "totalSupply",
      "outputs": [
        {
          "name": "",
          "type": "uint256"
        }
      ],
      "payable": false,
      "stateMutability": "view",
      "type": "function"
    },
    {
      "constant": true,
      "inputs": [],
      "name": "founderAmount",
      "outputs": [
        {
          "name": "",
          "type": "uint256"
        }
      ],
      "payable": false,
      "stateMutability": "view",
      "type": "function"
    },
    {
      "constant": true,
      "inputs": [],
      "name": "saleStartTime",
      "outputs": [
        {
          "name": "",
          "type": "uint256"
        }
      ],
      "payable": false,
      "stateMutability": "view",
      "type": "function"
    },
    {
      "constant": true,
      "inputs": [],
      "name": "bbPublicSaleWallet",
      "outputs": [
        {
          "name": "",
          "type": "address"
        }
      ],
      "payable": false,
      "stateMutability": "view",
      "type": "function"
    },
    {
      "constant": true,
      "inputs": [],
      "name": "advisorAmount",
      "outputs": [
        {
          "name": "",
          "type": "uint256"
        }
      ],
      "payable": false,
      "stateMutability": "view",
      "type": "function"
    },
    {
      "constant": true,
      "inputs": [],
      "name": "networkGrowthAmount",
      "outputs": [
        {
          "name": "",
          "type": "uint256"
        }
      ],
      "payable": false,
      "stateMutability": "view",
      "type": "function"
    },
    {
      "constant": true,
      "inputs": [],
      "name": "decimals",
      "outputs": [
        {
          "name": "",
          "type": "uint256"
        }
      ],
      "payable": false,
      "stateMutability": "view",
      "type": "function"
    },
    {
      "constant": true,
      "inputs": [],
      "name": "coreStaffAmount",
      "outputs": [
        {
          "name": "",
          "type": "uint256"
        }
      ],
      "payable": false,
      "stateMutability": "view",
      "type": "function"
    },
    {
      "constant": true,
      "inputs": [],
      "name": "reserveAmount",
      "outputs": [
        {
          "name": "",
          "type": "uint256"
        }
      ],
      "payable": false,
      "stateMutability": "view",
      "type": "function"
    },
    {
      "constant": true,
      "inputs": [],
      "name": "bbNetworkGrowthWallet",
      "outputs": [
        {
          "name": "",
          "type": "address"
        }
      ],
      "payable": false,
      "stateMutability": "view",
      "type": "function"
    },
    {
      "constant": true,
      "inputs": [],
      "name": "bbFounderCoreStaffWallet",
      "outputs": [
        {
          "name": "",
          "type": "address"
        }
      ],
      "payable": false,
      "stateMutability": "view",
      "type": "function"
    },
    {
      "constant": true,
      "inputs": [],
      "name": "privateSaleList",
      "outputs": [
        {
          "name": "",
          "type": "address"
        }
      ],
      "payable": false,
      "stateMutability": "view",
      "type": "function"
    },
    {
      "constant": true,
      "inputs": [],
      "name": "tokenSaleContract",
      "outputs": [
        {
          "name": "",
          "type": "address"
        }
      ],
      "payable": false,
      "stateMutability": "view",
      "type": "function"
    },
    {
      "constant": true,
      "inputs": [],
      "name": "bbAirdropWallet",
      "outputs": [
        {
          "name": "",
          "type": "address"
        }
      ],
      "payable": false,
      "stateMutability": "view",
      "type": "function"
    },
    {
      "constant": true,
      "inputs": [
        {
          "name": "_owner",
          "type": "address"
        }
      ],
      "name": "balanceOf",
      "outputs": [
        {
          "name": "balance",
          "type": "uint256"
        }
      ],
      "payable": false,
      "stateMutability": "view",
      "type": "function"
    },
    {
      "constant": true,
      "inputs": [],
      "name": "bbAdvisorWallet",
      "outputs": [
        {
          "name": "",
          "type": "address"
        }
      ],
      "payable": false,
      "stateMutability": "view",
      "type": "function"
    },
    {
      "constant": true,
      "inputs": [
        {
          "name": "",
          "type": "address"
        }
      ],
      "name": "maxAllowedAmount",
      "outputs": [
        {
          "name": "",
          "type": "uint256"
        }
      ],
      "payable": false,
      "stateMutability": "view",
      "type": "function"
    },
    {
      "constant": true,
      "inputs": [],
      "name": "publicSaleAmount",
      "outputs": [
        {
          "name": "",
          "type": "uint256"
        }
      ],
      "payable": false,
      "stateMutability": "view",
      "type": "function"
    },
    {
      "constant": true,
      "inputs": [],
      "name": "owner",
      "outputs": [
        {
          "name": "",
          "type": "address"
        }
      ],
      "payable": false,
      "stateMutability": "view",
      "type": "function"
    },
    {
      "constant": true,
      "inputs": [],
      "name": "bbReserveWallet",
      "outputs": [
        {
          "name": "",
          "type": "address"
        }
      ],
      "payable": false,
      "stateMutability": "view",
      "type": "function"
    },
    {
      "constant": true,
      "inputs": [],
      "name": "symbol",
      "outputs": [
        {
          "name": "",
          "type": "string"
        }
      ],
      "payable": false,
      "stateMutability": "view",
      "type": "function"
    },
    {
      "constant": true,
      "inputs": [
        {
          "name": "",
          "type": "address"
        }
      ],
      "name": "frozenTime",
      "outputs": [
        {
          "name": "",
          "type": "uint256"
        }
      ],
      "payable": false,
      "stateMutability": "view",
      "type": "function"
    },
    {
      "constant": true,
      "inputs": [
        {
          "name": "",
          "type": "address"
        }
      ],
      "name": "frozenAccount",
      "outputs": [
        {
          "name": "",
          "type": "bool"
        }
      ],
      "payable": false,
      "stateMutability": "view",
      "type": "function"
    },
    {
      "constant": true,
      "inputs": [],
      "name": "bountyAmount",
      "outputs": [
        {
          "name": "",
          "type": "uint256"
        }
      ],
      "payable": false,
      "stateMutability": "view",
      "type": "function"
    },
    {
      "constant": true,
      "inputs": [
        {
          "name": "_owner",
          "type": "address"
        },
        {
          "name": "_spender",
          "type": "address"
        }
      ],
      "name": "allowance",
      "outputs": [
        {
          "name": "remaining",
          "type": "uint256"
        }
      ],
      "payable": false,
      "stateMutability": "view",
      "type": "function"
    },
    {
      "constant": true,
      "inputs": [],
      "name": "saleEndTime",
      "outputs": [
        {
          "name": "",
          "type": "uint256"
        }
      ],
      "payable": false,
      "stateMutability": "view",
      "type": "function"
    },
    {
      "constant": false,
      "inputs": [
        {
          "name": "newOwner",
          "type": "address"
        }
      ],
      "name": "transferOwnership",
      "outputs": [],
      "payable": false,
      "stateMutability": "nonpayable",
      "type": "function"
    },
    {
      "inputs": [
        {
          "name": "startTime",
          "type": "uint256"
        },
        {
          "name": "endTime",
          "type": "uint256"
        },
        {
          "name": "admin",
          "type": "address"
        },
        {
          "name": "_bbFounderCoreStaffWallet",
          "type": "address"
        },
        {
          "name": "_bbAdvisorWallet",
          "type": "address"
        },
        {
          "name": "_bbAirdropWallet",
          "type": "address"
        },
        {
          "name": "_bbNetworkGrowthWallet",
          "type": "address"
        },
        {
          "name": "_bbReserveWallet",
          "type": "address"
        },
        {
          "name": "_bbPublicSaleWallet",
          "type": "address"
        }
      ],
      "payable": false,
      "stateMutability": "nonpayable",
      "type": "constructor"
    },
    {
      "anonymous": false,
      "inputs": [
        {
          "indexed": false,
          "name": "target",
          "type": "address"
        },
        {
          "indexed": false,
          "name": "frozen",
          "type": "bool"
        },
        {
          "indexed": false,
          "name": "_seconds",
          "type": "uint256"
        }
      ],
      "name": "FrozenFunds",
      "type": "event"
    },
    {
      "anonymous": false,
      "inputs": [
        {
          "indexed": true,
          "name": "_burner",
          "type": "address"
        },
        {
          "indexed": false,
          "name": "_value",
          "type": "uint256"
        }
      ],
      "name": "Burn",
      "type": "event"
    },
    {
      "anonymous": false,
      "inputs": [
        {
          "indexed": true,
          "name": "_owner",
          "type": "address"
        },
        {
          "indexed": true,
          "name": "_spender",
          "type": "address"
        },
        {
          "indexed": false,
          "name": "_value",
          "type": "uint256"
        }
      ],
      "name": "Approval",
      "type": "event"
    },
    {
      "anonymous": false,
      "inputs": [
        {
          "indexed": true,
          "name": "_from",
          "type": "address"
        },
        {
          "indexed": true,
          "name": "_to",
          "type": "address"
        },
        {
          "indexed": false,
          "name": "_value",
          "type": "uint256"
        }
      ],
      "name": "Transfer",
      "type": "event"
    },
    {
      "constant": true,
      "inputs": [
        {
          "name": "target",
          "type": "address"
        }
      ],
      "name": "checkMaxAllowed",
      "outputs": [
        {
          "name": "",
          "type": "uint256"
        }
      ],
      "payable": false,
      "stateMutability": "view",
      "type": "function"
    },
    {
      "constant": false,
      "inputs": [
        {
          "name": "freeze",
          "type": "bool"
        },
        {
          "name": "_seconds",
          "type": "uint256"
        }
      ],
      "name": "selfFreeze",
      "outputs": [],
      "payable": false,
      "stateMutability": "nonpayable",
      "type": "function"
    },
    {
      "constant": false,
      "inputs": [
        {
          "name": "target",
          "type": "address"
        },
        {
          "name": "freeze",
          "type": "bool"
        },
        {
          "name": "_seconds",
          "type": "uint256"
        }
      ],
      "name": "freezeAccount",
      "outputs": [],
      "payable": false,
      "stateMutability": "nonpayable",
      "type": "function"
    },
    {
      "constant": false,
      "inputs": [
        {
          "name": "_privateSaleList",
          "type": "address"
        }
      ],
      "name": "setPrivateList",
      "outputs": [],
      "payable": false,
      "stateMutability": "nonpayable",
      "type": "function"
    },
    {
      "constant": false,
      "inputs": [
        {
          "name": "startTime",
          "type": "uint256"
        },
        {
          "name": "endTime",
          "type": "uint256"
        }
      ],
      "name": "setTimeSale",
      "outputs": [],
      "payable": false,
      "stateMutability": "nonpayable",
      "type": "function"
    },
    {
      "constant": false,
      "inputs": [
        {
          "name": "_tokenSaleContract",
          "type": "address"
        }
      ],
      "name": "setTokenSaleContract",
      "outputs": [],
      "payable": false,
      "stateMutability": "nonpayable",
      "type": "function"
    },
    {
      "constant": false,
      "inputs": [
        {
          "name": "_to",
          "type": "address"
        },
        {
          "name": "_value",
          "type": "uint256"
        }
      ],
      "name": "transfer",
      "outputs": [
        {
          "name": "",
          "type": "bool"
        }
      ],
      "payable": false,
      "stateMutability": "nonpayable",
      "type": "function"
    },
    {
      "constant": false,
      "inputs": [
        {
          "name": "_to",
          "type": "address"
        },
        {
          "name": "_value",
          "type": "uint256"
        }
      ],
      "name": "transferPrivateSale",
      "outputs": [
        {
          "name": "",
          "type": "bool"
        }
      ],
      "payable": false,
      "stateMutability": "nonpayable",
      "type": "function"
    },
    {
      "constant": false,
      "inputs": [
        {
          "name": "_from",
          "type": "address"
        },
        {
          "name": "_to",
          "type": "address"
        },
        {
          "name": "_value",
          "type": "uint256"
        }
      ],
      "name": "transferFrom",
      "outputs": [
        {
          "name": "",
          "type": "bool"
        }
      ],
      "payable": false,
      "stateMutability": "nonpayable",
      "type": "function"
    },
    {
      "constant": false,
      "inputs": [
        {
          "name": "_value",
          "type": "uint256"
        }
      ],
      "name": "burn",
      "outputs": [
        {
          "name": "",
          "type": "bool"
        }
      ],
      "payable": false,
      "stateMutability": "nonpayable",
      "type": "function"
    },
    {
      "constant": false,
      "inputs": [
        {
          "name": "_from",
          "type": "address"
        },
        {
          "name": "_value",
          "type": "uint256"
        }
      ],
      "name": "burnFrom",
      "outputs": [
        {
          "name": "",
          "type": "bool"
        }
      ],
      "payable": false,
      "stateMutability": "nonpayable",
      "type": "function"
    },
    {
      "constant": false,
      "inputs": [
        {
          "name": "token",
          "type": "address"
        },
        {
          "name": "amount",
          "type": "uint256"
        }
      ],
      "name": "emergencyERC20Drain",
      "outputs": [],
      "payable": false,
      "stateMutability": "nonpayable",
      "type": "function"
    }
  ],
  "bytecode": "0x60806040526b06765c793fa10079d00000006004553480156200002157600080fd5b5060405161012080620036c483398101806040528101908080519060200190929190805190602001909291908051906020019092919080519060200190929190805190602001909291908051906020019092919080519060200190929190805190602001909291908051906020019092919050505033600360006101000a81548173ffffffffffffffffffffffffffffffffffffffff021916908373ffffffffffffffffffffffffffffffffffffffff160217905550600073ffffffffffffffffffffffffffffffffffffffff168773ffffffffffffffffffffffffffffffffffffffff16141515156200011457600080fd5b600073ffffffffffffffffffffffffffffffffffffffff168473ffffffffffffffffffffffffffffffffffffffff16141515156200015157600080fd5b600073ffffffffffffffffffffffffffffffffffffffff168573ffffffffffffffffffffffffffffffffffffffff16141515156200018e57600080fd5b600073ffffffffffffffffffffffffffffffffffffffff168273ffffffffffffffffffffffffffffffffffffffff1614151515620001cb57600080fd5b600073ffffffffffffffffffffffffffffffffffffffff168373ffffffffffffffffffffffffffffffffffffffff16141515156200020857600080fd5b600073ffffffffffffffffffffffffffffffffffffffff168673ffffffffffffffffffffffffffffffffffffffff16141515156200024557600080fd5b600073ffffffffffffffffffffffffffffffffffffffff168173ffffffffffffffffffffffffffffffffffffffff16141515156200028257600080fd5b600454600160003373ffffffffffffffffffffffffffffffffffffffff1673ffffffffffffffffffffffffffffffffffffffff168152602001908152602001600020819055503373ffffffffffffffffffffffffffffffffffffffff16600073ffffffffffffffffffffffffffffffffffffffff167fddf252ad1be2c89b69c2b068fc378daa952ba7f163c4a11628f55a4df523b3ef6004546040518082815260200191505060405180910390a383600760006101000a81548173ffffffffffffffffffffffffffffffffffffffff021916908373ffffffffffffffffffffffffffffffffffffffff16021790555084600660006101000a81548173ffffffffffffffffffffffffffffffffffffffff021916908373ffffffffffffffffffffffffffffffffffffffff16021790555081600960006101000a81548173ffffffffffffffffffffffffffffffffffffffff021916908373ffffffffffffffffffffffffffffffffffffffff16021790555082600860006101000a81548173ffffffffffffffffffffffffffffffffffffffff021916908373ffffffffffffffffffffffffffffffffffffffff16021790555085600560006101000a81548173ffffffffffffffffffffffffffffffffffffffff021916908373ffffffffffffffffffffffffffffffffffffffff16021790555080600a60006101000a81548173ffffffffffffffffffffffffffffffffffffffff021916908373ffffffffffffffffffffffffffffffffffffffff16021790555088600b8190555087600c81905550620004de87620004ed640100000000026401000000009004565b505050505050505050620005c6565b600360009054906101000a900473ffffffffffffffffffffffffffffffffffffffff1673ffffffffffffffffffffffffffffffffffffffff163373ffffffffffffffffffffffffffffffffffffffff161415156200054a57600080fd5b600073ffffffffffffffffffffffffffffffffffffffff168173ffffffffffffffffffffffffffffffffffffffff16141515620005c35780600360006101000a81548173ffffffffffffffffffffffffffffffffffffffff021916908373ffffffffffffffffffffffffffffffffffffffff1602179055505b50565b6130ee80620005d66000396000f3006080604052600436106101f9576000357c0100000000000000000000000000000000000000000000000000000000900463ffffffff16806306fdde03146101fe578063095ea7b31461028e578063107e8b24146102f357806318160ddd1461032a57806318656a1e146103555780631cbaee2d146103805780632352551f146103ab57806323b872dd14610402578063278a3684146104875780632b4a964b146104b2578063313ce567146104dd578063354d89ee146105085780634077aa141461054b57806342966c68146105765780634a382c36146105bb5780634b09b72a146106145780635211f8431461063f578063544d65441461069657806355dd8171146106fb5780635c28c7e0146107525780635d5aa277146107a95780635e5e305e1461080057806370a082311461085757806379cc6790146108ae5780637bc21b6b14610913578063801e25931461096a57806388d0820e146109c15780638985abc8146109fa5780638da5cb5b14610a2557806392d4247514610a7c57806395d89b4114610ad3578063a9059cbb14610b63578063aa848ee214610bc8578063af5c295a14610c0b578063b062307414610c62578063b414d4b614610cb9578063ccd331bf14610d14578063db0e16f114610d3f578063dd62ed3e14610d8c578063ed338ff114610e03578063f2fde38b14610e2e575b600080fd5b34801561020a57600080fd5b50610213610e71565b6040518080602001828103825283818151815260200191508051906020019080838360005b83811015610253578082015181840152602081019050610238565b50505050905090810190601f1680156102805780820380516001836020036101000a031916815260200191505b509250505060405180910390f35b34801561029a57600080fd5b506102d9600480360381019080803573ffffffffffffffffffffffffffffffffffffffff16906020019092919080359060200190929190505050610eaa565b604051808215151515815260200191505060405180910390f35b3480156102ff57600080fd5b506103286004803603810190808035906020019092919080359060200190929190505050611031565b005b34801561033657600080fd5b5061033f6110d7565b6040518082815260200191505060405180910390f35b34801561036157600080fd5b5061036a6110dd565b6040518082815260200191505060405180910390f35b34801561038c57600080fd5b506103956110ec565b6040518082815260200191505060405180910390f35b3480156103b757600080fd5b506103c06110f2565b604051808273ffffffffffffffffffffffffffffffffffffffff1673ffffffffffffffffffffffffffffffffffffffff16815260200191505060405180910390f35b34801561040e57600080fd5b5061046d600480360381019080803573ffffffffffffffffffffffffffffffffffffffff169060200190929190803573ffffffffffffffffffffffffffffffffffffffff16906020019092919080359060200190929190505050611118565b604051808215151515815260200191505060405180910390f35b34801561049357600080fd5b5061049c6115f8565b6040518082815260200191505060405180910390f35b3480156104be57600080fd5b506104c7611607565b6040518082815260200191505060405180910390f35b3480156104e957600080fd5b506104f2611617565b6040518082815260200191505060405180910390f35b34801561051457600080fd5b50610549600480360381019080803573ffffffffffffffffffffffffffffffffffffffff16906020019092919050505061161c565b005b34801561055757600080fd5b50610560611714565b6040518082815260200191505060405180910390f35b34801561058257600080fd5b506105a160048036038101908080359060200190929190505050611723565b604051808215151515815260200191505060405180910390f35b3480156105c757600080fd5b50610612600480360381019080803573ffffffffffffffffffffffffffffffffffffffff16906020019092919080351515906020019092919080359060200190929190505050611908565b005b34801561062057600080fd5b50610629611b39565b6040518082815260200191505060405180910390f35b34801561064b57600080fd5b50610654611b49565b604051808273ffffffffffffffffffffffffffffffffffffffff1673ffffffffffffffffffffffffffffffffffffffff16815260200191505060405180910390f35b3480156106a257600080fd5b506106e1600480360381019080803573ffffffffffffffffffffffffffffffffffffffff16906020019092919080359060200190929190505050611b6f565b604051808215151515815260200191505060405180910390f35b34801561070757600080fd5b50610710611cfe565b604051808273ffffffffffffffffffffffffffffffffffffffff1673ffffffffffffffffffffffffffffffffffffffff16815260200191505060405180910390f35b34801561075e57600080fd5b50610767611d24565b604051808273ffffffffffffffffffffffffffffffffffffffff1673ffffffffffffffffffffffffffffffffffffffff16815260200191505060405180910390f35b3480156107b557600080fd5b506107be611d4a565b604051808273ffffffffffffffffffffffffffffffffffffffff1673ffffffffffffffffffffffffffffffffffffffff16815260200191505060405180910390f35b34801561080c57600080fd5b50610815611d70565b604051808273ffffffffffffffffffffffffffffffffffffffff1673ffffffffffffffffffffffffffffffffffffffff16815260200191505060405180910390f35b34801561086357600080fd5b50610898600480360381019080803573ffffffffffffffffffffffffffffffffffffffff169060200190929190505050611d96565b6040518082815260200191505060405180910390f35b3480156108ba57600080fd5b506108f9600480360381019080803573ffffffffffffffffffffffffffffffffffffffff16906020019092919080359060200190929190505050611ddf565b604051808215151515815260200191505060405180910390f35b34801561091f57600080fd5b50610928611e7b565b604051808273ffffffffffffffffffffffffffffffffffffffff1673ffffffffffffffffffffffffffffffffffffffff16815260200191505060405180910390f35b34801561097657600080fd5b506109ab600480360381019080803573ffffffffffffffffffffffffffffffffffffffff169060200190929190505050611ea1565b6040518082815260200191505060405180910390f35b3480156109cd57600080fd5b506109f860048036038101908080351515906020019092919080359060200190929190505050611eb9565b005b348015610a0657600080fd5b50610a0f61209f565b6040518082815260200191505060405180910390f35b348015610a3157600080fd5b50610a3a6120ae565b604051808273ffffffffffffffffffffffffffffffffffffffff1673ffffffffffffffffffffffffffffffffffffffff16815260200191505060405180910390f35b348015610a8857600080fd5b50610a916120d4565b604051808273ffffffffffffffffffffffffffffffffffffffff1673ffffffffffffffffffffffffffffffffffffffff16815260200191505060405180910390f35b348015610adf57600080fd5b50610ae86120fa565b6040518080602001828103825283818151815260200191508051906020019080838360005b83811015610b28578082015181840152602081019050610b0d565b50505050905090810190601f168015610b555780820380516001836020036101000a031916815260200191505b509250505060405180910390f35b348015610b6f57600080fd5b50610bae600480360381019080803573ffffffffffffffffffffffffffffffffffffffff16906020019092919080359060200190929190505050612133565b604051808215151515815260200191505060405180910390f35b348015610bd457600080fd5b50610c09600480360381019080803573ffffffffffffffffffffffffffffffffffffffff169060200190929190505050612611565b005b348015610c1757600080fd5b50610c4c600480360381019080803573ffffffffffffffffffffffffffffffffffffffff1690602001909291905050506126ed565b6040518082815260200191505060405180910390f35b348015610c6e57600080fd5b50610ca3600480360381019080803573ffffffffffffffffffffffffffffffffffffffff169060200190929190505050612934565b6040518082815260200191505060405180910390f35b348015610cc557600080fd5b50610cfa600480360381019080803573ffffffffffffffffffffffffffffffffffffffff16906020019092919050505061294c565b604051808215151515815260200191505060405180910390f35b348015610d2057600080fd5b50610d2961296c565b6040518082815260200191505060405180910390f35b348015610d4b57600080fd5b50610d8a600480360381019080803573ffffffffffffffffffffffffffffffffffffffff1690602001909291908035906020019092919050505061297b565b005b348015610d9857600080fd5b50610ded600480360381019080803573ffffffffffffffffffffffffffffffffffffffff169060200190929190803573ffffffffffffffffffffffffffffffffffffffff169060200190929190505050612adc565b6040518082815260200191505060405180910390f35b348015610e0f57600080fd5b50610e18612b63565b6040518082815260200191505060405180910390f35b348015610e3a57600080fd5b50610e6f600480360381019080803573ffffffffffffffffffffffffffffffffffffffff169060200190929190505050612b69565b005b6040805190810160405280600681526020017f426967626f6d000000000000000000000000000000000000000000000000000081525081565b600080821480610f3657506000600260003373ffffffffffffffffffffffffffffffffffffffff1673ffffffffffffffffffffffffffffffffffffffff16815260200190815260200160002060008573ffffffffffffffffffffffffffffffffffffffff1673ffffffffffffffffffffffffffffffffffffffff16815260200190815260200160002054145b1515610f4157600080fd5b81600260003373ffffffffffffffffffffffffffffffffffffffff1673ffffffffffffffffffffffffffffffffffffffff16815260200190815260200160002060008573ffffffffffffffffffffffffffffffffffffffff1673ffffffffffffffffffffffffffffffffffffffff168152602001908152602001600020819055508273ffffffffffffffffffffffffffffffffffffffff163373ffffffffffffffffffffffffffffffffffffffff167f8c5be1e5ebec7d5bd14f71427d1e84f3dd0314c0f7b2291e5b200ac8c7c3b925846040518082815260200191505060405180910390a36001905092915050565b600360009054906101000a900473ffffffffffffffffffffffffffffffffffffffff1673ffffffffffffffffffffffffffffffffffffffff163373ffffffffffffffffffffffffffffffffffffffff1614151561108d57600080fd5b600b5442108061109e5750600c5442115b15156110a957600080fd5b81421015156110b757600080fd5b80821015156110c557600080fd5b81600b8190555080600c819055505050565b60045481565b6aa56fa5b99019a5c800000081565b600b5481565b600a60009054906101000a900473ffffffffffffffffffffffffffffffffffffffff1681565b6000806000806000600c5442111580156111345750600b544210155b1561119657600d60009054906101000a900473ffffffffffffffffffffffffffffffffffffffff1673ffffffffffffffffffffffffffffffffffffffff163373ffffffffffffffffffffffffffffffffffffffff1614151561119557600080fd5b5b86600073ffffffffffffffffffffffffffffffffffffffff168173ffffffffffffffffffffffffffffffffffffffff16141515156111d357600080fd5b3073ffffffffffffffffffffffffffffffffffffffff168173ffffffffffffffffffffffffffffffffffffffff161415151561120e57600080fd5b600f60008273ffffffffffffffffffffffffffffffffffffffff1673ffffffffffffffffffffffffffffffffffffffff16815260200190815260200160002060009054906101000a900460ff1615151561126757600080fd5b88600f60008273ffffffffffffffffffffffffffffffffffffffff1673ffffffffffffffffffffffffffffffffffffffff16815260200190815260200160002060009054906101000a900460ff161515156112c157600080fd5b600560009054906101000a900473ffffffffffffffffffffffffffffffffffffffff1673ffffffffffffffffffffffffffffffffffffffff168a73ffffffffffffffffffffffffffffffffffffffff16148061136a5750600660009054906101000a900473ffffffffffffffffffffffffffffffffffffffff1673ffffffffffffffffffffffffffffffffffffffff168a73ffffffffffffffffffffffffffffffffffffffff16145b806113c25750600760009054906101000a900473ffffffffffffffffffffffffffffffffffffffff1673ffffffffffffffffffffffffffffffffffffffff168a73ffffffffffffffffffffffffffffffffffffffff16145b8061141a5750600860009054906101000a900473ffffffffffffffffffffffffffffffffffffffff1673ffffffffffffffffffffffffffffffffffffffff168a73ffffffffffffffffffffffffffffffffffffffff16145b806114725750600960009054906101000a900473ffffffffffffffffffffffffffffffffffffffff1673ffffffffffffffffffffffffffffffffffffffff168a73ffffffffffffffffffffffffffffffffffffffff16145b156115dd57601160008b73ffffffffffffffffffffffffffffffffffffffff1673ffffffffffffffffffffffffffffffffffffffff1681526020019081526020016000205495506114c28a6126ed565b945085850393508784101515156114d857600080fd5b87841415611547576114ea8989612c40565b92506114fa600162015180611eb9565b6000601160008c73ffffffffffffffffffffffffffffffffffffffff1673ffffffffffffffffffffffffffffffffffffffff168152602001908152602001600020819055508296506115eb565b61159988601160008d73ffffffffffffffffffffffffffffffffffffffff1673ffffffffffffffffffffffffffffffffffffffff16815260200190815260200160002054612ddb90919063ffffffff16565b601160008c73ffffffffffffffffffffffffffffffffffffffff1673ffffffffffffffffffffffffffffffffffffffff168152602001908152602001600020819055505b6115e88a8a8a612df9565b96505b5050505050509392505050565b6a73ce27351811f40c00000081565b6b01f04ef12cb04cf15800000081565b601281565b600360009054906101000a900473ffffffffffffffffffffffffffffffffffffffff1673ffffffffffffffffffffffffffffffffffffffff163373ffffffffffffffffffffffffffffffffffffffff1614151561167857600080fd5b600073ffffffffffffffffffffffffffffffffffffffff168173ffffffffffffffffffffffffffffffffffffffff16141515156116b457600080fd5b600b544210806116c55750600c5442115b15156116d057600080fd5b80600d60006101000a81548173ffffffffffffffffffffffffffffffffffffffff021916908373ffffffffffffffffffffffffffffffffffffffff16021790555050565b6a31a17e847807b1bc00000081565b6000600c5442111580156117395750600b544210155b1561179b57600d60009054906101000a900473ffffffffffffffffffffffffffffffffffffffff1673ffffffffffffffffffffffffffffffffffffffff163373ffffffffffffffffffffffffffffffffffffffff1614151561179a57600080fd5b5b6117ed82600160003373ffffffffffffffffffffffffffffffffffffffff1673ffffffffffffffffffffffffffffffffffffffff168152602001908152602001600020546130a990919063ffffffff16565b600160003373ffffffffffffffffffffffffffffffffffffffff1673ffffffffffffffffffffffffffffffffffffffff16815260200190815260200160002081905550611845826004546130a990919063ffffffff16565b6004819055503373ffffffffffffffffffffffffffffffffffffffff167fcc16f5dbb4873280815c1ee09dbd06736cffcc184412cf7a71a0fdb75d397ca5836040518082815260200191505060405180910390a2600073ffffffffffffffffffffffffffffffffffffffff163373ffffffffffffffffffffffffffffffffffffffff167fddf252ad1be2c89b69c2b068fc378daa952ba7f163c4a11628f55a4df523b3ef846040518082815260200191505060405180910390a360019050919050565b6000600360009054906101000a900473ffffffffffffffffffffffffffffffffffffffff1673ffffffffffffffffffffffffffffffffffffffff163373ffffffffffffffffffffffffffffffffffffffff1614151561196657600080fd5b821515611a1e57601060008573ffffffffffffffffffffffffffffffffffffffff1673ffffffffffffffffffffffffffffffffffffffff1681526020019081526020016000205490508042101515156119be57600080fd5b82600f60008673ffffffffffffffffffffffffffffffffffffffff1673ffffffffffffffffffffffffffffffffffffffff16815260200190815260200160002060006101000a81548160ff02191690831515021790555060009150611a76565b82600f60008673ffffffffffffffffffffffffffffffffffffffff1673ffffffffffffffffffffffffffffffffffffffff16815260200190815260200160002060006101000a81548160ff0219169083151502179055505b814201601060008673ffffffffffffffffffffffffffffffffffffffff1673ffffffffffffffffffffffffffffffffffffffff168152602001908152602001600020819055507fe498f5de034ff24e6c60a58f79f46177b3549748e793928ba8588593e9fec1b9848484604051808473ffffffffffffffffffffffffffffffffffffffff1673ffffffffffffffffffffffffffffffffffffffff16815260200183151515158152602001828152602001935050505060405180910390a150505050565b6b020d427af9f6516e5b00000081565b600860009054906101000a900473ffffffffffffffffffffffffffffffffffffffff1681565b6000600360009054906101000a900473ffffffffffffffffffffffffffffffffffffffff1673ffffffffffffffffffffffffffffffffffffffff163373ffffffffffffffffffffffffffffffffffffffff16141515611bcd57600080fd5b826000600b544211151515611be157600080fd5b600e60009054906101000a900473ffffffffffffffffffffffffffffffffffffffff1673ffffffffffffffffffffffffffffffffffffffff1663b3aefb75836040518263ffffffff167c0100000000000000000000000000000000000000000000000000000000028152600401808273ffffffffffffffffffffffffffffffffffffffff1673ffffffffffffffffffffffffffffffffffffffff168152602001915050602060405180830381600087803b158015611c9e57600080fd5b505af1158015611cb2573d6000803e3d6000fd5b505050506040513d6020811015611cc857600080fd5b81019080805190602001909291905050509050600081111515611cea57600080fd5b611cf48585612133565b9250505092915050565b600560009054906101000a900473ffffffffffffffffffffffffffffffffffffffff1681565b600e60009054906101000a900473ffffffffffffffffffffffffffffffffffffffff1681565b600d60009054906101000a900473ffffffffffffffffffffffffffffffffffffffff1681565b600760009054906101000a900473ffffffffffffffffffffffffffffffffffffffff1681565b6000600160008373ffffffffffffffffffffffffffffffffffffffff1673ffffffffffffffffffffffffffffffffffffffff168152602001908152602001600020549050919050565b6000600c544211158015611df55750600b544210155b15611e5757600d60009054906101000a900473ffffffffffffffffffffffffffffffffffffffff1673ffffffffffffffffffffffffffffffffffffffff163373ffffffffffffffffffffffffffffffffffffffff16141515611e5657600080fd5b5b611e62833384611118565b1515611e6a57fe5b611e7382611723565b905092915050565b600660009054906101000a900473ffffffffffffffffffffffffffffffffffffffff1681565b60116020528060005260406000206000915090505481565b600062093a808211151515611ecd57600080fd5b821515611f8557601060003373ffffffffffffffffffffffffffffffffffffffff1673ffffffffffffffffffffffffffffffffffffffff168152602001908152602001600020549050804210151515611f2557600080fd5b82600f60003373ffffffffffffffffffffffffffffffffffffffff1673ffffffffffffffffffffffffffffffffffffffff16815260200190815260200160002060006101000a81548160ff02191690831515021790555060009150611fdd565b82600f60003373ffffffffffffffffffffffffffffffffffffffff1673ffffffffffffffffffffffffffffffffffffffff16815260200190815260200160002060006101000a81548160ff0219169083151502179055505b814201601060003373ffffffffffffffffffffffffffffffffffffffff1673ffffffffffffffffffffffffffffffffffffffff168152602001908152602001600020819055507fe498f5de034ff24e6c60a58f79f46177b3549748e793928ba8588593e9fec1b9338484604051808473ffffffffffffffffffffffffffffffffffffffff1673ffffffffffffffffffffffffffffffffffffffff16815260200183151515158152602001828152602001935050505060405180910390a1505050565b6ae37983df262343f300000081565b600360009054906101000a900473ffffffffffffffffffffffffffffffffffffffff1681565b600960009054906101000a900473ffffffffffffffffffffffffffffffffffffffff1681565b6040805190810160405280600381526020017f42424f000000000000000000000000000000000000000000000000000000000081525081565b6000806000806000600c54421115801561214f5750600b544210155b156121b157600d60009054906101000a900473ffffffffffffffffffffffffffffffffffffffff1673ffffffffffffffffffffffffffffffffffffffff163373ffffffffffffffffffffffffffffffffffffffff161415156121b057600080fd5b5b86600073ffffffffffffffffffffffffffffffffffffffff168173ffffffffffffffffffffffffffffffffffffffff16141515156121ee57600080fd5b3073ffffffffffffffffffffffffffffffffffffffff168173ffffffffffffffffffffffffffffffffffffffff161415151561222957600080fd5b600f60008273ffffffffffffffffffffffffffffffffffffffff1673ffffffffffffffffffffffffffffffffffffffff16815260200190815260200160002060009054906101000a900460ff1615151561228257600080fd5b33600f60008273ffffffffffffffffffffffffffffffffffffffff1673ffffffffffffffffffffffffffffffffffffffff16815260200190815260200160002060009054906101000a900460ff161515156122dc57600080fd5b600560009054906101000a900473ffffffffffffffffffffffffffffffffffffffff1673ffffffffffffffffffffffffffffffffffffffff163373ffffffffffffffffffffffffffffffffffffffff1614806123855750600660009054906101000a900473ffffffffffffffffffffffffffffffffffffffff1673ffffffffffffffffffffffffffffffffffffffff163373ffffffffffffffffffffffffffffffffffffffff16145b806123dd5750600760009054906101000a900473ffffffffffffffffffffffffffffffffffffffff1673ffffffffffffffffffffffffffffffffffffffff163373ffffffffffffffffffffffffffffffffffffffff16145b806124355750600860009054906101000a900473ffffffffffffffffffffffffffffffffffffffff1673ffffffffffffffffffffffffffffffffffffffff163373ffffffffffffffffffffffffffffffffffffffff16145b8061248d5750600960009054906101000a900473ffffffffffffffffffffffffffffffffffffffff1673ffffffffffffffffffffffffffffffffffffffff163373ffffffffffffffffffffffffffffffffffffffff16145b156125f857601160003373ffffffffffffffffffffffffffffffffffffffff1673ffffffffffffffffffffffffffffffffffffffff1681526020019081526020016000205495506124dd336126ed565b945085850393508784101515156124f357600080fd5b87841415612562576125058989612c40565b9250612515600162015180611eb9565b6000601160003373ffffffffffffffffffffffffffffffffffffffff1673ffffffffffffffffffffffffffffffffffffffff16815260200190815260200160002081905550829650612605565b6125b488601160003373ffffffffffffffffffffffffffffffffffffffff1673ffffffffffffffffffffffffffffffffffffffff16815260200190815260200160002054612ddb90919063ffffffff16565b601160003373ffffffffffffffffffffffffffffffffffffffff1673ffffffffffffffffffffffffffffffffffffffff168152602001908152602001600020819055505b6126028989612c40565b96505b50505050505092915050565b600360009054906101000a900473ffffffffffffffffffffffffffffffffffffffff1673ffffffffffffffffffffffffffffffffffffffff163373ffffffffffffffffffffffffffffffffffffffff1614151561266d57600080fd5b600073ffffffffffffffffffffffffffffffffffffffff168173ffffffffffffffffffffffffffffffffffffffff16141515156126a957600080fd5b80600e60006101000a81548173ffffffffffffffffffffffffffffffffffffffff021916908373ffffffffffffffffffffffffffffffffffffffff16021790555050565b600080600160008473ffffffffffffffffffffffffffffffffffffffff1673ffffffffffffffffffffffffffffffffffffffff168152602001908152602001600020549050600560009054906101000a900473ffffffffffffffffffffffffffffffffffffffff1673ffffffffffffffffffffffffffffffffffffffff168373ffffffffffffffffffffffffffffffffffffffff161415612797576a084595161401484a00000090505b600660009054906101000a900473ffffffffffffffffffffffffffffffffffffffff1673ffffffffffffffffffffffffffffffffffffffff168373ffffffffffffffffffffffffffffffffffffffff1614156127fc576a084595161401484a00000090505b600760009054906101000a900473ffffffffffffffffffffffffffffffffffffffff1673ffffffffffffffffffffffffffffffffffffffff168373ffffffffffffffffffffffffffffffffffffffff161415612861576a211654585005212800000090505b600860009054906101000a900473ffffffffffffffffffffffffffffffffffffffff1673ffffffffffffffffffffffffffffffffffffffff168373ffffffffffffffffffffffffffffffffffffffff1614156128c6576a108b2a2c2802909400000090505b600960009054906101000a900473ffffffffffffffffffffffffffffffffffffffff1673ffffffffffffffffffffffffffffffffffffffff168373ffffffffffffffffffffffffffffffffffffffff16141561292b576a0540aa3094621824c0000090505b80915050919050565b60106020528060005260406000206000915090505481565b600f6020528060005260406000206000915054906101000a900460ff1681565b6a211654585005212800000081565b600360009054906101000a900473ffffffffffffffffffffffffffffffffffffffff1673ffffffffffffffffffffffffffffffffffffffff163373ffffffffffffffffffffffffffffffffffffffff161415156129d757600080fd5b8173ffffffffffffffffffffffffffffffffffffffff1663a9059cbb600360009054906101000a900473ffffffffffffffffffffffffffffffffffffffff16836040518363ffffffff167c0100000000000000000000000000000000000000000000000000000000028152600401808373ffffffffffffffffffffffffffffffffffffffff1673ffffffffffffffffffffffffffffffffffffffff16815260200182815260200192505050602060405180830381600087803b158015612a9c57600080fd5b505af1158015612ab0573d6000803e3d6000fd5b505050506040513d6020811015612ac657600080fd5b8101908080519060200190929190505050505050565b6000600260008473ffffffffffffffffffffffffffffffffffffffff1673ffffffffffffffffffffffffffffffffffffffff16815260200190815260200160002060008373ffffffffffffffffffffffffffffffffffffffff1673ffffffffffffffffffffffffffffffffffffffff16815260200190815260200160002054905092915050565b600c5481565b600360009054906101000a900473ffffffffffffffffffffffffffffffffffffffff1673ffffffffffffffffffffffffffffffffffffffff163373ffffffffffffffffffffffffffffffffffffffff16141515612bc557600080fd5b600073ffffffffffffffffffffffffffffffffffffffff168173ffffffffffffffffffffffffffffffffffffffff16141515612c3d5780600360006101000a81548173ffffffffffffffffffffffffffffffffffffffff021916908373ffffffffffffffffffffffffffffffffffffffff1602179055505b50565b6000612c9482600160003373ffffffffffffffffffffffffffffffffffffffff1673ffffffffffffffffffffffffffffffffffffffff168152602001908152602001600020546130a990919063ffffffff16565b600160003373ffffffffffffffffffffffffffffffffffffffff1673ffffffffffffffffffffffffffffffffffffffff16815260200190815260200160002081905550612d2982600160008673ffffffffffffffffffffffffffffffffffffffff1673ffffffffffffffffffffffffffffffffffffffff16815260200190815260200160002054612ddb90919063ffffffff16565b600160008573ffffffffffffffffffffffffffffffffffffffff1673ffffffffffffffffffffffffffffffffffffffff168152602001908152602001600020819055508273ffffffffffffffffffffffffffffffffffffffff163373ffffffffffffffffffffffffffffffffffffffff167fddf252ad1be2c89b69c2b068fc378daa952ba7f163c4a11628f55a4df523b3ef846040518082815260200191505060405180910390a36001905092915050565b6000808284019050838110151515612def57fe5b8091505092915050565b600080600260008673ffffffffffffffffffffffffffffffffffffffff1673ffffffffffffffffffffffffffffffffffffffff16815260200190815260200160002060003373ffffffffffffffffffffffffffffffffffffffff1673ffffffffffffffffffffffffffffffffffffffff168152602001908152602001600020549050612ecd83600160008873ffffffffffffffffffffffffffffffffffffffff1673ffffffffffffffffffffffffffffffffffffffff168152602001908152602001600020546130a990919063ffffffff16565b600160008773ffffffffffffffffffffffffffffffffffffffff1673ffffffffffffffffffffffffffffffffffffffff16815260200190815260200160002081905550612f6283600160008773ffffffffffffffffffffffffffffffffffffffff1673ffffffffffffffffffffffffffffffffffffffff16815260200190815260200160002054612ddb90919063ffffffff16565b600160008673ffffffffffffffffffffffffffffffffffffffff1673ffffffffffffffffffffffffffffffffffffffff16815260200190815260200160002081905550612fb883826130a990919063ffffffff16565b600260008773ffffffffffffffffffffffffffffffffffffffff1673ffffffffffffffffffffffffffffffffffffffff16815260200190815260200160002060003373ffffffffffffffffffffffffffffffffffffffff1673ffffffffffffffffffffffffffffffffffffffff168152602001908152602001600020819055508373ffffffffffffffffffffffffffffffffffffffff168573ffffffffffffffffffffffffffffffffffffffff167fddf252ad1be2c89b69c2b068fc378daa952ba7f163c4a11628f55a4df523b3ef856040518082815260200191505060405180910390a360019150509392505050565b60008282111515156130b757fe5b8183039050929150505600a165627a7a723058204eebaf9652eefd625a0586107e07990345aac2d501682171ff0c3f64f22615cb0029",
  "source": "pragma solidity ^0.4.19;\n\nimport './zeppelin/token/StandardToken.sol';\nimport './zeppelin/ownership/Ownable.sol';\nimport './BigbomPrivateSaleList.sol';\n\ncontract BigbomToken is StandardToken, Ownable {\n    \n    string  public  constant name = \"Bigbom\";\n    string  public  constant symbol = \"BBO\";\n    uint    public  constant decimals = 18;\n    uint    public   totalSupply = 2000000000 * 1e18; //2,000,000,000\n\n    uint    public  constant founderAmount = 200000000 * 1e18; // 200,000,000\n    uint    public  constant coreStaffAmount = 60000000 * 1e18; // 60,000,000\n    uint    public  constant advisorAmount = 140000000 * 1e18; // 140,000,000\n    uint    public  constant networkGrowthAmount = 600000000 * 1e18; //600,000,000\n    uint    public  constant reserveAmount = 635000000 * 1e18; // 635,000,000\n    uint    public  constant bountyAmount = 40000000 * 1e18; // 40,000,000\n    uint    public  constant publicSaleAmount = 275000000 * 1e18; // 275,000,000\n\n    address public   bbFounderCoreStaffWallet ;\n    address public   bbAdvisorWallet;\n    address public   bbAirdropWallet;\n    address public   bbNetworkGrowthWallet;\n    address public   bbReserveWallet;\n    address public   bbPublicSaleWallet;\n\n    uint    public  saleStartTime;\n    uint    public  saleEndTime;\n\n    address public  tokenSaleContract;\n    BigbomPrivateSaleList public privateSaleList;\n\n    mapping (address => bool) public frozenAccount;\n    mapping (address => uint) public frozenTime;\n    mapping (address => uint) public maxAllowedAmount;\n\n    /* This generates a public event on the blockchain that will notify clients */\n    event FrozenFunds(address target, bool frozen, uint _seconds);\n   \n\n    function checkMaxAllowed(address target)  public constant  returns (uint) {\n        var maxAmount  = balances[target];\n        if(target == bbFounderCoreStaffWallet){\n            maxAmount = 10000000 * 1e18;\n        }\n        if(target == bbAdvisorWallet){\n            maxAmount = 10000000 * 1e18;\n        }\n        if(target == bbAirdropWallet){\n            maxAmount = 40000000 * 1e18;\n        }\n        if(target == bbNetworkGrowthWallet){\n            maxAmount = 20000000 * 1e18;\n        }\n        if(target == bbReserveWallet){\n            maxAmount = 6350000 * 1e18;\n        }\n        return maxAmount;\n    }\n\n    function selfFreeze(bool freeze, uint _seconds) public {\n        // selfFreeze cannot more than 7 days\n        require(_seconds <= 7 * 24 * 3600);\n        // if unfreeze\n        if(!freeze){\n            // get End time of frozenAccount\n            var frozenEndTime = frozenTime[msg.sender];\n            // if now > frozenEndTime\n            require (now >= frozenEndTime);\n            // unfreeze account\n            frozenAccount[msg.sender] = freeze;\n            // set time to 0\n            _seconds = 0;           \n        }else{\n            frozenAccount[msg.sender] = freeze;\n            \n        }\n        // set endTime = now + _seconds to freeze\n        frozenTime[msg.sender] = now + _seconds;\n        FrozenFunds(msg.sender, freeze, _seconds);\n        \n    }\n\n    function freezeAccount(address target, bool freeze, uint _seconds) onlyOwner public {\n        \n        // if unfreeze\n        if(!freeze){\n            // get End time of frozenAccount\n            var frozenEndTime = frozenTime[target];\n            // if now > frozenEndTime\n            require (now >= frozenEndTime);\n            // unfreeze account\n            frozenAccount[target] = freeze;\n            // set time to 0\n            _seconds = 0;           \n        }else{\n            frozenAccount[target] = freeze;\n            \n        }\n        // set endTime = now + _seconds to freeze\n        frozenTime[target] = now + _seconds;\n        FrozenFunds(target, freeze, _seconds);\n        \n    }\n\n    modifier validDestination( address to ) {\n        require(to != address(0x0));\n        require(to != address(this) );\n        require(!frozenAccount[to]);                       // Check if recipient is frozen\n        _;\n    }\n    modifier validFrom(address from){\n        require(!frozenAccount[from]);                     // Check if sender is frozen\n        _;\n    }\n    modifier onlyWhenTransferEnabled() {\n        if( now <= saleEndTime && now >= saleStartTime ) {\n            require( msg.sender == tokenSaleContract );\n        }\n        _;\n    }\n    modifier onlyPrivateListEnabled(address _to){\n        require(now <= saleStartTime);\n        uint allowcap = privateSaleList.getCap(_to);\n        require (allowcap > 0);\n        _;\n    }\n    function setPrivateList(BigbomPrivateSaleList _privateSaleList)   onlyOwner public {\n        require(_privateSaleList != address(0x0));\n        privateSaleList = _privateSaleList;\n\n    }\n    \n    function BigbomToken(uint startTime, uint endTime, address admin, address _bbFounderCoreStaffWallet, address _bbAdvisorWallet,\n        address _bbAirdropWallet,\n        address _bbNetworkGrowthWallet,\n        address _bbReserveWallet, \n        address _bbPublicSaleWallet\n        ) public {\n\n        require(admin!=address(0x0));\n        require(_bbAirdropWallet!=address(0x0));\n        require(_bbAdvisorWallet!=address(0x0));\n        require(_bbReserveWallet!=address(0x0));\n        require(_bbNetworkGrowthWallet!=address(0x0));\n        require(_bbFounderCoreStaffWallet!=address(0x0));\n        require(_bbPublicSaleWallet!=address(0x0));\n\n        // Mint all tokens. Then disable minting forever.\n        balances[msg.sender] = totalSupply;\n        Transfer(address(0x0), msg.sender, totalSupply);\n        // init internal amount limit\n        // set address when deploy\n        bbAirdropWallet = _bbAirdropWallet;\n        bbAdvisorWallet = _bbAdvisorWallet;\n        bbReserveWallet = _bbReserveWallet;\n        bbNetworkGrowthWallet = _bbNetworkGrowthWallet;\n        bbFounderCoreStaffWallet = _bbFounderCoreStaffWallet;\n        bbPublicSaleWallet = _bbPublicSaleWallet;\n        \n        saleStartTime = startTime;\n        saleEndTime = endTime;\n        transferOwnership(admin); // admin could drain tokens that were sent here by mistake\n    }\n\n    function setTimeSale(uint startTime, uint endTime) onlyOwner public {\n        require (now < saleStartTime || now > saleEndTime);\n        require (now < startTime);\n        require ( startTime < endTime);\n        saleStartTime = startTime;\n        saleEndTime = endTime;\n    }\n\n    function setTokenSaleContract(address _tokenSaleContract) onlyOwner public {\n        // check address ! 0\n        require(_tokenSaleContract != address(0x0));\n        // do not allow run when saleStartTime <= now <= saleEndTime\n        require (now < saleStartTime || now > saleEndTime);\n\n        tokenSaleContract = _tokenSaleContract;\n    }\n    function transfer(address _to, uint _value)\n        onlyWhenTransferEnabled\n        validDestination(_to)\n        validFrom(msg.sender)\n        public \n        returns (bool) {\n        if (msg.sender == bbFounderCoreStaffWallet || msg.sender == bbAdvisorWallet|| \n            msg.sender == bbAirdropWallet|| msg.sender == bbNetworkGrowthWallet|| msg.sender == bbReserveWallet){\n\n            // check maxAllowedAmount\n            var withdrawAmount =  maxAllowedAmount[msg.sender]; \n            var defaultAllowAmount = checkMaxAllowed(msg.sender);\n            var maxAmount = defaultAllowAmount - withdrawAmount;\n            // _value transfer must <= maxAmount\n            require(maxAmount >= _value); // \n\n            // if maxAmount = 0, need to block this msg.sender\n            if(maxAmount==_value){\n               \n                var isTransfer = super.transfer(_to, _value);\n                 // freeze account\n                selfFreeze(true, 24 * 3600); // temp freeze account 24h\n                maxAllowedAmount[msg.sender] = 0;\n                return isTransfer;\n            }else{\n                // set max withdrawAmount\n                maxAllowedAmount[msg.sender] = maxAllowedAmount[msg.sender].add(_value); // \n                \n            }\n        }\n        return  super.transfer(_to, _value);\n            \n    }\n\n    function transferPrivateSale(address _to, uint _value)\n        onlyOwner\n        onlyPrivateListEnabled(_to) \n        public \n        returns (bool) {\n         return transfer( _to,  _value);\n    }\n\n    function transferFrom(address _from, address _to, uint _value)\n        onlyWhenTransferEnabled\n        validDestination(_to)\n        validFrom(_from)\n        public \n        returns (bool) {\n            if (_from == bbFounderCoreStaffWallet || _from == bbAdvisorWallet|| \n                _from == bbAirdropWallet|| _from == bbNetworkGrowthWallet|| _from == bbReserveWallet){\n\n                  // check maxAllowedAmount\n                var withdrawAmount =  maxAllowedAmount[_from]; \n                var defaultAllowAmount = checkMaxAllowed(_from);\n                var maxAmount = defaultAllowAmount - withdrawAmount; \n                // _value transfer must <= maxAmount\n                require(maxAmount >= _value); \n\n                // if maxAmount = 0, need to block this _from\n                if(maxAmount==_value){\n                   \n                    var isTransfer = super.transfer(_to, _value);\n                     // freeze account\n                    selfFreeze(true, 24 * 3600); \n                    maxAllowedAmount[_from] = 0;\n                    return isTransfer;\n                }else{\n                    // set max withdrawAmount\n                    maxAllowedAmount[_from] = maxAllowedAmount[_from].add(_value); \n                    \n                }\n            }\n            return super.transferFrom(_from, _to, _value);\n    }\n\n    event Burn(address indexed _burner, uint _value);\n\n    function burn(uint _value) onlyWhenTransferEnabled\n        public \n        returns (bool){\n        balances[msg.sender] = balances[msg.sender].sub(_value);\n        totalSupply = totalSupply.sub(_value);\n        Burn(msg.sender, _value);\n        Transfer(msg.sender, address(0x0), _value);\n        return true;\n    }\n\n    // save some gas by making only one contract call\n    function burnFrom(address _from, uint256 _value) onlyWhenTransferEnabled\n        public \n        returns (bool) {\n        assert( transferFrom( _from, msg.sender, _value ) );\n        return burn(_value);\n    }\n\n    function emergencyERC20Drain( ERC20 token, uint amount ) onlyOwner public {\n        token.transfer( owner, amount );\n    }\n}\n",
  "sourcePath": "/Users/yena/Documents/tuongnguyen/BigBomTokenSale/contracts/BigbomToken.sol",
  "compiler": {
    "name": "solc",
    "version": "0.4.23+commit.124ca40d.Emscripten.clang"
  },
  "schemaVersion": "2.0.0",
  "updatedAt": "2018-05-19T14:42:23.973Z"
}