{
  "contractName": "BigbomTokenSale",
  "abi": [
    {
      "constant": true,
      "inputs": [],
      "name": "openSaleStartTime",
      "outputs": [
        {
          "name": "",
          "type": "uint256"
        }
      ],
      "payable": false,
      "stateMutability": "view",
      "type": "function"
    },
    {
      "constant": true,
      "inputs": [],
      "name": "list",
      "outputs": [
        {
          "name": "",
          "type": "address"
        }
      ],
      "payable": false,
      "stateMutability": "view",
      "type": "function"
    },
    {
      "constant": true,
      "inputs": [],
      "name": "haltSale",
      "outputs": [
        {
          "name": "",
          "type": "bool"
        }
      ],
      "payable": false,
      "stateMutability": "view",
      "type": "function"
    },
    {
      "constant": true,
      "inputs": [],
      "name": "bigbomMultiSigWallet",
      "outputs": [
        {
          "name": "",
          "type": "address"
        }
      ],
      "payable": false,
      "stateMutability": "view",
      "type": "function"
    },
    {
      "constant": true,
      "inputs": [
        {
          "name": "",
          "type": "address"
        }
      ],
      "name": "participated",
      "outputs": [
        {
          "name": "",
          "type": "uint256"
        }
      ],
      "payable": false,
      "stateMutability": "view",
      "type": "function"
    },
    {
      "constant": true,
      "inputs": [],
      "name": "raisedWei",
      "outputs": [
        {
          "name": "",
          "type": "uint256"
        }
      ],
      "payable": false,
      "stateMutability": "view",
      "type": "function"
    },
    {
      "constant": true,
      "inputs": [],
      "name": "openSaleEndTime",
      "outputs": [
        {
          "name": "",
          "type": "uint256"
        }
      ],
      "payable": false,
      "stateMutability": "view",
      "type": "function"
    },
    {
      "constant": true,
      "inputs": [],
      "name": "admin",
      "outputs": [
        {
          "name": "",
          "type": "address"
        }
      ],
      "payable": false,
      "stateMutability": "view",
      "type": "function"
    },
    {
      "constant": true,
      "inputs": [],
      "name": "token",
      "outputs": [
        {
          "name": "",
          "type": "address"
        }
      ],
      "payable": false,
      "stateMutability": "view",
      "type": "function"
    },
    {
      "inputs": [
        {
          "name": "_admin",
          "type": "address"
        },
        {
          "name": "_bigbomMultiSigWallet",
          "type": "address"
        },
        {
          "name": "_whilteListContract",
          "type": "address"
        },
        {
          "name": "_publicSaleStartTime",
          "type": "uint256"
        },
        {
          "name": "_publicSaleEndTime",
          "type": "uint256"
        }
      ],
      "payable": false,
      "stateMutability": "nonpayable",
      "type": "constructor"
    },
    {
      "payable": true,
      "stateMutability": "payable",
      "type": "fallback"
    },
    {
      "anonymous": false,
      "inputs": [
        {
          "indexed": false,
          "name": "_buyer",
          "type": "address"
        },
        {
          "indexed": false,
          "name": "_tokens",
          "type": "uint256"
        },
        {
          "indexed": false,
          "name": "_payedWei",
          "type": "uint256"
        },
        {
          "indexed": false,
          "name": "_bonus",
          "type": "uint256"
        }
      ],
      "name": "Buy",
      "type": "event"
    },
    {
      "anonymous": false,
      "inputs": [],
      "name": "FinalizeSale",
      "type": "event"
    },
    {
      "constant": true,
      "inputs": [],
      "name": "saleEnded",
      "outputs": [
        {
          "name": "",
          "type": "bool"
        }
      ],
      "payable": false,
      "stateMutability": "view",
      "type": "function"
    },
    {
      "constant": true,
      "inputs": [],
      "name": "saleStarted",
      "outputs": [
        {
          "name": "",
          "type": "bool"
        }
      ],
      "payable": false,
      "stateMutability": "view",
      "type": "function"
    },
    {
      "constant": false,
      "inputs": [
        {
          "name": "halt",
          "type": "bool"
        }
      ],
      "name": "setHaltSale",
      "outputs": [],
      "payable": false,
      "stateMutability": "nonpayable",
      "type": "function"
    },
    {
      "constant": true,
      "inputs": [
        {
          "name": "contributor",
          "type": "address"
        }
      ],
      "name": "contributorMinCap",
      "outputs": [
        {
          "name": "",
          "type": "uint256"
        }
      ],
      "payable": false,
      "stateMutability": "view",
      "type": "function"
    },
    {
      "constant": true,
      "inputs": [
        {
          "name": "contributor",
          "type": "address"
        },
        {
          "name": "amountInWei",
          "type": "uint256"
        }
      ],
      "name": "contributorMaxCap",
      "outputs": [
        {
          "name": "",
          "type": "uint256"
        }
      ],
      "payable": false,
      "stateMutability": "view",
      "type": "function"
    },
    {
      "constant": true,
      "inputs": [
        {
          "name": "contributor",
          "type": "address"
        },
        {
          "name": "amountInWei",
          "type": "uint256"
        }
      ],
      "name": "checkMaxCap",
      "outputs": [
        {
          "name": "",
          "type": "uint256"
        }
      ],
      "payable": false,
      "stateMutability": "view",
      "type": "function"
    },
    {
      "constant": false,
      "inputs": [
        {
          "name": "_tokens",
          "type": "uint256"
        },
        {
          "name": "_amountInWei",
          "type": "uint256"
        }
      ],
      "name": "getBonusTest",
      "outputs": [
        {
          "name": "",
          "type": "uint256"
        }
      ],
      "payable": false,
      "stateMutability": "nonpayable",
      "type": "function"
    },
    {
      "constant": false,
      "inputs": [
        {
          "name": "_tokens",
          "type": "uint256"
        },
        {
          "name": "_amountInWei",
          "type": "uint256"
        }
      ],
      "name": "getBonus",
      "outputs": [
        {
          "name": "",
          "type": "uint256"
        }
      ],
      "payable": false,
      "stateMutability": "nonpayable",
      "type": "function"
    },
    {
      "constant": false,
      "inputs": [
        {
          "name": "recipient",
          "type": "address"
        }
      ],
      "name": "buy",
      "outputs": [
        {
          "name": "",
          "type": "uint256"
        }
      ],
      "payable": true,
      "stateMutability": "payable",
      "type": "function"
    },
    {
      "constant": false,
      "inputs": [],
      "name": "finalizeSale",
      "outputs": [],
      "payable": false,
      "stateMutability": "nonpayable",
      "type": "function"
    },
    {
      "constant": false,
      "inputs": [
        {
          "name": "anyToken",
          "type": "address"
        }
      ],
      "name": "emergencyDrain",
      "outputs": [
        {
          "name": "",
          "type": "bool"
        }
      ],
      "payable": false,
      "stateMutability": "nonpayable",
      "type": "function"
    },
    {
      "constant": false,
      "inputs": [],
      "name": "debugBuy",
      "outputs": [],
      "payable": true,
      "stateMutability": "payable",
      "type": "function"
    }
  ],
  "bytecode": "0x6060604052341561000f57600080fd5b60405160a080611aee83398101604052808051906020019091908051906020019091908051906020019091908051906020019091908051906020019091905050846000806101000a81548173ffffffffffffffffffffffffffffffffffffffff021916908373ffffffffffffffffffffffffffffffffffffffff16021790555083600160006101000a81548173ffffffffffffffffffffffffffffffffffffffff021916908373ffffffffffffffffffffffffffffffffffffffff16021790555082600760006101000a81548173ffffffffffffffffffffffffffffffffffffffff021916908373ffffffffffffffffffffffffffffffffffffffff160217905550816005819055508060068190555050505050506119bb806101336000396000f30060606040526004361061011d576000357c0100000000000000000000000000000000000000000000000000000000900463ffffffff168063053e316914610129578063060c265f146101525780630992e4c3146101a85780630f560cd7146101fe578063361b94be1461025357806358a687ec146102a05780635c474f9e146102b55780635fbaa390146102e257806362aac84d1461030f57806371a18bfb146103345780639427aa96146103855780639b8906ae146103c5578063a6f07a5c146103f2578063b1f5618714610447578063b3bd870a14610451578063bc59d45a1461049e578063df3529d1146104c7578063e58018c514610507578063f088d54714610530578063f851a44014610572578063fc0c546a146105c7575b6101263361061c565b50005b341561013457600080fd5b61013c6108ed565b6040518082815260200191505060405180910390f35b341561015d57600080fd5b610192600480803573ffffffffffffffffffffffffffffffffffffffff169060200190919080359060200190919050506108f3565b6040518082815260200191505060405180910390f35b34156101b357600080fd5b6101e8600480803573ffffffffffffffffffffffffffffffffffffffff169060200190919080359060200190919050506109a1565b6040518082815260200191505060405180910390f35b341561020957600080fd5b610211610b0a565b604051808273ffffffffffffffffffffffffffffffffffffffff1673ffffffffffffffffffffffffffffffffffffffff16815260200191505060405180910390f35b341561025e57600080fd5b61028a600480803573ffffffffffffffffffffffffffffffffffffffff16906020019091905050610b30565b6040518082815260200191505060405180910390f35b34156102ab57600080fd5b6102b3610c19565b005b34156102c057600080fd5b6102c8610e49565b604051808215151515815260200191505060405180910390f35b34156102ed57600080fd5b6102f5610e56565b604051808215151515815260200191505060405180910390f35b341561031a57600080fd5b61033260048080351515906020019091905050610e69565b005b341561033f57600080fd5b61036b600480803573ffffffffffffffffffffffffffffffffffffffff16906020019091905050610ee1565b604051808215151515815260200191505060405180910390f35b341561039057600080fd5b6103af600480803590602001909190803590602001909190505061117f565b6040518082815260200191505060405180910390f35b34156103d057600080fd5b6103d86114b8565b604051808215151515815260200191505060405180910390f35b34156103fd57600080fd5b6104056114c4565b604051808273ffffffffffffffffffffffffffffffffffffffff1673ffffffffffffffffffffffffffffffffffffffff16815260200191505060405180910390f35b61044f6114ea565b005b341561045c57600080fd5b610488600480803573ffffffffffffffffffffffffffffffffffffffff16906020019091905050611504565b6040518082815260200191505060405180910390f35b34156104a957600080fd5b6104b161151c565b6040518082815260200191505060405180910390f35b34156104d257600080fd5b6104f16004808035906020019091908035906020019091905050611522565b6040518082815260200191505060405180910390f35b341561051257600080fd5b61051a611854565b6040518082815260200191505060405180910390f35b61055c600480803573ffffffffffffffffffffffffffffffffffffffff1690602001909190505061061c565b6040518082815260200191505060405180910390f35b341561057d57600080fd5b61058561185a565b604051808273ffffffffffffffffffffffffffffffffffffffff1673ffffffffffffffffffffffffffffffffffffffff16815260200191505060405180910390f35b34156105d257600080fd5b6105da61187f565b604051808273ffffffffffffffffffffffffffffffffffffffff1673ffffffffffffffffffffffffffffffffffffffff16815260200191505060405180910390f35b6000806000806000640ba43b74003a1115151561063857600080fd5b600460009054906101000a900460ff1615151561065457600080fd5b61065c610e49565b151561066757600080fd5b61066f6114b8565b15151561067b57600080fd5b61068486610b30565b935061069086346108f3565b92506000841115156106a157600080fd5b6000831115156106b057600080fd5b8334101515156106bf57600080fd5b8234111561071a573373ffffffffffffffffffffffffffffffffffffffff166108fc6106f485346118a590919063ffffffff16565b9081150290604051600060405180830381858888f19350505050151561071957600080fd5b5b610723346118be565b6107383460035461192390919063ffffffff16565b600381905550610753614e203461194190919063ffffffff16565b915061075f8234611522565b9050610774818361192390919063ffffffff16565b9150600260009054906101000a900473ffffffffffffffffffffffffffffffffffffffff1673ffffffffffffffffffffffffffffffffffffffff1663a9059cbb87846000604051602001526040518363ffffffff167c0100000000000000000000000000000000000000000000000000000000028152600401808373ffffffffffffffffffffffffffffffffffffffff1673ffffffffffffffffffffffffffffffffffffffff16815260200182815260200192505050602060405180830381600087803b151561084357600080fd5b6102c65a03f1151561085457600080fd5b50505060405180519050151561086657fe5b7fbeae048c6d270d9469f86cf6e8fedda3c60ad770f16c24c9fc131c8e9a09101d86833484604051808573ffffffffffffffffffffffffffffffffffffffff1673ffffffffffffffffffffffffffffffffffffffff16815260200184815260200183815260200182815260200194505050505060405180910390a134945050505050919050565b60055481565b60008061090084846109a1565b905061095481600860008773ffffffffffffffffffffffffffffffffffffffff1673ffffffffffffffffffffffffffffffffffffffff1681526020019081526020016000205461192390919063ffffffff16565b600860008673ffffffffffffffffffffffffffffffffffffffff1673ffffffffffffffffffffffffffffffffffffffff168152602001908152602001600020819055508091505092915050565b6000806000600760009054906101000a900473ffffffffffffffffffffffffffffffffffffffff1673ffffffffffffffffffffffffffffffffffffffff166394a5601a866000604051602001526040518263ffffffff167c0100000000000000000000000000000000000000000000000000000000028152600401808273ffffffffffffffffffffffffffffffffffffffff1673ffffffffffffffffffffffffffffffffffffffff168152602001915050602060405180830381600087803b1515610a6b57600080fd5b6102c65a03f11515610a7c57600080fd5b5050506040518051905091506000821415610a9a5760009250610b02565b610aec600860008773ffffffffffffffffffffffffffffffffffffffff1673ffffffffffffffffffffffffffffffffffffffff16815260200190815260200160002054836118a590919063ffffffff16565b905083811115610afe57839250610b02565b8092505b505092915050565b600760009054906101000a900473ffffffffffffffffffffffffffffffffffffffff1681565b6000600760009054906101000a900473ffffffffffffffffffffffffffffffffffffffff1673ffffffffffffffffffffffffffffffffffffffff166330184635836000604051602001526040518263ffffffff167c0100000000000000000000000000000000000000000000000000000000028152600401808273ffffffffffffffffffffffffffffffffffffffff1673ffffffffffffffffffffffffffffffffffffffff168152602001915050602060405180830381600087803b1515610bf757600080fd5b6102c65a03f11515610c0857600080fd5b505050604051805190509050919050565b610c216114b8565b1515610c2c57600080fd5b6000809054906101000a900473ffffffffffffffffffffffffffffffffffffffff1673ffffffffffffffffffffffffffffffffffffffff163373ffffffffffffffffffffffffffffffffffffffff16141515610c8757600080fd5b600260009054906101000a900473ffffffffffffffffffffffffffffffffffffffff1673ffffffffffffffffffffffffffffffffffffffff166342966c68600260009054906101000a900473ffffffffffffffffffffffffffffffffffffffff1673ffffffffffffffffffffffffffffffffffffffff166370a08231306000604051602001526040518263ffffffff167c0100000000000000000000000000000000000000000000000000000000028152600401808273ffffffffffffffffffffffffffffffffffffffff1673ffffffffffffffffffffffffffffffffffffffff168152602001915050602060405180830381600087803b1515610d8a57600080fd5b6102c65a03f11515610d9b57600080fd5b505050604051805190506000604051602001526040518263ffffffff167c010000000000000000000000000000000000000000000000000000000002815260040180828152602001915050602060405180830381600087803b1515610dff57600080fd5b6102c65a03f11515610e1057600080fd5b50505060405180519050507f49943394d1d9872d58364da1ca74d2b7af3f9be1146ac3c37513b0b1cb97ae2b60405160405180910390a1565b6000600554421015905090565b600460009054906101000a900460ff1681565b6000809054906101000a900473ffffffffffffffffffffffffffffffffffffffff1673ffffffffffffffffffffffffffffffffffffffff163373ffffffffffffffffffffffffffffffffffffffff16141515610ec457600080fd5b80600460006101000a81548160ff02191690831515021790555050565b60008060009054906101000a900473ffffffffffffffffffffffffffffffffffffffff1673ffffffffffffffffffffffffffffffffffffffff163373ffffffffffffffffffffffffffffffffffffffff16141515610f3e57600080fd5b610f466114b8565b1515610f5157600080fd5b60003073ffffffffffffffffffffffffffffffffffffffff16311115610f9257610f913073ffffffffffffffffffffffffffffffffffffffff16316118be565b5b600073ffffffffffffffffffffffffffffffffffffffff168273ffffffffffffffffffffffffffffffffffffffff16141515611176578173ffffffffffffffffffffffffffffffffffffffff1663a9059cbb600160009054906101000a900473ffffffffffffffffffffffffffffffffffffffff168473ffffffffffffffffffffffffffffffffffffffff166370a08231306000604051602001526040518263ffffffff167c0100000000000000000000000000000000000000000000000000000000028152600401808273ffffffffffffffffffffffffffffffffffffffff1673ffffffffffffffffffffffffffffffffffffffff168152602001915050602060405180830381600087803b15156110aa57600080fd5b6102c65a03f115156110bb57600080fd5b505050604051805190506000604051602001526040518363ffffffff167c0100000000000000000000000000000000000000000000000000000000028152600401808373ffffffffffffffffffffffffffffffffffffffff1673ffffffffffffffffffffffffffffffffffffffff16815260200182815260200192505050602060405180830381600087803b151561115257600080fd5b6102c65a03f1151561116357600080fd5b50505060405180519050151561117557fe5b5b60019050919050565b60006005544211801561119957506203f480600554014211155b1561131d5768056bc75e2d6310000082101580156111bf5750681043561a882930000082105b156111f2576111eb60646111dd602d8661194190919063ffffffff16565b61197490919063ffffffff16565b90506114b2565b681043561a882930000082101580156112135750681b1ae4d6e2ef50000082105b156112465761123f606461123160328661194190919063ffffffff16565b61197490919063ffffffff16565b90506114b2565b681b1ae4d6e2ef50000082101580156112675750683635c9adc5dea0000082105b1561129a576112936064611285603c8661194190919063ffffffff16565b61197490919063ffffffff16565b90506114b2565b683635c9adc5dea0000082101580156112bc575068a2a15d09519be000008211155b156112ef576112e860646112da60418661194190919063ffffffff16565b61197490919063ffffffff16565b90506114b2565b611316606461130860198661194190919063ffffffff16565b61197490919063ffffffff16565b90506114b2565b6203f480600554014211801561133a575062151800600554014211155b1561136d57611366606461135860198661194190919063ffffffff16565b61197490919063ffffffff16565b90506114b2565b62151800600554014211801561138a575062239880600554014211155b156113bd576113b660646113a8600f8661194190919063ffffffff16565b61197490919063ffffffff16565b90506114b2565b6223988060055401421180156113da57506230c780600554014211155b1561140d5761140660646113f8600a8661194190919063ffffffff16565b61197490919063ffffffff16565b90506114b2565b6230c780600554014211801561142a5750623df680600554014211155b1561145d57611456606461144860058661194190919063ffffffff16565b61197490919063ffffffff16565b90506114b2565b623df680600554014211801561147a575062448e00600554014211155b156114ad576114a6606461149860038661194190919063ffffffff16565b61197490919063ffffffff16565b90506114b2565b600090505b92915050565b60006006544211905090565b600160009054906101000a900473ffffffffffffffffffffffffffffffffffffffff1681565b607b341415156114f957600080fd5b611502346118be565b565b60086020528060005260406000206000915090505481565b60035481565b60006005544211801561153c57506203f480600554014211155b156116b957670de0b6b3a7640000821015801561156057506729a2241af62c000082105b156115935761158c606461157e602d8661194190919063ffffffff16565b61197490919063ffffffff16565b905061184e565b6729a2241af62c000082101580156115b25750674563918244f4000082105b156115e5576115de60646115d060328661194190919063ffffffff16565b61197490919063ffffffff16565b905061184e565b674563918244f4000082101580156116045750678ac7230489e8000082105b15611637576116306064611622603c8661194190919063ffffffff16565b61197490919063ffffffff16565b905061184e565b678ac7230489e80000821015801561165857506801a055690d9db800008211155b1561168b57611684606461167660418661194190919063ffffffff16565b61197490919063ffffffff16565b905061184e565b6116b260646116a460198661194190919063ffffffff16565b61197490919063ffffffff16565b905061184e565b6203f48060055401421180156116d6575062151800600554014211155b156117095761170260646116f460198661194190919063ffffffff16565b61197490919063ffffffff16565b905061184e565b621518006005540142118015611726575062239880600554014211155b15611759576117526064611744600f8661194190919063ffffffff16565b61197490919063ffffffff16565b905061184e565b62239880600554014211801561177657506230c780600554014211155b156117a9576117a26064611794600a8661194190919063ffffffff16565b61197490919063ffffffff16565b905061184e565b6230c78060055401421180156117c65750623df680600554014211155b156117f9576117f260646117e460058661194190919063ffffffff16565b61197490919063ffffffff16565b905061184e565b623df6806005540142118015611816575062448e00600554014211155b1561184957611842606461183460038661194190919063ffffffff16565b61197490919063ffffffff16565b905061184e565b600090505b92915050565b60065481565b6000809054906101000a900473ffffffffffffffffffffffffffffffffffffffff1681565b600260009054906101000a900473ffffffffffffffffffffffffffffffffffffffff1681565b60008282111515156118b357fe5b818303905092915050565b600160009054906101000a900473ffffffffffffffffffffffffffffffffffffffff1673ffffffffffffffffffffffffffffffffffffffff166108fc829081150290604051600060405180830381858888f19350505050151561192057600080fd5b50565b600080828401905083811015151561193757fe5b8091505092915050565b60008082840290506000841480611962575082848281151561195f57fe5b04145b151561196a57fe5b8091505092915050565b600080828481151561198257fe5b04905080915050929150505600a165627a7a72305820da0ebccfc3e364eaafd5e1e9fdcdfad795859148d51bd62fbdf5685225f89bdb0029",
  "source": "pragma solidity ^0.4.19;\n\nimport './BigbomToken.sol';\nimport './zeppelin/ownership/Ownable.sol';\nimport './BigbomContributorWhiteList.sol';\nimport './BigbomPrivateSaleList.sol';\nimport './zeppelin/math/SafeMath.sol';\n\ncontract BigbomTokenSale {\n    address             public admin;\n    address             public bigbomMultiSigWallet;\n    BigbomToken         public token;\n    uint                public raisedWei;\n    bool                public haltSale;\n    uint                      public openSaleStartTime;\n    uint                      public openSaleEndTime;\n    BigbomContributorWhiteList public list;\n\n    mapping(address=>uint)    public participated;\n\n    // mapping(bytes32=>uint) public proxyPurchases;\n    using SafeMath for uint;\n\n    function BigbomTokenSale( address _admin,\n                              address _bigbomMultiSigWallet,\n                              BigbomContributorWhiteList _whilteListContract,\n                              uint _publicSaleStartTime,\n                              uint _publicSaleEndTime)       \n    {\n        admin = _admin;\n        bigbomMultiSigWallet = _bigbomMultiSigWallet;\n        list = _whilteListContract;\n        openSaleStartTime = _publicSaleStartTime;\n        openSaleEndTime = _publicSaleEndTime;\n    }\n    \n    function saleEnded() constant returns(bool) {\n        return now > openSaleEndTime;\n    }\n\n    function saleStarted() constant returns(bool) {\n        return now >= openSaleStartTime;\n    }\n\n    function setHaltSale( bool halt ) {\n        require( msg.sender == admin );\n        haltSale = halt;\n    }\n    // this is a seperate function so user could query it before crowdsale starts\n    function contributorMinCap( address contributor ) constant returns(uint) {\n        return list.getMinCap( contributor );\n    }\n    function contributorMaxCap( address contributor, uint amountInWei ) constant returns(uint) {\n        uint cap = list.getMaxCap( contributor );\n        if( cap == 0 ) return 0;\n        uint remainedCap = cap.sub( participated[ contributor ] );\n\n        if( remainedCap > amountInWei ) return amountInWei;\n        else return remainedCap;\n    }\n\n    function checkMaxCap( address contributor, uint amountInWei ) constant returns(uint) {\n        uint result = contributorMaxCap( contributor, amountInWei );\n        participated[contributor] = participated[contributor].add( result );\n        return result;\n    }\n\n    function() payable {\n        buy( msg.sender );\n    }\n\n    // event ProxyBuy( bytes32 indexed _proxy, address _recipient, uint _amountInWei );\n    // function proxyBuy( bytes32 proxy, address recipient ) payable returns(uint){\n    //     uint amount = buy( recipient );\n    //     proxyPurchases[proxy] = proxyPurchases[proxy].add(amount);\n    //     ProxyBuy( proxy, recipient, amount );\n\n    //     return amount;\n    // }\n\n\n    function getBonusTest(uint _tokens, uint _amountInWei) returns (uint){\n        if (now > openSaleStartTime && now <= (openSaleStartTime+3 days)){\n            if (_amountInWei >= 1*1e18 && _amountInWei < 3 * 1e18){\n                return  _tokens.mul(45).div(100);\n            }\n            if (_amountInWei >= 3*1e18 && _amountInWei < 5 * 1e18){\n                return  _tokens.mul(50).div(100);\n            }\n            if (_amountInWei >= 5*1e18 && _amountInWei < 10 * 1e18){\n                return  _tokens.mul(60).div(100);\n            }\n            if (_amountInWei >= 10*1e18 && _amountInWei <= 30 * 1e18){\n                return  _tokens.mul(65).div(100);\n            }\n            return _tokens.mul(25).div(100);\n        }else if (now > (openSaleStartTime+3  days) && now <= (openSaleStartTime+16 days)){\n            return _tokens.mul(25).div(100);\n        }else if (now > (openSaleStartTime+16 days) && now <= (openSaleStartTime+27 days)){\n            return _tokens.mul(15).div(100);\n        }else if (now > (openSaleStartTime+27 days) && now <= (openSaleStartTime+37 days)){\n            return _tokens.mul(10).div(100);\n        }else if (now > (openSaleStartTime+37 days) && now <= (openSaleStartTime+47 days)){\n            return _tokens.mul(5).div(100);\n        }else if (now > (openSaleStartTime+47 days) && now <= (openSaleStartTime+52 days)){\n            return _tokens.mul(3).div(100);\n        }else{\n            return 0;\n        }\n    }\n\n    function getBonus(uint _tokens, uint _amountInWei) returns (uint){\n        if (now > openSaleStartTime && now <= (openSaleStartTime+3 days)){\n            if (_amountInWei >= 100*1e18 && _amountInWei < 300 * 1e18){\n                return  _tokens.mul(45).div(100);\n            }\n            if (_amountInWei >= 300*1e18 && _amountInWei < 500 * 1e18){\n                return  _tokens.mul(50).div(100);\n            }\n            if (_amountInWei >= 500*1e18 && _amountInWei < 1000 * 1e18){\n                return  _tokens.mul(60).div(100);\n            }\n            if (_amountInWei >= 1000*1e18 && _amountInWei <= 3000 * 1e18){\n                return  _tokens.mul(65).div(100);\n            }\n            return _tokens.mul(25).div(100);\n        }else if (now > (openSaleStartTime+3  days) && now <= (openSaleStartTime+16 days)){\n            return _tokens.mul(25).div(100);\n        }else if (now > (openSaleStartTime+16 days) && now <= (openSaleStartTime+27 days)){\n            return _tokens.mul(15).div(100);\n        }else if (now > (openSaleStartTime+27 days) && now <= (openSaleStartTime+37 days)){\n            return _tokens.mul(10).div(100);\n        }else if (now > (openSaleStartTime+37 days) && now <= (openSaleStartTime+47 days)){\n            return _tokens.mul(5).div(100);\n        }else if (now > (openSaleStartTime+47 days) && now <= (openSaleStartTime+52 days)){\n            return _tokens.mul(3).div(100);\n        }else{\n            return 0;\n        }\n    }\n\n    event Buy( address _buyer, uint _tokens, uint _payedWei, uint _bonus );\n    function buy( address recipient ) payable returns(uint){\n        require( tx.gasprice <= 50000000000 wei );\n\n        require( ! haltSale );\n        require( saleStarted() );\n        require( ! saleEnded() );\n\n        uint mincap = contributorMinCap(recipient);\n\n        uint maxcap = checkMaxCap(recipient, msg.value );\n\n        require( mincap > 0 );\n        require( maxcap > 0 );\n        // fail if msg.value < mincap\n        require (msg.value >= mincap);\n        // send to msg.sender, not to recipient if value > maxcap\n        if( msg.value > maxcap  ) {\n            msg.sender.transfer( msg.value.sub( maxcap ) );\n        }\n\n        // send payment to wallet\n        sendETHToMultiSig( msg.value );\n        raisedWei = raisedWei.add( msg.value );\n        // 1ETH = 20000 BBO\n        uint recievedTokens = msg.value.mul( 20000 );\n        // TODO bounce\n        //uint bonus = getBonus(recievedTokens, msg.value);\n        uint bonus = getBonusTest(recievedTokens, msg.value);\n        \n        recievedTokens = recievedTokens.add(bonus);\n        assert( token.transfer( recipient, recievedTokens ) );\n        //\n\n        Buy( recipient, recievedTokens, msg.value, bonus );\n\n        return msg.value;\n    }\n\n    function sendETHToMultiSig( uint value ) internal {\n        bigbomMultiSigWallet.transfer( value );\n    }\n\n    event FinalizeSale();\n    // function is callable by everyone\n    function finalizeSale() {\n        require( saleEnded() );\n        require( msg.sender == admin );\n\n        // burn remaining tokens\n        token.burn(token.balanceOf(this));\n\n        FinalizeSale();\n    }\n\n    // ETH balance is always expected to be 0.\n    // but in case something went wrong, we use this function to extract the eth.\n    function emergencyDrain(ERC20 anyToken) returns(bool){\n        require( msg.sender == admin );\n        require( saleEnded() );\n\n        if( this.balance > 0 ) {\n            sendETHToMultiSig( this.balance );\n        }\n\n        if( anyToken != address(0x0) ) {\n            assert( anyToken.transfer(bigbomMultiSigWallet, anyToken.balanceOf(this)) );\n        }\n\n        return true;\n    }\n\n    // just to check that funds goes to the right place\n    // tokens are not given in return\n    function debugBuy() payable {\n        require( msg.value == 123 );\n        sendETHToMultiSig( msg.value );\n    }\n}\n",
  "sourcePath": "/Users/applepen/Documents/git/bigbom/BigBomTokenSale/contracts/BigbomTokenSale.sol",
  "compiler": {
    "name": "solc",
    "version": "0.4.19+commit.c4cbbb05.Emscripten.clang"
  },
  "schemaVersion": "2.0.0",
  "updatedAt": "2018-03-14T03:17:15.381Z"
}