{
  "contractName": "BigbomTokenSecondSale",
  "abi": [
    {
      "constant": true,
      "inputs": [],
      "name": "openSaleStartTime",
      "outputs": [
        {
          "name": "",
          "type": "uint256"
        }
      ],
      "payable": false,
      "stateMutability": "view",
      "type": "function"
    },
    {
      "constant": true,
      "inputs": [],
      "name": "list",
      "outputs": [
        {
          "name": "",
          "type": "address"
        }
      ],
      "payable": false,
      "stateMutability": "view",
      "type": "function"
    },
    {
      "constant": true,
      "inputs": [],
      "name": "haltSale",
      "outputs": [
        {
          "name": "",
          "type": "bool"
        }
      ],
      "payable": false,
      "stateMutability": "view",
      "type": "function"
    },
    {
      "constant": true,
      "inputs": [],
      "name": "bigbomMultiSigWallet",
      "outputs": [
        {
          "name": "",
          "type": "address"
        }
      ],
      "payable": false,
      "stateMutability": "view",
      "type": "function"
    },
    {
      "constant": true,
      "inputs": [
        {
          "name": "",
          "type": "address"
        }
      ],
      "name": "participated",
      "outputs": [
        {
          "name": "",
          "type": "uint256"
        }
      ],
      "payable": false,
      "stateMutability": "view",
      "type": "function"
    },
    {
      "constant": true,
      "inputs": [],
      "name": "raisedWei",
      "outputs": [
        {
          "name": "",
          "type": "uint256"
        }
      ],
      "payable": false,
      "stateMutability": "view",
      "type": "function"
    },
    {
      "constant": true,
      "inputs": [],
      "name": "openSaleEndTime",
      "outputs": [
        {
          "name": "",
          "type": "uint256"
        }
      ],
      "payable": false,
      "stateMutability": "view",
      "type": "function"
    },
    {
      "constant": true,
      "inputs": [],
      "name": "admin",
      "outputs": [
        {
          "name": "",
          "type": "address"
        }
      ],
      "payable": false,
      "stateMutability": "view",
      "type": "function"
    },
    {
      "constant": true,
      "inputs": [],
      "name": "token",
      "outputs": [
        {
          "name": "",
          "type": "address"
        }
      ],
      "payable": false,
      "stateMutability": "view",
      "type": "function"
    },
    {
      "inputs": [
        {
          "name": "_admin",
          "type": "address"
        },
        {
          "name": "_bigbomMultiSigWallet",
          "type": "address"
        },
        {
          "name": "_whilteListContract",
          "type": "address"
        },
        {
          "name": "_publicSaleStartTime",
          "type": "uint256"
        },
        {
          "name": "_publicSaleEndTime",
          "type": "uint256"
        },
        {
          "name": "_token",
          "type": "address"
        }
      ],
      "payable": false,
      "stateMutability": "nonpayable",
      "type": "constructor"
    },
    {
      "payable": true,
      "stateMutability": "payable",
      "type": "fallback"
    },
    {
      "anonymous": false,
      "inputs": [
        {
          "indexed": false,
          "name": "_buyer",
          "type": "address"
        },
        {
          "indexed": false,
          "name": "_tokens",
          "type": "uint256"
        },
        {
          "indexed": false,
          "name": "_payedWei",
          "type": "uint256"
        },
        {
          "indexed": false,
          "name": "_bonus",
          "type": "uint256"
        }
      ],
      "name": "Buy",
      "type": "event"
    },
    {
      "anonymous": false,
      "inputs": [],
      "name": "FinalizeSale",
      "type": "event"
    },
    {
      "anonymous": false,
      "inputs": [
        {
          "indexed": false,
          "name": "_buyer",
          "type": "address"
        },
        {
          "indexed": false,
          "name": "_tokens",
          "type": "uint256"
        },
        {
          "indexed": false,
          "name": "_payedWei",
          "type": "uint256"
        },
        {
          "indexed": false,
          "name": "_bonus",
          "type": "uint256"
        },
        {
          "indexed": false,
          "name": "depositTx",
          "type": "string"
        }
      ],
      "name": "Erc20Buy",
      "type": "event"
    },
    {
      "anonymous": false,
      "inputs": [
        {
          "indexed": false,
          "name": "_buyer",
          "type": "address"
        },
        {
          "indexed": false,
          "name": "_erc20RefundAmount",
          "type": "uint256"
        }
      ],
      "name": "Erc20Refund",
      "type": "event"
    },
    {
      "constant": true,
      "inputs": [],
      "name": "saleEnded",
      "outputs": [
        {
          "name": "",
          "type": "bool"
        }
      ],
      "payable": false,
      "stateMutability": "view",
      "type": "function"
    },
    {
      "constant": true,
      "inputs": [],
      "name": "saleStarted",
      "outputs": [
        {
          "name": "",
          "type": "bool"
        }
      ],
      "payable": false,
      "stateMutability": "view",
      "type": "function"
    },
    {
      "constant": false,
      "inputs": [
        {
          "name": "halt",
          "type": "bool"
        }
      ],
      "name": "setHaltSale",
      "outputs": [],
      "payable": false,
      "stateMutability": "nonpayable",
      "type": "function"
    },
    {
      "constant": true,
      "inputs": [
        {
          "name": "contributor",
          "type": "address"
        }
      ],
      "name": "contributorMinCap",
      "outputs": [
        {
          "name": "",
          "type": "uint256"
        }
      ],
      "payable": false,
      "stateMutability": "view",
      "type": "function"
    },
    {
      "constant": true,
      "inputs": [
        {
          "name": "contributor",
          "type": "address"
        },
        {
          "name": "amountInWei",
          "type": "uint256"
        }
      ],
      "name": "contributorMaxCap",
      "outputs": [
        {
          "name": "",
          "type": "uint256"
        }
      ],
      "payable": false,
      "stateMutability": "view",
      "type": "function"
    },
    {
      "constant": true,
      "inputs": [
        {
          "name": "_tokens",
          "type": "uint256"
        }
      ],
      "name": "getBonus",
      "outputs": [
        {
          "name": "",
          "type": "uint256"
        }
      ],
      "payable": false,
      "stateMutability": "view",
      "type": "function"
    },
    {
      "constant": false,
      "inputs": [
        {
          "name": "recipient",
          "type": "address"
        }
      ],
      "name": "buy",
      "outputs": [
        {
          "name": "",
          "type": "uint256"
        }
      ],
      "payable": true,
      "stateMutability": "payable",
      "type": "function"
    },
    {
      "constant": false,
      "inputs": [],
      "name": "finalizeSale",
      "outputs": [],
      "payable": false,
      "stateMutability": "nonpayable",
      "type": "function"
    },
    {
      "constant": false,
      "inputs": [
        {
          "name": "anyToken",
          "type": "address"
        }
      ],
      "name": "emergencyDrain",
      "outputs": [
        {
          "name": "",
          "type": "bool"
        }
      ],
      "payable": false,
      "stateMutability": "nonpayable",
      "type": "function"
    },
    {
      "constant": false,
      "inputs": [],
      "name": "debugBuy",
      "outputs": [],
      "payable": true,
      "stateMutability": "payable",
      "type": "function"
    },
    {
      "constant": true,
      "inputs": [
        {
          "name": "erc20Name",
          "type": "string"
        }
      ],
      "name": "getErc20Rate",
      "outputs": [
        {
          "name": "",
          "type": "uint256"
        }
      ],
      "payable": false,
      "stateMutability": "view",
      "type": "function"
    },
    {
      "constant": false,
      "inputs": [
        {
          "name": "erc20Name",
          "type": "string"
        },
        {
          "name": "rate",
          "type": "uint256"
        }
      ],
      "name": "setErc20Rate",
      "outputs": [],
      "payable": false,
      "stateMutability": "nonpayable",
      "type": "function"
    },
    {
      "constant": false,
      "inputs": [
        {
          "name": "recipient",
          "type": "address"
        },
        {
          "name": "erc20Amount",
          "type": "uint256"
        },
        {
          "name": "erc20Name",
          "type": "string"
        },
        {
          "name": "depositTx",
          "type": "string"
        }
      ],
      "name": "erc20Buy",
      "outputs": [
        {
          "name": "",
          "type": "uint256"
        }
      ],
      "payable": false,
      "stateMutability": "nonpayable",
      "type": "function"
    }
  ],
  "bytecode": "0x6060604052341561000f57600080fd5b60405160c080611c7883398101604052808051906020019091908051906020019091908051906020019091908051906020019091908051906020019091908051906020019091905050818310151561006657600080fd5b600073ffffffffffffffffffffffffffffffffffffffff168673ffffffffffffffffffffffffffffffffffffffff16141515156100a257600080fd5b600073ffffffffffffffffffffffffffffffffffffffff168573ffffffffffffffffffffffffffffffffffffffff16141515156100de57600080fd5b600073ffffffffffffffffffffffffffffffffffffffff168473ffffffffffffffffffffffffffffffffffffffff161415151561011a57600080fd5b600073ffffffffffffffffffffffffffffffffffffffff168173ffffffffffffffffffffffffffffffffffffffff161415151561015657600080fd5b856000806101000a81548173ffffffffffffffffffffffffffffffffffffffff021916908373ffffffffffffffffffffffffffffffffffffffff16021790555084600160006101000a81548173ffffffffffffffffffffffffffffffffffffffff021916908373ffffffffffffffffffffffffffffffffffffffff16021790555083600760006101000a81548173ffffffffffffffffffffffffffffffffffffffff021916908373ffffffffffffffffffffffffffffffffffffffff160217905550826005819055508160068190555080600260006101000a81548173ffffffffffffffffffffffffffffffffffffffff021916908373ffffffffffffffffffffffffffffffffffffffff1602179055505050505050506119fc8061027c6000396000f300606060405260043610610128576000357c0100000000000000000000000000000000000000000000000000000000900463ffffffff168063053e3169146101345780630992e4c31461015d5780630f560cd7146101b3578063361b94be146102085780634aa66b281461025557806358a687ec1461028c5780635c474f9e146102a15780635fbaa390146102ce57806361ef8d91146102fb57806362aac84d1461036157806371a18bfb146103865780639b8906ae146103d7578063a6f07a5c14610404578063b1f5618714610459578063b3bd870a14610463578063bc59d45a146104b0578063e00be2a9146104d9578063e58018c51461054a578063f088d54714610573578063f851a440146105b5578063faa5ca931461060a578063fc0c546a146106e6575b6101313361073b565b50005b341561013f57600080fd5b6101476109ff565b6040518082815260200191505060405180910390f35b341561016857600080fd5b61019d600480803573ffffffffffffffffffffffffffffffffffffffff16906020019091908035906020019091905050610a05565b6040518082815260200191505060405180910390f35b34156101be57600080fd5b6101c6610b6e565b604051808273ffffffffffffffffffffffffffffffffffffffff1673ffffffffffffffffffffffffffffffffffffffff16815260200191505060405180910390f35b341561021357600080fd5b61023f600480803573ffffffffffffffffffffffffffffffffffffffff16906020019091905050610b94565b6040518082815260200191505060405180910390f35b341561026057600080fd5b6102766004808035906020019091905050610c7d565b6040518082815260200191505060405180910390f35b341561029757600080fd5b61029f610cd4565b005b34156102ac57600080fd5b6102b4610ea9565b604051808215151515815260200191505060405180910390f35b34156102d957600080fd5b6102e1610eb6565b604051808215151515815260200191505060405180910390f35b341561030657600080fd5b61035f600480803590602001908201803590602001908080601f01602080910402602001604051908101604052809392919081815260200183838082843782019150505050505091908035906020019091905050610ec9565b005b341561036c57600080fd5b61038460048080351515906020019091905050610f98565b005b341561039157600080fd5b6103bd600480803573ffffffffffffffffffffffffffffffffffffffff16906020019091905050611010565b604051808215151515815260200191505060405180910390f35b34156103e257600080fd5b6103ea6112ae565b604051808215151515815260200191505060405180910390f35b341561040f57600080fd5b6104176112ba565b604051808273ffffffffffffffffffffffffffffffffffffffff1673ffffffffffffffffffffffffffffffffffffffff16815260200191505060405180910390f35b6104616112e0565b005b341561046e57600080fd5b61049a600480803573ffffffffffffffffffffffffffffffffffffffff169060200190919050506112fa565b6040518082815260200191505060405180910390f35b34156104bb57600080fd5b6104c3611312565b6040518082815260200191505060405180910390f35b34156104e457600080fd5b610534600480803590602001908201803590602001908080601f01602080910402602001604051908101604052809392919081815260200183838082843782019150505050505091905050611318565b6040518082815260200191505060405180910390f35b341561055557600080fd5b61055d61138d565b6040518082815260200191505060405180910390f35b61059f600480803573ffffffffffffffffffffffffffffffffffffffff1690602001909190505061073b565b6040518082815260200191505060405180910390f35b34156105c057600080fd5b6105c8611393565b604051808273ffffffffffffffffffffffffffffffffffffffff1673ffffffffffffffffffffffffffffffffffffffff16815260200191505060405180910390f35b341561061557600080fd5b6106d0600480803573ffffffffffffffffffffffffffffffffffffffff1690602001909190803590602001909190803590602001908201803590602001908080601f0160208091040260200160405190810160405280939291908181526020018383808284378201915050505050509190803590602001908201803590602001908080601f016020809104026020016040519081016040528093929190818152602001838380828437820191505050505050919050506113b8565b6040518082815260200191505060405180910390f35b34156106f157600080fd5b6106f961180a565b604051808273ffffffffffffffffffffffffffffffffffffffff1673ffffffffffffffffffffffffffffffffffffffff16815260200191505060405180910390f35b600080600080600080600460009054906101000a900460ff1615151561076057600080fd5b610768610ea9565b151561077357600080fd5b61077b6112ae565b15151561078757600080fd5b61079087610b94565b945061079c8734611830565b93503492506000851115156107b057600080fd5b6000841115156107bf57600080fd5b8434101515156107ce57600080fd5b8334111561082c578392503373ffffffffffffffffffffffffffffffffffffffff166108fc61080686346118de90919063ffffffff16565b9081150290604051600060405180830381858888f19350505050151561082b57600080fd5b5b610835836118f7565b61084a8360035461195c90919063ffffffff16565b600381905550610865614e208461197a90919063ffffffff16565b915061087082610c7d565b9050610885818361195c90919063ffffffff16565b9150600260009054906101000a900473ffffffffffffffffffffffffffffffffffffffff1673ffffffffffffffffffffffffffffffffffffffff1663a9059cbb88846000604051602001526040518363ffffffff167c0100000000000000000000000000000000000000000000000000000000028152600401808373ffffffffffffffffffffffffffffffffffffffff1673ffffffffffffffffffffffffffffffffffffffff16815260200182815260200192505050602060405180830381600087803b151561095457600080fd5b6102c65a03f1151561096557600080fd5b50505060405180519050151561097757fe5b7fbeae048c6d270d9469f86cf6e8fedda3c60ad770f16c24c9fc131c8e9a09101d87838584604051808573ffffffffffffffffffffffffffffffffffffffff1673ffffffffffffffffffffffffffffffffffffffff16815260200184815260200183815260200182815260200194505050505060405180910390a13495505050505050919050565b60055481565b6000806000600760009054906101000a900473ffffffffffffffffffffffffffffffffffffffff1673ffffffffffffffffffffffffffffffffffffffff166394a5601a866000604051602001526040518263ffffffff167c0100000000000000000000000000000000000000000000000000000000028152600401808273ffffffffffffffffffffffffffffffffffffffff1673ffffffffffffffffffffffffffffffffffffffff168152602001915050602060405180830381600087803b1515610acf57600080fd5b6102c65a03f11515610ae057600080fd5b5050506040518051905091506000821415610afe5760009250610b66565b610b50600860008773ffffffffffffffffffffffffffffffffffffffff1673ffffffffffffffffffffffffffffffffffffffff16815260200190815260200160002054836118de90919063ffffffff16565b905083811115610b6257839250610b66565b8092505b505092915050565b600760009054906101000a900473ffffffffffffffffffffffffffffffffffffffff1681565b6000600760009054906101000a900473ffffffffffffffffffffffffffffffffffffffff1673ffffffffffffffffffffffffffffffffffffffff166330184635836000604051602001526040518263ffffffff167c0100000000000000000000000000000000000000000000000000000000028152600401808273ffffffffffffffffffffffffffffffffffffffff1673ffffffffffffffffffffffffffffffffffffffff168152602001915050602060405180830381600087803b1515610c5b57600080fd5b6102c65a03f11515610c6c57600080fd5b505050604051805190509050919050565b600060055442118015610c9757506203f480600554014211155b15610cca57610cc36064610cb5600a8561197a90919063ffffffff16565b6119b590919063ffffffff16565b9050610ccf565b600090505b919050565b610cdc6112ae565b1515610ce757600080fd5b600260009054906101000a900473ffffffffffffffffffffffffffffffffffffffff1673ffffffffffffffffffffffffffffffffffffffff166342966c68600260009054906101000a900473ffffffffffffffffffffffffffffffffffffffff1673ffffffffffffffffffffffffffffffffffffffff166370a08231306000604051602001526040518263ffffffff167c0100000000000000000000000000000000000000000000000000000000028152600401808273ffffffffffffffffffffffffffffffffffffffff1673ffffffffffffffffffffffffffffffffffffffff168152602001915050602060405180830381600087803b1515610dea57600080fd5b6102c65a03f11515610dfb57600080fd5b505050604051805190506000604051602001526040518263ffffffff167c010000000000000000000000000000000000000000000000000000000002815260040180828152602001915050602060405180830381600087803b1515610e5f57600080fd5b6102c65a03f11515610e7057600080fd5b50505060405180519050507f49943394d1d9872d58364da1ca74d2b7af3f9be1146ac3c37513b0b1cb97ae2b60405160405180910390a1565b6000600554421015905090565b600460009054906101000a900460ff1681565b6000809054906101000a900473ffffffffffffffffffffffffffffffffffffffff1673ffffffffffffffffffffffffffffffffffffffff163373ffffffffffffffffffffffffffffffffffffffff16141515610f2457600080fd5b806009836040518082805190602001908083835b602083101515610f5d5780518252602082019150602081019050602083039250610f38565b6001836020036101000a0380198251168184511680821785525050505050509050019150509081526020016040518091039020819055505050565b6000809054906101000a900473ffffffffffffffffffffffffffffffffffffffff1673ffffffffffffffffffffffffffffffffffffffff163373ffffffffffffffffffffffffffffffffffffffff16141515610ff357600080fd5b80600460006101000a81548160ff02191690831515021790555050565b60008060009054906101000a900473ffffffffffffffffffffffffffffffffffffffff1673ffffffffffffffffffffffffffffffffffffffff163373ffffffffffffffffffffffffffffffffffffffff1614151561106d57600080fd5b6110756112ae565b151561108057600080fd5b60003073ffffffffffffffffffffffffffffffffffffffff163111156110c1576110c03073ffffffffffffffffffffffffffffffffffffffff16316118f7565b5b600073ffffffffffffffffffffffffffffffffffffffff168273ffffffffffffffffffffffffffffffffffffffff161415156112a5578173ffffffffffffffffffffffffffffffffffffffff1663a9059cbb600160009054906101000a900473ffffffffffffffffffffffffffffffffffffffff168473ffffffffffffffffffffffffffffffffffffffff166370a08231306000604051602001526040518263ffffffff167c0100000000000000000000000000000000000000000000000000000000028152600401808273ffffffffffffffffffffffffffffffffffffffff1673ffffffffffffffffffffffffffffffffffffffff168152602001915050602060405180830381600087803b15156111d957600080fd5b6102c65a03f115156111ea57600080fd5b505050604051805190506000604051602001526040518363ffffffff167c0100000000000000000000000000000000000000000000000000000000028152600401808373ffffffffffffffffffffffffffffffffffffffff1673ffffffffffffffffffffffffffffffffffffffff16815260200182815260200192505050602060405180830381600087803b151561128157600080fd5b6102c65a03f1151561129257600080fd5b5050506040518051905015156112a457fe5b5b60019050919050565b60006006544211905090565b600160009054906101000a900473ffffffffffffffffffffffffffffffffffffffff1681565b6000341115156112ef57600080fd5b6112f8346118f7565b565b60086020528060005260406000206000915090505481565b60035481565b60006009826040518082805190602001908083835b602083101515611352578051825260208201915060208101905060208303925061132d565b6001836020036101000a0380198251168184511680821785525050505050509050019150509081526020016040518091039020549050919050565b60065481565b6000809054906101000a900473ffffffffffffffffffffffffffffffffffffffff1681565b6000806000806000806000806000809054906101000a900473ffffffffffffffffffffffffffffffffffffffff1673ffffffffffffffffffffffffffffffffffffffff163373ffffffffffffffffffffffffffffffffffffffff1614151561141f57600080fd5b600460009054906101000a900460ff1615151561143b57600080fd5b611443610ea9565b151561144e57600080fd5b6114566112ae565b15151561146257600080fd5b8a61146c8b611318565b0296506114788c610b94565b95506114848c88611830565b945060008711151561149557600080fd5b8693506000861115156114a757600080fd5b6000851115156114b657600080fd5b8587101515156114c557600080fd5b848711156115ce5784935061156060098b6040518082805190602001908083835b60208310151561150b57805182526020820191506020810190506020830392506114e6565b6001836020036101000a038019825116818451168082178552505050505050905001915050908152602001604051809103902054611552878a6118de90919063ffffffff16565b6119b590919063ffffffff16565b92507fa5b86bc27c7e66ec8dcbef387507a53c7512ecf23c9c6bf284fbe8a1b0ccf8f98c84604051808373ffffffffffffffffffffffffffffffffffffffff1673ffffffffffffffffffffffffffffffffffffffff1681526020018281526020019250505060405180910390a15b6115e38460035461195c90919063ffffffff16565b6003819055506115fe614e208561197a90919063ffffffff16565b915061160982610c7d565b905061161e818361195c90919063ffffffff16565b9150600260009054906101000a900473ffffffffffffffffffffffffffffffffffffffff1673ffffffffffffffffffffffffffffffffffffffff1663a9059cbb8d846000604051602001526040518363ffffffff167c0100000000000000000000000000000000000000000000000000000000028152600401808373ffffffffffffffffffffffffffffffffffffffff1673ffffffffffffffffffffffffffffffffffffffff16815260200182815260200192505050602060405180830381600087803b15156116ed57600080fd5b6102c65a03f115156116fe57600080fd5b50505060405180519050151561171057fe5b7ff25d3860625e04323372db6e6d9c615084035d7493695cb9571d947e5d3ebcb88c8386848d604051808673ffffffffffffffffffffffffffffffffffffffff1673ffffffffffffffffffffffffffffffffffffffff16815260200185815260200184815260200183815260200180602001828103825283818151815260200191508051906020019080838360005b838110156117ba57808201518184015260208101905061179f565b50505050905090810190601f1680156117e75780820380516001836020036101000a031916815260200191505b50965050505050505060405180910390a183975050505050505050949350505050565b600260009054906101000a900473ffffffffffffffffffffffffffffffffffffffff1681565b60008061183d8484610a05565b905061189181600860008773ffffffffffffffffffffffffffffffffffffffff1673ffffffffffffffffffffffffffffffffffffffff1681526020019081526020016000205461195c90919063ffffffff16565b600860008673ffffffffffffffffffffffffffffffffffffffff1673ffffffffffffffffffffffffffffffffffffffff168152602001908152602001600020819055508091505092915050565b60008282111515156118ec57fe5b818303905092915050565b600160009054906101000a900473ffffffffffffffffffffffffffffffffffffffff1673ffffffffffffffffffffffffffffffffffffffff166108fc829081150290604051600060405180830381858888f19350505050151561195957600080fd5b50565b600080828401905083811015151561197057fe5b8091505092915050565b600080600084141561198f57600091506119ae565b82840290508284828115156119a057fe5b041415156119aa57fe5b8091505b5092915050565b60008082848115156119c357fe5b04905080915050929150505600a165627a7a72305820d8a08fe2f21f5089af06a542283f551189e36aff1f642405fb365d9e821368770029",
  "source": "pragma solidity ^0.4.19;\n\nimport './BigbomToken.sol';\nimport './zeppelin/ownership/Ownable.sol';\nimport './BigbomContributorWhiteList.sol';\nimport './BigbomPrivateSaleList.sol';\nimport './zeppelin/math/SafeMath.sol';\n\ncontract BigbomTokenSecondSale{\n    address             public admin;\n    address             public bigbomMultiSigWallet;\n    BigbomToken         public token;\n    uint                public raisedWei;\n    bool                public haltSale;\n    uint                public openSaleStartTime;\n    uint                public openSaleEndTime;\n    \n\n    BigbomContributorWhiteList public list;\n\n    mapping(address=>uint)    public participated;\n    //mapping(string=>uint)    public depositTx;\n    mapping(string=>uint)     erc20Rate;\n\n    using SafeMath for uint;\n\n    function BigbomTokenSecondSale( address _admin,\n                              address _bigbomMultiSigWallet,\n                              BigbomContributorWhiteList _whilteListContract,\n                              uint _publicSaleStartTime,\n                              uint _publicSaleEndTime,\n                              BigbomToken _token) public       \n    {\n        require (_publicSaleStartTime < _publicSaleEndTime);\n        require (_admin != address(0x0));\n        require (_bigbomMultiSigWallet != address(0x0));\n        require (_whilteListContract != address(0x0));\n        require (_token != address(0x0));\n\n        admin = _admin;\n        bigbomMultiSigWallet = _bigbomMultiSigWallet;\n        list = _whilteListContract;\n        openSaleStartTime = _publicSaleStartTime;\n        openSaleEndTime = _publicSaleEndTime;\n        token = _token;\n    }\n    \n    function saleEnded() public constant returns(bool) {\n        return now > openSaleEndTime;\n    }\n\n    function saleStarted() public constant returns(bool) {\n        return now >= openSaleStartTime;\n    }\n\n    function setHaltSale( bool halt ) public {\n        require( msg.sender == admin );\n        haltSale = halt;\n    }\n    // this is a seperate function so user could query it before crowdsale starts\n    function contributorMinCap( address contributor ) public constant returns(uint) {\n        return list.getMinCap( contributor );\n    }\n    function contributorMaxCap( address contributor, uint amountInWei ) public constant returns(uint) {\n        uint cap = list.getMaxCap( contributor );\n        if( cap == 0 ) return 0;\n        uint remainedCap = cap.sub( participated[ contributor ] );\n\n        if( remainedCap > amountInWei ) return amountInWei;\n        else return remainedCap;\n    }\n\n    function checkMaxCap( address contributor, uint amountInWei ) internal returns(uint) {\n        uint result = contributorMaxCap( contributor, amountInWei );\n        participated[contributor] = participated[contributor].add( result );\n        return result;\n    }\n\n    function() payable public {\n        buy( msg.sender );\n    }\n\n\n\n    function getBonus(uint _tokens) public view returns (uint){\n        if (now > openSaleStartTime && now <= (openSaleStartTime+3 days)){\n            return _tokens.mul(10).div(100);\n        }\n        else\n        {\n            return 0;\n        }\n    }\n\n    event Buy( address _buyer, uint _tokens, uint _payedWei, uint _bonus );\n    function buy( address recipient ) payable public returns(uint){\n        //require( tx.gasprice <= 50000000000 wei );\n\n        require( ! haltSale );\n        require( saleStarted() );\n        require( ! saleEnded() );\n\n        uint mincap = contributorMinCap(recipient);\n\n        uint maxcap = checkMaxCap(recipient, msg.value );\n        uint allowValue = msg.value;\n        require( mincap > 0 );\n        require( maxcap > 0 );\n        // fail if msg.value < mincap\n        require (msg.value >= mincap);\n        // send to msg.sender, not to recipient if value > maxcap\n        if( msg.value > maxcap  ) {\n            allowValue = maxcap;\n            //require (allowValue >= mincap);\n            msg.sender.transfer( msg.value.sub( maxcap ) );\n        }\n\n        // send payment to wallet\n        sendETHToMultiSig(allowValue);\n        raisedWei = raisedWei.add( allowValue );\n        // 1ETH = 20000 BBO\n        uint recievedTokens = allowValue.mul( 20000 );\n        // TODO bounce\n        uint bonus = getBonus(recievedTokens);\n        \n        recievedTokens = recievedTokens.add(bonus);\n        assert( token.transfer( recipient, recievedTokens ) );\n        //\n\n        Buy( recipient, recievedTokens, allowValue, bonus );\n\n        return msg.value;\n    }\n\n    function sendETHToMultiSig( uint value ) internal {\n        bigbomMultiSigWallet.transfer( value );\n    }\n\n    event FinalizeSale();\n    // function is callable by everyone\n    function finalizeSale() public {\n        require( saleEnded() );\n        //require( msg.sender == admin );\n\n        // burn remaining tokens\n        token.burn(token.balanceOf(this));\n\n        FinalizeSale();\n    }\n\n    // ETH balance is always expected to be 0.\n    // but in case something went wrong, we use this function to extract the eth.\n    function emergencyDrain(ERC20 anyToken) public returns(bool){\n        require( msg.sender == admin );\n        require( saleEnded() );\n\n        if( this.balance > 0 ) {\n            sendETHToMultiSig( this.balance );\n        }\n\n        if( anyToken != address(0x0) ) {\n            assert( anyToken.transfer(bigbomMultiSigWallet, anyToken.balanceOf(this)) );\n        }\n\n        return true;\n    }\n\n    // just to check that funds goes to the right place\n    // tokens are not given in return\n    function debugBuy() payable public {\n        require( msg.value > 0 );\n        sendETHToMultiSig( msg.value );\n    }\n\n    function getErc20Rate(string erc20Name) public constant returns(uint){\n        return erc20Rate[erc20Name];\n    }\n\n    function setErc20Rate(string erc20Name, uint rate) public{\n        require (msg.sender == admin);\n        erc20Rate[erc20Name] = rate;\n    }\n\n    event Erc20Buy( address _buyer, uint _tokens, uint _payedWei, uint _bonus, string depositTx );\n\n    event Erc20Refund( address _buyer, uint _erc20RefundAmount );\n    function erc20Buy( address recipient, uint erc20Amount, string erc20Name, string depositTx )  public returns(uint){\n        require (msg.sender == admin);\n        //require( tx.gasprice <= 50000000000 wei );\n\n        require( ! haltSale );\n        require( saleStarted() );\n        require( ! saleEnded() );\n        uint ethAmount = getErc20Rate(erc20Name) * erc20Amount;\n        uint mincap = contributorMinCap(recipient);\n\n        uint maxcap = checkMaxCap(recipient, ethAmount );\n        \n        require (ethAmount > 0);\n        uint allowValue = ethAmount;\n        require( mincap > 0 );\n        require( maxcap > 0 );\n        // fail if msg.value < mincap\n        require (ethAmount >= mincap);\n        // send to msg.sender, not to recipient if value > maxcap\n        if( ethAmount > maxcap  ) {\n            allowValue = maxcap;\n            //require (allowValue >= mincap);\n            // send event refund\n            // msg.sender.transfer( ethAmount.sub( maxcap ) );\n            uint erc20RefundAmount = ethAmount.sub( maxcap ).div(erc20Rate[erc20Name]);\n            Erc20Refund(recipient, erc20RefundAmount);\n        }\n\n        raisedWei = raisedWei.add( allowValue );\n        // 1ETH = 20000 BBO\n        uint recievedTokens = allowValue.mul( 20000 );\n        // TODO bounce\n        uint bonus = getBonus(recievedTokens);\n        \n        recievedTokens = recievedTokens.add(bonus);\n        assert( token.transfer( recipient, recievedTokens ) );\n        //\n\n        Erc20Buy( recipient, recievedTokens, allowValue, bonus, depositTx);\n\n        return allowValue;\n    }\n\n}\n",
  "sourcePath": "/Users/applepen/Documents/git/bigbom/BigBomTokenSale/contracts/BigbomTokenSecondSale.sol",
  "compiler": {
    "name": "solc",
    "version": "0.4.19+commit.c4cbbb05.Emscripten.clang"
  },
  "schemaVersion": "2.0.0",
  "updatedAt": "2018-04-23T06:41:01.706Z"
}