{
  "contractName": "BigbomPrivateSaleList",
  "abi": [
    {
      "constant": true,
      "inputs": [],
      "name": "owner",
      "outputs": [
        {
          "name": "",
          "type": "address"
        }
      ],
      "payable": false,
      "stateMutability": "view",
      "type": "function"
    },
    {
      "constant": false,
      "inputs": [
        {
          "name": "newOwner",
          "type": "address"
        }
      ],
      "name": "transferOwnership",
      "outputs": [],
      "payable": false,
      "stateMutability": "nonpayable",
      "type": "function"
    },
    {
      "constant": true,
      "inputs": [
        {
          "name": "",
          "type": "address"
        }
      ],
      "name": "addressCap",
      "outputs": [
        {
          "name": "",
          "type": "uint256"
        }
      ],
      "payable": false,
      "stateMutability": "view",
      "type": "function"
    },
    {
      "inputs": [],
      "payable": false,
      "stateMutability": "nonpayable",
      "type": "constructor"
    },
    {
      "anonymous": false,
      "inputs": [
        {
          "indexed": false,
          "name": "_user",
          "type": "address"
        },
        {
          "indexed": false,
          "name": "_amount",
          "type": "uint256"
        },
        {
          "indexed": false,
          "name": "_time",
          "type": "uint256"
        }
      ],
      "name": "ListAddress",
      "type": "event"
    },
    {
      "constant": false,
      "inputs": [
        {
          "name": "_user",
          "type": "address"
        },
        {
          "name": "_amount",
          "type": "uint256"
        }
      ],
      "name": "listAddress",
      "outputs": [],
      "payable": false,
      "stateMutability": "nonpayable",
      "type": "function"
    },
    {
      "constant": false,
      "inputs": [
        {
          "name": "_users",
          "type": "address[]"
        },
        {
          "name": "_amount",
          "type": "uint256[]"
        }
      ],
      "name": "listAddresses",
      "outputs": [],
      "payable": false,
      "stateMutability": "nonpayable",
      "type": "function"
    },
    {
      "constant": true,
      "inputs": [
        {
          "name": "_user",
          "type": "address"
        }
      ],
      "name": "getCap",
      "outputs": [
        {
          "name": "",
          "type": "uint256"
        }
      ],
      "payable": false,
      "stateMutability": "view",
      "type": "function"
    }
  ],
  "bytecode": "0x6060604052341561000f57600080fd5b336000806101000a81548173ffffffffffffffffffffffffffffffffffffffff021916908373ffffffffffffffffffffffffffffffffffffffff16021790555061061f8061005e6000396000f300606060405260043610610078576000357c0100000000000000000000000000000000000000000000000000000000900463ffffffff16806347d3def91461007d5780638da5cb5b146100bf578063af7b2eb714610114578063b3aefb75146101ae578063f2fde38b146101fb578063fc87c76614610234575b600080fd5b341561008857600080fd5b6100bd600480803573ffffffffffffffffffffffffffffffffffffffff16906020019091908035906020019091905050610281565b005b34156100ca57600080fd5b6100d26103d3565b604051808273ffffffffffffffffffffffffffffffffffffffff1673ffffffffffffffffffffffffffffffffffffffff16815260200191505060405180910390f35b341561011f57600080fd5b6101ac600480803590602001908201803590602001908080602002602001604051908101604052809392919081815260200183836020028082843782019150505050505091908035906020019082018035906020019080806020026020016040519081016040528093929190818152602001838360200280828437820191505050505050919050506103f8565b005b34156101b957600080fd5b6101e5600480803573ffffffffffffffffffffffffffffffffffffffff169060200190919050506104bd565b6040518082815260200191505060405180910390f35b341561020657600080fd5b610232600480803573ffffffffffffffffffffffffffffffffffffffff16906020019091905050610506565b005b341561023f57600080fd5b61026b600480803573ffffffffffffffffffffffffffffffffffffffff169060200190919050506105db565b6040518082815260200191505060405180910390f35b6000809054906101000a900473ffffffffffffffffffffffffffffffffffffffff1673ffffffffffffffffffffffffffffffffffffffff163373ffffffffffffffffffffffffffffffffffffffff161415156102dc57600080fd5b600073ffffffffffffffffffffffffffffffffffffffff168273ffffffffffffffffffffffffffffffffffffffff161415151561031857600080fd5b80600160008473ffffffffffffffffffffffffffffffffffffffff1673ffffffffffffffffffffffffffffffffffffffff168152602001908152602001600020819055507f050a17b796524934d80b5e8a2a3ed1462eb1964cfbd6ad62be43290b16a8023d828242604051808473ffffffffffffffffffffffffffffffffffffffff1673ffffffffffffffffffffffffffffffffffffffff168152602001838152602001828152602001935050505060405180910390a15050565b6000809054906101000a900473ffffffffffffffffffffffffffffffffffffffff1681565b60008060009054906101000a900473ffffffffffffffffffffffffffffffffffffffff1673ffffffffffffffffffffffffffffffffffffffff163373ffffffffffffffffffffffffffffffffffffffff1614151561045557600080fd5b8151835114151561046557600080fd5b600090505b82518110156104b8576104ab838281518110151561048457fe5b90602001906020020151838381518110151561049c57fe5b90602001906020020151610281565b808060010191505061046a565b505050565b6000600160008373ffffffffffffffffffffffffffffffffffffffff1673ffffffffffffffffffffffffffffffffffffffff168152602001908152602001600020549050919050565b6000809054906101000a900473ffffffffffffffffffffffffffffffffffffffff1673ffffffffffffffffffffffffffffffffffffffff163373ffffffffffffffffffffffffffffffffffffffff1614151561056157600080fd5b600073ffffffffffffffffffffffffffffffffffffffff168173ffffffffffffffffffffffffffffffffffffffff161415156105d857806000806101000a81548173ffffffffffffffffffffffffffffffffffffffff021916908373ffffffffffffffffffffffffffffffffffffffff1602179055505b50565b600160205280600052604060002060009150905054815600a165627a7a723058204fd42d453106df8c3eb2801409624134d35cac69f9b95ad6e054c303e7586f040029",
  "source": "pragma solidity ^0.4.19;\n\nimport './zeppelin/ownership/Ownable.sol';\n\ncontract BigbomPrivateSaleList is Ownable {\n    mapping(address=>uint) public addressCap;\n\n    function BigbomPrivateSaleList() public  {}\n\n    event ListAddress( address _user, uint _amount, uint _time );\n\n    // Owner can delist by setting amount = 0.\n    // Onwer can also change it at any time\n    function listAddress( address _user, uint _amount ) public onlyOwner {\n        require(_user != address(0x0));\n\n        addressCap[_user] = _amount;\n        ListAddress( _user, _amount, now );\n    }\n\n    // an optimization in case of network congestion\n    function listAddresses( address[] _users, uint[] _amount ) public onlyOwner {\n        require(_users.length == _amount.length );\n        for( uint i = 0 ; i < _users.length ; i++ ) {\n            listAddress( _users[i], _amount[i] );\n        }\n    }\n\n    function getCap( address _user ) public constant returns(uint) {\n        return addressCap[_user];\n    }\n\n}\n",
  "sourcePath": "/Users/yena/Documents/tuongnguyen/BigBomTokenSale/contracts/BigbomPrivateSaleList.sol",
  "compiler": {
    "name": "solc",
    "version": "0.4.19+commit.c4cbbb05.Emscripten.clang"
  },
  "schemaVersion": "2.0.0",
  "updatedAt": "2018-05-21T16:57:45.037Z"
}