{
  "contractName": "BigbomTokenSale",
  "abi": [
    {
      "constant": true,
      "inputs": [],
      "name": "openSaleStartTime",
      "outputs": [
        {
          "name": "",
          "type": "uint256"
        }
      ],
      "payable": false,
      "stateMutability": "view",
      "type": "function"
    },
    {
      "constant": true,
      "inputs": [],
      "name": "list",
      "outputs": [
        {
          "name": "",
          "type": "address"
        }
      ],
      "payable": false,
      "stateMutability": "view",
      "type": "function"
    },
    {
      "constant": true,
      "inputs": [],
      "name": "haltSale",
      "outputs": [
        {
          "name": "",
          "type": "bool"
        }
      ],
      "payable": false,
      "stateMutability": "view",
      "type": "function"
    },
    {
      "constant": true,
      "inputs": [],
      "name": "bigbomMultiSigWallet",
      "outputs": [
        {
          "name": "",
          "type": "address"
        }
      ],
      "payable": false,
      "stateMutability": "view",
      "type": "function"
    },
    {
      "constant": true,
      "inputs": [],
      "name": "raisedWei",
      "outputs": [
        {
          "name": "",
          "type": "uint256"
        }
      ],
      "payable": false,
      "stateMutability": "view",
      "type": "function"
    },
    {
      "constant": true,
      "inputs": [
        {
          "name": "",
          "type": "bytes32"
        }
      ],
      "name": "proxyPurchases",
      "outputs": [
        {
          "name": "",
          "type": "uint256"
        }
      ],
      "payable": false,
      "stateMutability": "view",
      "type": "function"
    },
    {
      "constant": true,
      "inputs": [],
      "name": "openSaleEndTime",
      "outputs": [
        {
          "name": "",
          "type": "uint256"
        }
      ],
      "payable": false,
      "stateMutability": "view",
      "type": "function"
    },
    {
      "constant": true,
      "inputs": [],
      "name": "admin",
      "outputs": [
        {
          "name": "",
          "type": "address"
        }
      ],
      "payable": false,
      "stateMutability": "view",
      "type": "function"
    },
    {
      "constant": true,
      "inputs": [],
      "name": "token",
      "outputs": [
        {
          "name": "",
          "type": "address"
        }
      ],
      "payable": false,
      "stateMutability": "view",
      "type": "function"
    },
    {
      "inputs": [
        {
          "name": "_admin",
          "type": "address"
        },
        {
          "name": "_bigbomMultiSigWallet",
          "type": "address"
        },
        {
          "name": "_whilteListContract",
          "type": "address"
        },
        {
          "name": "_premintedTokenSupply",
          "type": "uint256"
        },
        {
          "name": "_publicSaleStartTime",
          "type": "uint256"
        },
        {
          "name": "_publicSaleEndTime",
          "type": "uint256"
        },
        {
          "name": "_founderAmount",
          "type": "uint256"
        },
        {
          "name": "_coreStaffAmount",
          "type": "uint256"
        },
        {
          "name": "_advisorAmount",
          "type": "uint256"
        },
        {
          "name": "_reserveAmount",
          "type": "uint256"
        },
        {
          "name": "_bountyAmount",
          "type": "uint256"
        }
      ],
      "payable": false,
      "stateMutability": "nonpayable",
      "type": "constructor"
    },
    {
      "payable": true,
      "stateMutability": "payable",
      "type": "fallback"
    },
    {
      "anonymous": false,
      "inputs": [
        {
          "indexed": true,
          "name": "_proxy",
          "type": "bytes32"
        },
        {
          "indexed": false,
          "name": "_recipient",
          "type": "address"
        },
        {
          "indexed": false,
          "name": "_amountInWei",
          "type": "uint256"
        }
      ],
      "name": "ProxyBuy",
      "type": "event"
    },
    {
      "anonymous": false,
      "inputs": [
        {
          "indexed": false,
          "name": "_buyer",
          "type": "address"
        },
        {
          "indexed": false,
          "name": "_tokens",
          "type": "uint256"
        },
        {
          "indexed": false,
          "name": "_payedWei",
          "type": "uint256"
        },
        {
          "indexed": false,
          "name": "_bonus",
          "type": "uint256"
        }
      ],
      "name": "Buy",
      "type": "event"
    },
    {
      "anonymous": false,
      "inputs": [],
      "name": "FinalizeSale",
      "type": "event"
    },
    {
      "constant": true,
      "inputs": [],
      "name": "saleEnded",
      "outputs": [
        {
          "name": "",
          "type": "bool"
        }
      ],
      "payable": false,
      "stateMutability": "view",
      "type": "function"
    },
    {
      "constant": true,
      "inputs": [],
      "name": "saleStarted",
      "outputs": [
        {
          "name": "",
          "type": "bool"
        }
      ],
      "payable": false,
      "stateMutability": "view",
      "type": "function"
    },
    {
      "constant": false,
      "inputs": [
        {
          "name": "halt",
          "type": "bool"
        }
      ],
      "name": "setHaltSale",
      "outputs": [],
      "payable": false,
      "stateMutability": "nonpayable",
      "type": "function"
    },
    {
      "constant": true,
      "inputs": [
        {
          "name": "contributor",
          "type": "address"
        }
      ],
      "name": "contributorCap",
      "outputs": [
        {
          "name": "",
          "type": "uint256"
        }
      ],
      "payable": false,
      "stateMutability": "view",
      "type": "function"
    },
    {
      "constant": false,
      "inputs": [
        {
          "name": "proxy",
          "type": "bytes32"
        },
        {
          "name": "recipient",
          "type": "address"
        }
      ],
      "name": "proxyBuy",
      "outputs": [
        {
          "name": "",
          "type": "uint256"
        }
      ],
      "payable": true,
      "stateMutability": "payable",
      "type": "function"
    },
    {
      "constant": false,
      "inputs": [
        {
          "name": "_tokens",
          "type": "uint256"
        }
      ],
      "name": "getBonus",
      "outputs": [
        {
          "name": "",
          "type": "uint256"
        }
      ],
      "payable": false,
      "stateMutability": "nonpayable",
      "type": "function"
    },
    {
      "constant": false,
      "inputs": [
        {
          "name": "recipient",
          "type": "address"
        }
      ],
      "name": "buy",
      "outputs": [
        {
          "name": "",
          "type": "uint256"
        }
      ],
      "payable": true,
      "stateMutability": "payable",
      "type": "function"
    },
    {
      "constant": false,
      "inputs": [],
      "name": "finalizeSale",
      "outputs": [],
      "payable": false,
      "stateMutability": "nonpayable",
      "type": "function"
    },
    {
      "constant": false,
      "inputs": [
        {
          "name": "anyToken",
          "type": "address"
        }
      ],
      "name": "emergencyDrain",
      "outputs": [
        {
          "name": "",
          "type": "bool"
        }
      ],
      "payable": false,
      "stateMutability": "nonpayable",
      "type": "function"
    },
    {
      "constant": false,
      "inputs": [],
      "name": "debugBuy",
      "outputs": [],
      "payable": true,
      "stateMutability": "payable",
      "type": "function"
    }
  ],
  "bytecode": "0x6060604052341561000f57600080fd5b60405161016080620035b6833981016040528080519060200190919080519060200190919080519060200190919080519060200190919080519060200190919080519060200190919080519060200190919080519060200190919080519060200190919080519060200190919080519060200190919050508a6000806101000a81548173ffffffffffffffffffffffffffffffffffffffff021916908373ffffffffffffffffffffffffffffffffffffffff16021790555089600160006101000a81548173ffffffffffffffffffffffffffffffffffffffff021916908373ffffffffffffffffffffffffffffffffffffffff16021790555088600760006101000a81548173ffffffffffffffffffffffffffffffffffffffff021916908373ffffffffffffffffffffffffffffffffffffffff1602179055508662093a8087018c878787878761015e610435565b808981526020018881526020018773ffffffffffffffffffffffffffffffffffffffff1673ffffffffffffffffffffffffffffffffffffffff16815260200186815260200185815260200184815260200183815260200182815260200198505050505050505050604051809103906000f08015156101db57600080fd5b600260006101000a81548173ffffffffffffffffffffffffffffffffffffffff021916908373ffffffffffffffffffffffffffffffffffffffff160217905550600260009054906101000a900473ffffffffffffffffffffffffffffffffffffffff1673ffffffffffffffffffffffffffffffffffffffff1663a9059cbb600160009054906101000a900473ffffffffffffffffffffffffffffffffffffffff168a6000604051602001526040518363ffffffff167c0100000000000000000000000000000000000000000000000000000000028152600401808373ffffffffffffffffffffffffffffffffffffffff1673ffffffffffffffffffffffffffffffffffffffff16815260200182815260200192505050602060405180830381600087803b151561030a57600080fd5b6102c65a03f1151561031b57600080fd5b5050506040518051905050600260009054906101000a900473ffffffffffffffffffffffffffffffffffffffff1673ffffffffffffffffffffffffffffffffffffffff1663e724529c600160009054906101000a900473ffffffffffffffffffffffffffffffffffffffff1660016040518363ffffffff167c0100000000000000000000000000000000000000000000000000000000028152600401808373ffffffffffffffffffffffffffffffffffffffff1673ffffffffffffffffffffffffffffffffffffffff1681526020018215151515815260200192505050600060405180830381600087803b151561041157600080fd5b6102c65a03f1151561042257600080fd5b5050505050505050505050505050610446565b604051611e48806200176e83390190565b61131880620004566000396000f300606060405260043610610107576000357c0100000000000000000000000000000000000000000000000000000000900463ffffffff168063053e3169146101135780630f560cd71461013c578063442085b2146101915780634aa66b28146101de57806358a687ec146102155780635c474f9e1461022a5780635fbaa3901461025757806362aac84d1461028457806371a18bfb146102a95780639b8906ae146102fa578063a6f07a5c14610327578063adfceb9a1461037c578063b1f56187146103cb578063bc59d45a146103d5578063d2fa1f8b146103fe578063e58018c514610439578063f088d54714610462578063f851a440146104a4578063fc0c546a146104f9575b6101103361054e565b50005b341561011e57600080fd5b610126610810565b6040518082815260200191505060405180910390f35b341561014757600080fd5b61014f610816565b604051808273ffffffffffffffffffffffffffffffffffffffff1673ffffffffffffffffffffffffffffffffffffffff16815260200191505060405180910390f35b341561019c57600080fd5b6101c8600480803573ffffffffffffffffffffffffffffffffffffffff1690602001909190505061083c565b6040518082815260200191505060405180910390f35b34156101e957600080fd5b6101ff6004808035906020019091905050610925565b6040518082815260200191505060405180910390f35b341561022057600080fd5b610228610b0c565b005b341561023557600080fd5b61023d610d3c565b604051808215151515815260200191505060405180910390f35b341561026257600080fd5b61026a610d49565b604051808215151515815260200191505060405180910390f35b341561028f57600080fd5b6102a760048080351515906020019091905050610d5c565b005b34156102b457600080fd5b6102e0600480803573ffffffffffffffffffffffffffffffffffffffff16906020019091905050610dd4565b604051808215151515815260200191505060405180910390f35b341561030557600080fd5b61030d611072565b604051808215151515815260200191505060405180910390f35b341561033257600080fd5b61033a61107e565b604051808273ffffffffffffffffffffffffffffffffffffffff1673ffffffffffffffffffffffffffffffffffffffff16815260200191505060405180910390f35b6103b560048080356000191690602001909190803573ffffffffffffffffffffffffffffffffffffffff169060200190919050506110a4565b6040518082815260200191505060405180910390f35b6103d3611179565b005b34156103e057600080fd5b6103e8611193565b6040518082815260200191505060405180910390f35b341561040957600080fd5b610423600480803560001916906020019091905050611199565b6040518082815260200191505060405180910390f35b341561044457600080fd5b61044c6111b1565b6040518082815260200191505060405180910390f35b61048e600480803573ffffffffffffffffffffffffffffffffffffffff1690602001909190505061054e565b6040518082815260200191505060405180910390f35b34156104af57600080fd5b6104b76111b7565b604051808273ffffffffffffffffffffffffffffffffffffffff1673ffffffffffffffffffffffffffffffffffffffff16815260200191505060405180910390f35b341561050457600080fd5b61050c6111dc565b604051808273ffffffffffffffffffffffffffffffffffffffff1673ffffffffffffffffffffffffffffffffffffffff16815260200191505060405180910390f35b600080600080640ba43b74003a1115151561056857600080fd5b600460009054906101000a900460ff1615151561058457600080fd5b61058c610d3c565b151561059757600080fd5b61059f611072565b1515156105ab57600080fd5b6105b48561083c565b92506000831115156105c557600080fd5b8234101515156105d457600080fd5b6729a2241af62c000034111561063f573373ffffffffffffffffffffffffffffffffffffffff166108fc6106196729a2241af62c00003461120290919063ffffffff16565b9081150290604051600060405180830381858888f19350505050151561063e57600080fd5b5b6106483461121b565b61065d3460035461128090919063ffffffff16565b6003819055506106786109c43461129e90919063ffffffff16565b915061068382610925565b9050610698818361128090919063ffffffff16565b9150600260009054906101000a900473ffffffffffffffffffffffffffffffffffffffff1673ffffffffffffffffffffffffffffffffffffffff1663a9059cbb86846000604051602001526040518363ffffffff167c0100000000000000000000000000000000000000000000000000000000028152600401808373ffffffffffffffffffffffffffffffffffffffff1673ffffffffffffffffffffffffffffffffffffffff16815260200182815260200192505050602060405180830381600087803b151561076757600080fd5b6102c65a03f1151561077857600080fd5b50505060405180519050151561078a57fe5b7fbeae048c6d270d9469f86cf6e8fedda3c60ad770f16c24c9fc131c8e9a09101d85833484604051808573ffffffffffffffffffffffffffffffffffffffff1673ffffffffffffffffffffffffffffffffffffffff16815260200184815260200183815260200182815260200194505050505060405180910390a1349350505050919050565b60055481565b600760009054906101000a900473ffffffffffffffffffffffffffffffffffffffff1681565b6000600760009054906101000a900473ffffffffffffffffffffffffffffffffffffffff1673ffffffffffffffffffffffffffffffffffffffff1663b3aefb75836000604051602001526040518263ffffffff167c0100000000000000000000000000000000000000000000000000000000028152600401808273ffffffffffffffffffffffffffffffffffffffff1673ffffffffffffffffffffffffffffffffffffffff168152602001915050602060405180830381600087803b151561090357600080fd5b6102c65a03f1151561091457600080fd5b505050604051805190509050919050565b60006005544211801561093f57506203f480600554014211155b156109725761096b606461095d603c8561129e90919063ffffffff16565b6112d190919063ffffffff16565b9050610b07565b6203f480600554014211801561098f575062151800600554014211155b156109c2576109bb60646109ad60198561129e90919063ffffffff16565b6112d190919063ffffffff16565b9050610b07565b6215180060055401421180156109df575062239880600554014211155b15610a1257610a0b60646109fd600f8561129e90919063ffffffff16565b6112d190919063ffffffff16565b9050610b07565b622398806005540142118015610a2f57506230c780600554014211155b15610a6257610a5b6064610a4d600a8561129e90919063ffffffff16565b6112d190919063ffffffff16565b9050610b07565b6230c7806005540142118015610a7f5750623df680600554014211155b15610ab257610aab6064610a9d60058561129e90919063ffffffff16565b6112d190919063ffffffff16565b9050610b07565b623df6806005540142118015610acf575062448e00600554014211155b15610b0257610afb6064610aed60038561129e90919063ffffffff16565b6112d190919063ffffffff16565b9050610b07565b600090505b919050565b610b14611072565b1515610b1f57600080fd5b6000809054906101000a900473ffffffffffffffffffffffffffffffffffffffff1673ffffffffffffffffffffffffffffffffffffffff163373ffffffffffffffffffffffffffffffffffffffff16141515610b7a57600080fd5b600260009054906101000a900473ffffffffffffffffffffffffffffffffffffffff1673ffffffffffffffffffffffffffffffffffffffff166342966c68600260009054906101000a900473ffffffffffffffffffffffffffffffffffffffff1673ffffffffffffffffffffffffffffffffffffffff166370a08231306000604051602001526040518263ffffffff167c0100000000000000000000000000000000000000000000000000000000028152600401808273ffffffffffffffffffffffffffffffffffffffff1673ffffffffffffffffffffffffffffffffffffffff168152602001915050602060405180830381600087803b1515610c7d57600080fd5b6102c65a03f11515610c8e57600080fd5b505050604051805190506000604051602001526040518263ffffffff167c010000000000000000000000000000000000000000000000000000000002815260040180828152602001915050602060405180830381600087803b1515610cf257600080fd5b6102c65a03f11515610d0357600080fd5b50505060405180519050507f49943394d1d9872d58364da1ca74d2b7af3f9be1146ac3c37513b0b1cb97ae2b60405160405180910390a1565b6000600554421015905090565b600460009054906101000a900460ff1681565b6000809054906101000a900473ffffffffffffffffffffffffffffffffffffffff1673ffffffffffffffffffffffffffffffffffffffff163373ffffffffffffffffffffffffffffffffffffffff16141515610db757600080fd5b80600460006101000a81548160ff02191690831515021790555050565b60008060009054906101000a900473ffffffffffffffffffffffffffffffffffffffff1673ffffffffffffffffffffffffffffffffffffffff163373ffffffffffffffffffffffffffffffffffffffff16141515610e3157600080fd5b610e39611072565b1515610e4457600080fd5b60003073ffffffffffffffffffffffffffffffffffffffff16311115610e8557610e843073ffffffffffffffffffffffffffffffffffffffff163161121b565b5b600073ffffffffffffffffffffffffffffffffffffffff168273ffffffffffffffffffffffffffffffffffffffff16141515611069578173ffffffffffffffffffffffffffffffffffffffff1663a9059cbb600160009054906101000a900473ffffffffffffffffffffffffffffffffffffffff168473ffffffffffffffffffffffffffffffffffffffff166370a08231306000604051602001526040518263ffffffff167c0100000000000000000000000000000000000000000000000000000000028152600401808273ffffffffffffffffffffffffffffffffffffffff1673ffffffffffffffffffffffffffffffffffffffff168152602001915050602060405180830381600087803b1515610f9d57600080fd5b6102c65a03f11515610fae57600080fd5b505050604051805190506000604051602001526040518363ffffffff167c0100000000000000000000000000000000000000000000000000000000028152600401808373ffffffffffffffffffffffffffffffffffffffff1673ffffffffffffffffffffffffffffffffffffffff16815260200182815260200192505050602060405180830381600087803b151561104557600080fd5b6102c65a03f1151561105657600080fd5b50505060405180519050151561106857fe5b5b60019050919050565b60006006544211905090565b600160009054906101000a900473ffffffffffffffffffffffffffffffffffffffff1681565b6000806110b08361054e565b90506110e0816008600087600019166000191681526020019081526020016000205461128090919063ffffffff16565b6008600086600019166000191681526020019081526020016000208190555083600019167f09b5e4ada20eb4159976b564984473a225172608d4205eeafdc663a0cea8d4848483604051808373ffffffffffffffffffffffffffffffffffffffff1673ffffffffffffffffffffffffffffffffffffffff1681526020018281526020019250505060405180910390a28091505092915050565b607b3414151561118857600080fd5b6111913461121b565b565b60035481565b60086020528060005260406000206000915090505481565b60065481565b6000809054906101000a900473ffffffffffffffffffffffffffffffffffffffff1681565b600260009054906101000a900473ffffffffffffffffffffffffffffffffffffffff1681565b600082821115151561121057fe5b818303905092915050565b600160009054906101000a900473ffffffffffffffffffffffffffffffffffffffff1673ffffffffffffffffffffffffffffffffffffffff166108fc829081150290604051600060405180830381858888f19350505050151561127d57600080fd5b50565b600080828401905083811015151561129457fe5b8091505092915050565b600080828402905060008414806112bf57508284828115156112bc57fe5b04145b15156112c757fe5b8091505092915050565b60008082848115156112df57fe5b04905080915050929150505600a165627a7a723058208bbf2b451e419d7540bbe0411e9c970fdba00f9ce7d2f3f4802f74f1defa8a3b002960606040526377359400600455341561001757600080fd5b60405161010080611e488339810160405280805190602001909190805190602001909190805190602001909190805190602001909190805190602001909190805190602001909190805190602001909190805190602001909190505033600360006101000a81548173ffffffffffffffffffffffffffffffffffffffff021916908373ffffffffffffffffffffffffffffffffffffffff160217905550600454600160003373ffffffffffffffffffffffffffffffffffffffff1673ffffffffffffffffffffffffffffffffffffffff168152602001908152602001600020819055503373ffffffffffffffffffffffffffffffffffffffff16600073ffffffffffffffffffffffffffffffffffffffff167fddf252ad1be2c89b69c2b068fc378daa952ba7f163c4a11628f55a4df523b3ef6004546040518082815260200191505060405180910390a3846005819055508360068190555082600781905550816008819055508060098190555087600a8190555086600b8190555033600c60006101000a81548173ffffffffffffffffffffffffffffffffffffffff021916908373ffffffffffffffffffffffffffffffffffffffff1602179055506101f0866101fd640100000000026115e0176401000000009004565b50505050505050506102d4565b600360009054906101000a900473ffffffffffffffffffffffffffffffffffffffff1673ffffffffffffffffffffffffffffffffffffffff163373ffffffffffffffffffffffffffffffffffffffff1614151561025957600080fd5b600073ffffffffffffffffffffffffffffffffffffffff168173ffffffffffffffffffffffffffffffffffffffff161415156102d15780600360006101000a81548173ffffffffffffffffffffffffffffffffffffffff021916908373ffffffffffffffffffffffffffffffffffffffff1602179055505b50565b611b65806102e36000396000f300606060405260043610610154576000357c0100000000000000000000000000000000000000000000000000000000900463ffffffff16806306fdde0314610159578063095ea7b3146101e757806318160ddd1461024157806318656a1e1461026a5780631cbaee2d1461029357806323b872dd146102bc578063278a368414610335578063313ce5671461035e5780634077aa141461038757806342966c68146103b05780634b09b72a146103eb5780635c28c7e0146104145780635d5aa2771461046957806370a08231146104be57806379cc67901461050b5780638da5cb5b1461056557806395d89b41146105ba578063a9059cbb14610648578063aa848ee2146106a2578063b414d4b6146106db578063ccd331bf1461072c578063db0e16f114610755578063dd62ed3e14610797578063e724529c14610803578063ed338ff114610847578063f2fde38b14610870575b600080fd5b341561016457600080fd5b61016c6108a9565b6040518080602001828103825283818151815260200191508051906020019080838360005b838110156101ac578082015181840152602081019050610191565b50505050905090810190601f1680156101d95780820380516001836020036101000a031916815260200191505b509250505060405180910390f35b34156101f257600080fd5b610227600480803573ffffffffffffffffffffffffffffffffffffffff169060200190919080359060200190919050506108e2565b604051808215151515815260200191505060405180910390f35b341561024c57600080fd5b610254610a69565b6040518082815260200191505060405180910390f35b341561027557600080fd5b61027d610a6f565b6040518082815260200191505060405180910390f35b341561029e57600080fd5b6102a6610a75565b6040518082815260200191505060405180910390f35b34156102c757600080fd5b61031b600480803573ffffffffffffffffffffffffffffffffffffffff1690602001909190803573ffffffffffffffffffffffffffffffffffffffff16906020019091908035906020019091905050610a7b565b604051808215151515815260200191505060405180910390f35b341561034057600080fd5b610348610cdb565b6040518082815260200191505060405180910390f35b341561036957600080fd5b610371610ce1565b6040518082815260200191505060405180910390f35b341561039257600080fd5b61039a610ce6565b6040518082815260200191505060405180910390f35b34156103bb57600080fd5b6103d16004808035906020019091905050610cec565b604051808215151515815260200191505060405180910390f35b34156103f657600080fd5b6103fe610ed1565b6040518082815260200191505060405180910390f35b341561041f57600080fd5b610427610ed7565b604051808273ffffffffffffffffffffffffffffffffffffffff1673ffffffffffffffffffffffffffffffffffffffff16815260200191505060405180910390f35b341561047457600080fd5b61047c610efd565b604051808273ffffffffffffffffffffffffffffffffffffffff1673ffffffffffffffffffffffffffffffffffffffff16815260200191505060405180910390f35b34156104c957600080fd5b6104f5600480803573ffffffffffffffffffffffffffffffffffffffff16906020019091905050610f23565b6040518082815260200191505060405180910390f35b341561051657600080fd5b61054b600480803573ffffffffffffffffffffffffffffffffffffffff16906020019091908035906020019091905050610f6c565b604051808215151515815260200191505060405180910390f35b341561057057600080fd5b610578611008565b604051808273ffffffffffffffffffffffffffffffffffffffff1673ffffffffffffffffffffffffffffffffffffffff16815260200191505060405180910390f35b34156105c557600080fd5b6105cd61102e565b6040518080602001828103825283818151815260200191508051906020019080838360005b8381101561060d5780820151818401526020810190506105f2565b50505050905090810190601f16801561063a5780820380516001836020036101000a031916815260200191505b509250505060405180910390f35b341561065357600080fd5b610688600480803573ffffffffffffffffffffffffffffffffffffffff16906020019091908035906020019091905050611067565b604051808215151515815260200191505060405180910390f35b34156106ad57600080fd5b6106d9600480803573ffffffffffffffffffffffffffffffffffffffff1690602001909190505061121e565b005b34156106e657600080fd5b610712600480803573ffffffffffffffffffffffffffffffffffffffff169060200190919050506112be565b604051808215151515815260200191505060405180910390f35b341561073757600080fd5b61073f6112de565b6040518082815260200191505060405180910390f35b341561076057600080fd5b610795600480803573ffffffffffffffffffffffffffffffffffffffff169060200190919080359060200190919050506112e4565b005b34156107a257600080fd5b6107ed600480803573ffffffffffffffffffffffffffffffffffffffff1690602001909190803573ffffffffffffffffffffffffffffffffffffffff1690602001909190505061142d565b6040518082815260200191505060405180910390f35b341561080e57600080fd5b610845600480803573ffffffffffffffffffffffffffffffffffffffff1690602001909190803515159060200190919050506114b4565b005b341561085257600080fd5b61085a6115da565b6040518082815260200191505060405180910390f35b341561087b57600080fd5b6108a7600480803573ffffffffffffffffffffffffffffffffffffffff169060200190919050506115e0565b005b6040805190810160405280600681526020017f426967626f6d000000000000000000000000000000000000000000000000000081525081565b60008082148061096e57506000600260003373ffffffffffffffffffffffffffffffffffffffff1673ffffffffffffffffffffffffffffffffffffffff16815260200190815260200160002060008573ffffffffffffffffffffffffffffffffffffffff1673ffffffffffffffffffffffffffffffffffffffff16815260200190815260200160002054145b151561097957600080fd5b81600260003373ffffffffffffffffffffffffffffffffffffffff1673ffffffffffffffffffffffffffffffffffffffff16815260200190815260200160002060008573ffffffffffffffffffffffffffffffffffffffff1673ffffffffffffffffffffffffffffffffffffffff168152602001908152602001600020819055508273ffffffffffffffffffffffffffffffffffffffff163373ffffffffffffffffffffffffffffffffffffffff167f8c5be1e5ebec7d5bd14f71427d1e84f3dd0314c0f7b2291e5b200ac8c7c3b925846040518082815260200191505060405180910390a36001905092915050565b60045481565b60055481565b600a5481565b6000600b544211158015610a915750600a544210155b15610af357600c60009054906101000a900473ffffffffffffffffffffffffffffffffffffffff1673ffffffffffffffffffffffffffffffffffffffff163373ffffffffffffffffffffffffffffffffffffffff16141515610af257600080fd5b5b82600073ffffffffffffffffffffffffffffffffffffffff168173ffffffffffffffffffffffffffffffffffffffff1614151515610b3057600080fd5b3073ffffffffffffffffffffffffffffffffffffffff168173ffffffffffffffffffffffffffffffffffffffff1614151515610b6b57600080fd5b600e60008273ffffffffffffffffffffffffffffffffffffffff1673ffffffffffffffffffffffffffffffffffffffff16815260200190815260200160002060009054906101000a900460ff16151515610bc457600080fd5b836000600a5442111515610cc457600d60009054906101000a900473ffffffffffffffffffffffffffffffffffffffff1673ffffffffffffffffffffffffffffffffffffffff1663b3aefb75836000604051602001526040518263ffffffff167c0100000000000000000000000000000000000000000000000000000000028152600401808273ffffffffffffffffffffffffffffffffffffffff1673ffffffffffffffffffffffffffffffffffffffff168152602001915050602060405180830381600087803b1515610c9757600080fd5b6102c65a03f11515610ca857600080fd5b505050604051805190509050600081111515610cc357600080fd5b5b610ccf8787876116b7565b93505050509392505050565b60075481565b601281565b60065481565b6000600b544211158015610d025750600a544210155b15610d6457600c60009054906101000a900473ffffffffffffffffffffffffffffffffffffffff1673ffffffffffffffffffffffffffffffffffffffff163373ffffffffffffffffffffffffffffffffffffffff16141515610d6357600080fd5b5b610db682600160003373ffffffffffffffffffffffffffffffffffffffff1673ffffffffffffffffffffffffffffffffffffffff1681526020019081526020016000205461196790919063ffffffff16565b600160003373ffffffffffffffffffffffffffffffffffffffff1673ffffffffffffffffffffffffffffffffffffffff16815260200190815260200160002081905550610e0e8260045461196790919063ffffffff16565b6004819055503373ffffffffffffffffffffffffffffffffffffffff167fcc16f5dbb4873280815c1ee09dbd06736cffcc184412cf7a71a0fdb75d397ca5836040518082815260200191505060405180910390a2600073ffffffffffffffffffffffffffffffffffffffff163373ffffffffffffffffffffffffffffffffffffffff167fddf252ad1be2c89b69c2b068fc378daa952ba7f163c4a11628f55a4df523b3ef846040518082815260200191505060405180910390a360019050919050565b60085481565b600d60009054906101000a900473ffffffffffffffffffffffffffffffffffffffff1681565b600c60009054906101000a900473ffffffffffffffffffffffffffffffffffffffff1681565b6000600160008373ffffffffffffffffffffffffffffffffffffffff1673ffffffffffffffffffffffffffffffffffffffff168152602001908152602001600020549050919050565b6000600b544211158015610f825750600a544210155b15610fe457600c60009054906101000a900473ffffffffffffffffffffffffffffffffffffffff1673ffffffffffffffffffffffffffffffffffffffff163373ffffffffffffffffffffffffffffffffffffffff16141515610fe357600080fd5b5b610fef833384610a7b565b1515610ff757fe5b61100082610cec565b905092915050565b600360009054906101000a900473ffffffffffffffffffffffffffffffffffffffff1681565b6040805190810160405280600381526020017f42424f000000000000000000000000000000000000000000000000000000000081525081565b6000600b54421115801561107d5750600a544210155b156110df57600c60009054906101000a900473ffffffffffffffffffffffffffffffffffffffff1673ffffffffffffffffffffffffffffffffffffffff163373ffffffffffffffffffffffffffffffffffffffff161415156110de57600080fd5b5b82600073ffffffffffffffffffffffffffffffffffffffff168173ffffffffffffffffffffffffffffffffffffffff161415151561111c57600080fd5b3073ffffffffffffffffffffffffffffffffffffffff168173ffffffffffffffffffffffffffffffffffffffff161415151561115757600080fd5b600e60008273ffffffffffffffffffffffffffffffffffffffff1673ffffffffffffffffffffffffffffffffffffffff16815260200190815260200160002060009054906101000a900460ff161515156111b057600080fd5b33600e60008273ffffffffffffffffffffffffffffffffffffffff1673ffffffffffffffffffffffffffffffffffffffff16815260200190815260200160002060009054906101000a900460ff1615151561120a57600080fd5b6112148585611980565b9250505092915050565b600360009054906101000a900473ffffffffffffffffffffffffffffffffffffffff1673ffffffffffffffffffffffffffffffffffffffff163373ffffffffffffffffffffffffffffffffffffffff1614151561127a57600080fd5b80600d60006101000a81548173ffffffffffffffffffffffffffffffffffffffff021916908373ffffffffffffffffffffffffffffffffffffffff16021790555050565b600e6020528060005260406000206000915054906101000a900460ff1681565b60095481565b600360009054906101000a900473ffffffffffffffffffffffffffffffffffffffff1673ffffffffffffffffffffffffffffffffffffffff163373ffffffffffffffffffffffffffffffffffffffff1614151561134057600080fd5b8173ffffffffffffffffffffffffffffffffffffffff1663a9059cbb600360009054906101000a900473ffffffffffffffffffffffffffffffffffffffff16836000604051602001526040518363ffffffff167c0100000000000000000000000000000000000000000000000000000000028152600401808373ffffffffffffffffffffffffffffffffffffffff1673ffffffffffffffffffffffffffffffffffffffff16815260200182815260200192505050602060405180830381600087803b151561140d57600080fd5b6102c65a03f1151561141e57600080fd5b50505060405180519050505050565b6000600260008473ffffffffffffffffffffffffffffffffffffffff1673ffffffffffffffffffffffffffffffffffffffff16815260200190815260200160002060008373ffffffffffffffffffffffffffffffffffffffff1673ffffffffffffffffffffffffffffffffffffffff16815260200190815260200160002054905092915050565b600360009054906101000a900473ffffffffffffffffffffffffffffffffffffffff1673ffffffffffffffffffffffffffffffffffffffff163373ffffffffffffffffffffffffffffffffffffffff1614151561151057600080fd5b80600e60008473ffffffffffffffffffffffffffffffffffffffff1673ffffffffffffffffffffffffffffffffffffffff16815260200190815260200160002060006101000a81548160ff0219169083151502179055507f48335238b4855f35377ed80f164e8c6f3c366e54ac00b96a6402d4a9814a03a58282604051808373ffffffffffffffffffffffffffffffffffffffff1673ffffffffffffffffffffffffffffffffffffffff168152602001821515151581526020019250505060405180910390a15050565b600b5481565b600360009054906101000a900473ffffffffffffffffffffffffffffffffffffffff1673ffffffffffffffffffffffffffffffffffffffff163373ffffffffffffffffffffffffffffffffffffffff1614151561163c57600080fd5b600073ffffffffffffffffffffffffffffffffffffffff168173ffffffffffffffffffffffffffffffffffffffff161415156116b45780600360006101000a81548173ffffffffffffffffffffffffffffffffffffffff021916908373ffffffffffffffffffffffffffffffffffffffff1602179055505b50565b600080600260008673ffffffffffffffffffffffffffffffffffffffff1673ffffffffffffffffffffffffffffffffffffffff16815260200190815260200160002060003373ffffffffffffffffffffffffffffffffffffffff1673ffffffffffffffffffffffffffffffffffffffff16815260200190815260200160002054905061178b83600160008873ffffffffffffffffffffffffffffffffffffffff1673ffffffffffffffffffffffffffffffffffffffff1681526020019081526020016000205461196790919063ffffffff16565b600160008773ffffffffffffffffffffffffffffffffffffffff1673ffffffffffffffffffffffffffffffffffffffff1681526020019081526020016000208190555061182083600160008773ffffffffffffffffffffffffffffffffffffffff1673ffffffffffffffffffffffffffffffffffffffff16815260200190815260200160002054611b1b90919063ffffffff16565b600160008673ffffffffffffffffffffffffffffffffffffffff1673ffffffffffffffffffffffffffffffffffffffff16815260200190815260200160002081905550611876838261196790919063ffffffff16565b600260008773ffffffffffffffffffffffffffffffffffffffff1673ffffffffffffffffffffffffffffffffffffffff16815260200190815260200160002060003373ffffffffffffffffffffffffffffffffffffffff1673ffffffffffffffffffffffffffffffffffffffff168152602001908152602001600020819055508373ffffffffffffffffffffffffffffffffffffffff168573ffffffffffffffffffffffffffffffffffffffff167fddf252ad1be2c89b69c2b068fc378daa952ba7f163c4a11628f55a4df523b3ef856040518082815260200191505060405180910390a360019150509392505050565b600082821115151561197557fe5b818303905092915050565b60006119d482600160003373ffffffffffffffffffffffffffffffffffffffff1673ffffffffffffffffffffffffffffffffffffffff1681526020019081526020016000205461196790919063ffffffff16565b600160003373ffffffffffffffffffffffffffffffffffffffff1673ffffffffffffffffffffffffffffffffffffffff16815260200190815260200160002081905550611a6982600160008673ffffffffffffffffffffffffffffffffffffffff1673ffffffffffffffffffffffffffffffffffffffff16815260200190815260200160002054611b1b90919063ffffffff16565b600160008573ffffffffffffffffffffffffffffffffffffffff1673ffffffffffffffffffffffffffffffffffffffff168152602001908152602001600020819055508273ffffffffffffffffffffffffffffffffffffffff163373ffffffffffffffffffffffffffffffffffffffff167fddf252ad1be2c89b69c2b068fc378daa952ba7f163c4a11628f55a4df523b3ef846040518082815260200191505060405180910390a36001905092915050565b6000808284019050838110151515611b2f57fe5b80915050929150505600a165627a7a72305820d55c6e54fdcb6781e46b7619688495aed9b0f1cf7e430cac2569a9aafd89e2e80029",
  "source": "pragma solidity ^0.4.19;\n\nimport './BigbomToken.sol';\nimport './zeppelin/ownership/Ownable.sol';\nimport './BigbomContributorWhiteList.sol';\nimport './BigbomPrivateSaleList.sol';\nimport './zeppelin/math/SafeMath.sol';\n\ncontract BigbomTokenSale {\n    address             public admin;\n    address             public bigbomMultiSigWallet;\n    BigbomToken         public token;\n    uint                public raisedWei;\n    bool                public haltSale;\n    uint                      public openSaleStartTime;\n    uint                      public openSaleEndTime;\n    BigbomContributorWhiteList public list;\n\n    mapping(bytes32=>uint) public proxyPurchases;\n    using SafeMath for uint;\n\n    function BigbomTokenSale( address _admin,\n                                    address _bigbomMultiSigWallet,\n                                    BigbomContributorWhiteList _whilteListContract,\n                                    uint _premintedTokenSupply,\n                                    uint _publicSaleStartTime,\n                                    uint _publicSaleEndTime,\n                                    uint _founderAmount, \n                                    uint _coreStaffAmount,\n                                    uint _advisorAmount, \n                                    uint _reserveAmount, \n                                    uint _bountyAmount )\n\n       \n    {\n        admin = _admin;\n        bigbomMultiSigWallet = _bigbomMultiSigWallet;\n        list = _whilteListContract;\n\n        // token = new BigbomToken( _totalTokenSupply,\n        //                                  _publicSaleStartTime,\n        //                                  _publicSaleEndTime + 7 days,\n        //                                  _admin );\n        token = new BigbomToken( _publicSaleStartTime, \n                                _publicSaleEndTime + 7 days, \n                                _admin,  \n                                _founderAmount,  \n                                _coreStaffAmount,\n                                _advisorAmount,  \n                                _reserveAmount,  \n                                _bountyAmount \n                                );\n\n        // transfer preminted tokens to company wallet\n        token.transfer( bigbomMultiSigWallet, _premintedTokenSupply );\n        // freezeAccount company wallet\n        token.freezeAccount( bigbomMultiSigWallet, true);\n    }\n    function saleEnded() constant returns(bool) {\n        return now > openSaleEndTime;\n    }\n\n    function saleStarted() constant returns(bool) {\n        return now >= openSaleStartTime;\n    }\n\n    function setHaltSale( bool halt ) {\n        require( msg.sender == admin );\n        haltSale = halt;\n    }\n    // this is a seperate function so user could query it before crowdsale starts\n    function contributorCap( address contributor ) constant returns(uint) {\n        return list.getCap( contributor );\n    }\n\n    function() payable {\n        buy( msg.sender );\n    }\n\n    event ProxyBuy( bytes32 indexed _proxy, address _recipient, uint _amountInWei );\n    function proxyBuy( bytes32 proxy, address recipient ) payable returns(uint){\n        uint amount = buy( recipient );\n        proxyPurchases[proxy] = proxyPurchases[proxy].add(amount);\n        ProxyBuy( proxy, recipient, amount );\n\n        return amount;\n    }\n\n\n    function getBonus(uint _tokens) returns (uint){\n        if (now > openSaleStartTime && now <= (openSaleStartTime+3 days)){\n            return _tokens.mul(60).div(100);\n        }else if (now > (openSaleStartTime+3  days) && now <= (openSaleStartTime+16 days)){\n            return _tokens.mul(25).div(100);\n        }else if (now > (openSaleStartTime+16 days) && now <= (openSaleStartTime+27 days)){\n            return _tokens.mul(15).div(100);\n        }else if (now > (openSaleStartTime+27 days) && now <= (openSaleStartTime+37 days)){\n            return _tokens.mul(10).div(100);\n        }else if (now > (openSaleStartTime+37 days) && now <= (openSaleStartTime+47 days)){\n            return _tokens.mul(5).div(100);\n        }else if (now > (openSaleStartTime+47 days) && now <= (openSaleStartTime+52 days)){\n            return _tokens.mul(3).div(100);\n        }else{\n            return 0;\n        }\n    }\n\n    event Buy( address _buyer, uint _tokens, uint _payedWei, uint _bonus );\n    function buy( address recipient ) payable returns(uint){\n        require( tx.gasprice <= 50000000000 wei );\n\n        require( ! haltSale );\n        require( saleStarted() );\n        require( ! saleEnded() );\n\n        uint mincap = contributorCap(recipient); \n\n        require( mincap > 0 );\n        // fail if msg.value < mincap\n        require (msg.value >= mincap);\n        // send to msg.sender, not to recipient if value > 3ETH (3e18)\n        if( msg.value > 3e18  ) {\n            msg.sender.transfer( msg.value.sub( 3e18 ) );\n        }\n\n        // send payment to wallet\n        sendETHToMultiSig( msg.value );\n        raisedWei = raisedWei.add( msg.value );\n        // 1ETH = 2500 BBO\n        uint recievedTokens = msg.value.mul( 2500 );\n        // TODO bounce\n        uint bonus = getBonus(recievedTokens);\n        recievedTokens = recievedTokens.add(bonus);\n        assert( token.transfer( recipient, recievedTokens ) );\n        //\n\n        Buy( recipient, recievedTokens, msg.value, bonus );\n\n        return msg.value;\n    }\n\n    function sendETHToMultiSig( uint value ) internal {\n        bigbomMultiSigWallet.transfer( value );\n    }\n\n    event FinalizeSale();\n    // function is callable by everyone\n    function finalizeSale() {\n        require( saleEnded() );\n        require( msg.sender == admin );\n\n        // burn remaining tokens\n        token.burn(token.balanceOf(this));\n\n        FinalizeSale();\n    }\n\n    // ETH balance is always expected to be 0.\n    // but in case something went wrong, we use this function to extract the eth.\n    function emergencyDrain(ERC20 anyToken) returns(bool){\n        require( msg.sender == admin );\n        require( saleEnded() );\n\n        if( this.balance > 0 ) {\n            sendETHToMultiSig( this.balance );\n        }\n\n        if( anyToken != address(0x0) ) {\n            assert( anyToken.transfer(bigbomMultiSigWallet, anyToken.balanceOf(this)) );\n        }\n\n        return true;\n    }\n\n    // just to check that funds goes to the right place\n    // tokens are not given in return\n    function debugBuy() payable {\n        require( msg.value == 123 );\n        sendETHToMultiSig( msg.value );\n    }\n}\n",
  "sourcePath": "/Users/applepen/Documents/git/bigbom/BigBomTokenSale/contracts/BigbomTokenSale.sol",
  "compiler": {
    "name": "solc",
    "version": "0.4.19+commit.c4cbbb05.Emscripten.clang"
  },
  "schemaVersion": "2.0.0",
  "updatedAt": "2018-03-07T15:54:07.242Z"
}