{
  "contractName": "BigbomToken",
  "abi": [
    {
      "constant": true,
      "inputs": [],
      "name": "name",
      "outputs": [
        {
          "name": "",
          "type": "string"
        }
      ],
      "payable": false,
      "stateMutability": "view",
      "type": "function"
    },
    {
      "constant": false,
      "inputs": [
        {
          "name": "_spender",
          "type": "address"
        },
        {
          "name": "_value",
          "type": "uint256"
        }
      ],
      "name": "approve",
      "outputs": [
        {
          "name": "",
          "type": "bool"
        }
      ],
      "payable": false,
      "stateMutability": "nonpayable",
      "type": "function"
    },
    {
      "constant": true,
      "inputs": [],
      "name": "totalSupply",
      "outputs": [
        {
          "name": "",
          "type": "uint256"
        }
      ],
      "payable": false,
      "stateMutability": "view",
      "type": "function"
    },
    {
      "constant": true,
      "inputs": [],
      "name": "founderAmount",
      "outputs": [
        {
          "name": "",
          "type": "uint256"
        }
      ],
      "payable": false,
      "stateMutability": "view",
      "type": "function"
    },
    {
      "constant": true,
      "inputs": [],
      "name": "saleStartTime",
      "outputs": [
        {
          "name": "",
          "type": "uint256"
        }
      ],
      "payable": false,
      "stateMutability": "view",
      "type": "function"
    },
    {
      "constant": true,
      "inputs": [],
      "name": "bbPublicSaleWallet",
      "outputs": [
        {
          "name": "",
          "type": "address"
        }
      ],
      "payable": false,
      "stateMutability": "view",
      "type": "function"
    },
    {
      "constant": true,
      "inputs": [],
      "name": "advisorAmount",
      "outputs": [
        {
          "name": "",
          "type": "uint256"
        }
      ],
      "payable": false,
      "stateMutability": "view",
      "type": "function"
    },
    {
      "constant": true,
      "inputs": [],
      "name": "networkGrowthAmount",
      "outputs": [
        {
          "name": "",
          "type": "uint256"
        }
      ],
      "payable": false,
      "stateMutability": "view",
      "type": "function"
    },
    {
      "constant": true,
      "inputs": [],
      "name": "decimals",
      "outputs": [
        {
          "name": "",
          "type": "uint256"
        }
      ],
      "payable": false,
      "stateMutability": "view",
      "type": "function"
    },
    {
      "constant": true,
      "inputs": [],
      "name": "coreStaffAmount",
      "outputs": [
        {
          "name": "",
          "type": "uint256"
        }
      ],
      "payable": false,
      "stateMutability": "view",
      "type": "function"
    },
    {
      "constant": true,
      "inputs": [],
      "name": "reserveAmount",
      "outputs": [
        {
          "name": "",
          "type": "uint256"
        }
      ],
      "payable": false,
      "stateMutability": "view",
      "type": "function"
    },
    {
      "constant": true,
      "inputs": [],
      "name": "bbNetworkGrowthWallet",
      "outputs": [
        {
          "name": "",
          "type": "address"
        }
      ],
      "payable": false,
      "stateMutability": "view",
      "type": "function"
    },
    {
      "constant": true,
      "inputs": [],
      "name": "bbFounderCoreStaffWallet",
      "outputs": [
        {
          "name": "",
          "type": "address"
        }
      ],
      "payable": false,
      "stateMutability": "view",
      "type": "function"
    },
    {
      "constant": true,
      "inputs": [],
      "name": "privateSaleList",
      "outputs": [
        {
          "name": "",
          "type": "address"
        }
      ],
      "payable": false,
      "stateMutability": "view",
      "type": "function"
    },
    {
      "constant": true,
      "inputs": [],
      "name": "tokenSaleContract",
      "outputs": [
        {
          "name": "",
          "type": "address"
        }
      ],
      "payable": false,
      "stateMutability": "view",
      "type": "function"
    },
    {
      "constant": true,
      "inputs": [],
      "name": "bbAirdropWallet",
      "outputs": [
        {
          "name": "",
          "type": "address"
        }
      ],
      "payable": false,
      "stateMutability": "view",
      "type": "function"
    },
    {
      "constant": true,
      "inputs": [
        {
          "name": "_owner",
          "type": "address"
        }
      ],
      "name": "balanceOf",
      "outputs": [
        {
          "name": "balance",
          "type": "uint256"
        }
      ],
      "payable": false,
      "stateMutability": "view",
      "type": "function"
    },
    {
      "constant": true,
      "inputs": [],
      "name": "bbAdvisorWallet",
      "outputs": [
        {
          "name": "",
          "type": "address"
        }
      ],
      "payable": false,
      "stateMutability": "view",
      "type": "function"
    },
    {
      "constant": true,
      "inputs": [
        {
          "name": "",
          "type": "address"
        }
      ],
      "name": "maxAllowedAmount",
      "outputs": [
        {
          "name": "",
          "type": "uint256"
        }
      ],
      "payable": false,
      "stateMutability": "view",
      "type": "function"
    },
    {
      "constant": true,
      "inputs": [],
      "name": "publicSaleAmount",
      "outputs": [
        {
          "name": "",
          "type": "uint256"
        }
      ],
      "payable": false,
      "stateMutability": "view",
      "type": "function"
    },
    {
      "constant": true,
      "inputs": [],
      "name": "owner",
      "outputs": [
        {
          "name": "",
          "type": "address"
        }
      ],
      "payable": false,
      "stateMutability": "view",
      "type": "function"
    },
    {
      "constant": true,
      "inputs": [],
      "name": "bbReserveWallet",
      "outputs": [
        {
          "name": "",
          "type": "address"
        }
      ],
      "payable": false,
      "stateMutability": "view",
      "type": "function"
    },
    {
      "constant": true,
      "inputs": [],
      "name": "symbol",
      "outputs": [
        {
          "name": "",
          "type": "string"
        }
      ],
      "payable": false,
      "stateMutability": "view",
      "type": "function"
    },
    {
      "constant": true,
      "inputs": [
        {
          "name": "",
          "type": "address"
        }
      ],
      "name": "frozenTime",
      "outputs": [
        {
          "name": "",
          "type": "uint256"
        }
      ],
      "payable": false,
      "stateMutability": "view",
      "type": "function"
    },
    {
      "constant": true,
      "inputs": [
        {
          "name": "",
          "type": "address"
        }
      ],
      "name": "frozenAccount",
      "outputs": [
        {
          "name": "",
          "type": "bool"
        }
      ],
      "payable": false,
      "stateMutability": "view",
      "type": "function"
    },
    {
      "constant": true,
      "inputs": [],
      "name": "bountyAmount",
      "outputs": [
        {
          "name": "",
          "type": "uint256"
        }
      ],
      "payable": false,
      "stateMutability": "view",
      "type": "function"
    },
    {
      "constant": true,
      "inputs": [
        {
          "name": "_owner",
          "type": "address"
        },
        {
          "name": "_spender",
          "type": "address"
        }
      ],
      "name": "allowance",
      "outputs": [
        {
          "name": "remaining",
          "type": "uint256"
        }
      ],
      "payable": false,
      "stateMutability": "view",
      "type": "function"
    },
    {
      "constant": true,
      "inputs": [],
      "name": "saleEndTime",
      "outputs": [
        {
          "name": "",
          "type": "uint256"
        }
      ],
      "payable": false,
      "stateMutability": "view",
      "type": "function"
    },
    {
      "constant": false,
      "inputs": [
        {
          "name": "newOwner",
          "type": "address"
        }
      ],
      "name": "transferOwnership",
      "outputs": [],
      "payable": false,
      "stateMutability": "nonpayable",
      "type": "function"
    },
    {
      "inputs": [
        {
          "name": "startTime",
          "type": "uint256"
        },
        {
          "name": "endTime",
          "type": "uint256"
        },
        {
          "name": "admin",
          "type": "address"
        },
        {
          "name": "_bbFounderCoreStaffWallet",
          "type": "address"
        },
        {
          "name": "_bbAdvisorWallet",
          "type": "address"
        },
        {
          "name": "_bbAirdropWallet",
          "type": "address"
        },
        {
          "name": "_bbNetworkGrowthWallet",
          "type": "address"
        },
        {
          "name": "_bbReserveWallet",
          "type": "address"
        },
        {
          "name": "_bbPublicSaleWallet",
          "type": "address"
        }
      ],
      "payable": false,
      "stateMutability": "nonpayable",
      "type": "constructor"
    },
    {
      "anonymous": false,
      "inputs": [
        {
          "indexed": false,
          "name": "target",
          "type": "address"
        },
        {
          "indexed": false,
          "name": "frozen",
          "type": "bool"
        },
        {
          "indexed": false,
          "name": "_seconds",
          "type": "uint256"
        }
      ],
      "name": "FrozenFunds",
      "type": "event"
    },
    {
      "anonymous": false,
      "inputs": [
        {
          "indexed": true,
          "name": "_burner",
          "type": "address"
        },
        {
          "indexed": false,
          "name": "_value",
          "type": "uint256"
        }
      ],
      "name": "Burn",
      "type": "event"
    },
    {
      "anonymous": false,
      "inputs": [
        {
          "indexed": true,
          "name": "_owner",
          "type": "address"
        },
        {
          "indexed": true,
          "name": "_spender",
          "type": "address"
        },
        {
          "indexed": false,
          "name": "_value",
          "type": "uint256"
        }
      ],
      "name": "Approval",
      "type": "event"
    },
    {
      "anonymous": false,
      "inputs": [
        {
          "indexed": true,
          "name": "_from",
          "type": "address"
        },
        {
          "indexed": true,
          "name": "_to",
          "type": "address"
        },
        {
          "indexed": false,
          "name": "_value",
          "type": "uint256"
        }
      ],
      "name": "Transfer",
      "type": "event"
    },
    {
      "constant": true,
      "inputs": [
        {
          "name": "target",
          "type": "address"
        }
      ],
      "name": "checkMaxAllowed",
      "outputs": [
        {
          "name": "",
          "type": "uint256"
        }
      ],
      "payable": false,
      "stateMutability": "view",
      "type": "function"
    },
    {
      "constant": false,
      "inputs": [
        {
          "name": "freeze",
          "type": "bool"
        },
        {
          "name": "_seconds",
          "type": "uint256"
        }
      ],
      "name": "selfFreeze",
      "outputs": [],
      "payable": false,
      "stateMutability": "nonpayable",
      "type": "function"
    },
    {
      "constant": false,
      "inputs": [
        {
          "name": "target",
          "type": "address"
        },
        {
          "name": "freeze",
          "type": "bool"
        },
        {
          "name": "_seconds",
          "type": "uint256"
        }
      ],
      "name": "freezeAccount",
      "outputs": [],
      "payable": false,
      "stateMutability": "nonpayable",
      "type": "function"
    },
    {
      "constant": false,
      "inputs": [
        {
          "name": "_privateSaleList",
          "type": "address"
        }
      ],
      "name": "setPrivateList",
      "outputs": [],
      "payable": false,
      "stateMutability": "nonpayable",
      "type": "function"
    },
    {
      "constant": false,
      "inputs": [
        {
          "name": "startTime",
          "type": "uint256"
        },
        {
          "name": "endTime",
          "type": "uint256"
        }
      ],
      "name": "setTimeSale",
      "outputs": [],
      "payable": false,
      "stateMutability": "nonpayable",
      "type": "function"
    },
    {
      "constant": false,
      "inputs": [
        {
          "name": "_tokenSaleContract",
          "type": "address"
        }
      ],
      "name": "setTokenSaleContract",
      "outputs": [],
      "payable": false,
      "stateMutability": "nonpayable",
      "type": "function"
    },
    {
      "constant": false,
      "inputs": [
        {
          "name": "_to",
          "type": "address"
        },
        {
          "name": "_value",
          "type": "uint256"
        }
      ],
      "name": "transfer",
      "outputs": [
        {
          "name": "",
          "type": "bool"
        }
      ],
      "payable": false,
      "stateMutability": "nonpayable",
      "type": "function"
    },
    {
      "constant": false,
      "inputs": [
        {
          "name": "_to",
          "type": "address"
        },
        {
          "name": "_value",
          "type": "uint256"
        }
      ],
      "name": "transferPrivateSale",
      "outputs": [
        {
          "name": "",
          "type": "bool"
        }
      ],
      "payable": false,
      "stateMutability": "nonpayable",
      "type": "function"
    },
    {
      "constant": false,
      "inputs": [
        {
          "name": "_from",
          "type": "address"
        },
        {
          "name": "_to",
          "type": "address"
        },
        {
          "name": "_value",
          "type": "uint256"
        }
      ],
      "name": "transferFrom",
      "outputs": [
        {
          "name": "",
          "type": "bool"
        }
      ],
      "payable": false,
      "stateMutability": "nonpayable",
      "type": "function"
    },
    {
      "constant": false,
      "inputs": [
        {
          "name": "_value",
          "type": "uint256"
        }
      ],
      "name": "burn",
      "outputs": [
        {
          "name": "",
          "type": "bool"
        }
      ],
      "payable": false,
      "stateMutability": "nonpayable",
      "type": "function"
    },
    {
      "constant": false,
      "inputs": [
        {
          "name": "_from",
          "type": "address"
        },
        {
          "name": "_value",
          "type": "uint256"
        }
      ],
      "name": "burnFrom",
      "outputs": [
        {
          "name": "",
          "type": "bool"
        }
      ],
      "payable": false,
      "stateMutability": "nonpayable",
      "type": "function"
    },
    {
      "constant": false,
      "inputs": [
        {
          "name": "token",
          "type": "address"
        },
        {
          "name": "amount",
          "type": "uint256"
        }
      ],
      "name": "emergencyERC20Drain",
      "outputs": [],
      "payable": false,
      "stateMutability": "nonpayable",
      "type": "function"
    }
  ],
  "bytecode": "0x60606040526b06765c793fa10079d000000060045534156200002057600080fd5b60405161012080620035938339810160405280805190602001909190805190602001909190805190602001909190805190602001909190805190602001909190805190602001909190805190602001909190805190602001909190805190602001909190505033600360006101000a81548173ffffffffffffffffffffffffffffffffffffffff021916908373ffffffffffffffffffffffffffffffffffffffff160217905550600073ffffffffffffffffffffffffffffffffffffffff168773ffffffffffffffffffffffffffffffffffffffff16141515156200010457600080fd5b600073ffffffffffffffffffffffffffffffffffffffff168473ffffffffffffffffffffffffffffffffffffffff16141515156200014157600080fd5b600073ffffffffffffffffffffffffffffffffffffffff168573ffffffffffffffffffffffffffffffffffffffff16141515156200017e57600080fd5b600073ffffffffffffffffffffffffffffffffffffffff168273ffffffffffffffffffffffffffffffffffffffff1614151515620001bb57600080fd5b600073ffffffffffffffffffffffffffffffffffffffff168373ffffffffffffffffffffffffffffffffffffffff1614151515620001f857600080fd5b600073ffffffffffffffffffffffffffffffffffffffff168673ffffffffffffffffffffffffffffffffffffffff16141515156200023557600080fd5b600073ffffffffffffffffffffffffffffffffffffffff168173ffffffffffffffffffffffffffffffffffffffff16141515156200027257600080fd5b600454600160003373ffffffffffffffffffffffffffffffffffffffff1673ffffffffffffffffffffffffffffffffffffffff168152602001908152602001600020819055503373ffffffffffffffffffffffffffffffffffffffff16600073ffffffffffffffffffffffffffffffffffffffff167fddf252ad1be2c89b69c2b068fc378daa952ba7f163c4a11628f55a4df523b3ef6004546040518082815260200191505060405180910390a383600760006101000a81548173ffffffffffffffffffffffffffffffffffffffff021916908373ffffffffffffffffffffffffffffffffffffffff16021790555084600660006101000a81548173ffffffffffffffffffffffffffffffffffffffff021916908373ffffffffffffffffffffffffffffffffffffffff16021790555081600960006101000a81548173ffffffffffffffffffffffffffffffffffffffff021916908373ffffffffffffffffffffffffffffffffffffffff16021790555082600860006101000a81548173ffffffffffffffffffffffffffffffffffffffff021916908373ffffffffffffffffffffffffffffffffffffffff16021790555085600560006101000a81548173ffffffffffffffffffffffffffffffffffffffff021916908373ffffffffffffffffffffffffffffffffffffffff16021790555080600a60006101000a81548173ffffffffffffffffffffffffffffffffffffffff021916908373ffffffffffffffffffffffffffffffffffffffff16021790555088600b8190555087600c81905550620004d387620004e26401000000000262002a43176401000000009004565b505050505050505050620005bb565b600360009054906101000a900473ffffffffffffffffffffffffffffffffffffffff1673ffffffffffffffffffffffffffffffffffffffff163373ffffffffffffffffffffffffffffffffffffffff161415156200053f57600080fd5b600073ffffffffffffffffffffffffffffffffffffffff168173ffffffffffffffffffffffffffffffffffffffff16141515620005b85780600360006101000a81548173ffffffffffffffffffffffffffffffffffffffff021916908373ffffffffffffffffffffffffffffffffffffffff1602179055505b50565b612fc880620005cb6000396000f3006060604052600436106101f9576000357c0100000000000000000000000000000000000000000000000000000000900463ffffffff16806306fdde03146101fe578063095ea7b31461028c578063107e8b24146102e657806318160ddd1461031257806318656a1e1461033b5780631cbaee2d146103645780632352551f1461038d57806323b872dd146103e2578063278a36841461045b5780632b4a964b14610484578063313ce567146104ad578063354d89ee146104d65780634077aa141461050f57806342966c68146105385780634a382c36146105735780634b09b72a146105c05780635211f843146105e9578063544d65441461063e57806355dd8171146106985780635c28c7e0146106ed5780635d5aa277146107425780635e5e305e1461079757806370a08231146107ec57806379cc6790146108395780637bc21b6b14610893578063801e2593146108e857806388d0820e146109355780638985abc8146109635780638da5cb5b1461098c57806392d42475146109e157806395d89b4114610a36578063a9059cbb14610ac4578063aa848ee214610b1e578063af5c295a14610b57578063b062307414610ba4578063b414d4b614610bf1578063ccd331bf14610c42578063db0e16f114610c6b578063dd62ed3e14610cad578063ed338ff114610d19578063f2fde38b14610d42575b600080fd5b341561020957600080fd5b610211610d7b565b6040518080602001828103825283818151815260200191508051906020019080838360005b83811015610251578082015181840152602081019050610236565b50505050905090810190601f16801561027e5780820380516001836020036101000a031916815260200191505b509250505060405180910390f35b341561029757600080fd5b6102cc600480803573ffffffffffffffffffffffffffffffffffffffff16906020019091908035906020019091905050610db4565b604051808215151515815260200191505060405180910390f35b34156102f157600080fd5b6103106004808035906020019091908035906020019091905050610f3b565b005b341561031d57600080fd5b610325610fe1565b6040518082815260200191505060405180910390f35b341561034657600080fd5b61034e610fe7565b6040518082815260200191505060405180910390f35b341561036f57600080fd5b610377610ff6565b6040518082815260200191505060405180910390f35b341561039857600080fd5b6103a0610ffc565b604051808273ffffffffffffffffffffffffffffffffffffffff1673ffffffffffffffffffffffffffffffffffffffff16815260200191505060405180910390f35b34156103ed57600080fd5b610441600480803573ffffffffffffffffffffffffffffffffffffffff1690602001909190803573ffffffffffffffffffffffffffffffffffffffff16906020019091908035906020019091905050611022565b604051808215151515815260200191505060405180910390f35b341561046657600080fd5b61046e611502565b6040518082815260200191505060405180910390f35b341561048f57600080fd5b610497611511565b6040518082815260200191505060405180910390f35b34156104b857600080fd5b6104c0611521565b6040518082815260200191505060405180910390f35b34156104e157600080fd5b61050d600480803573ffffffffffffffffffffffffffffffffffffffff16906020019091905050611526565b005b341561051a57600080fd5b61052261161e565b6040518082815260200191505060405180910390f35b341561054357600080fd5b610559600480803590602001909190505061162d565b604051808215151515815260200191505060405180910390f35b341561057e57600080fd5b6105be600480803573ffffffffffffffffffffffffffffffffffffffff169060200190919080351515906020019091908035906020019091905050611812565b005b34156105cb57600080fd5b6105d3611a43565b6040518082815260200191505060405180910390f35b34156105f457600080fd5b6105fc611a53565b604051808273ffffffffffffffffffffffffffffffffffffffff1673ffffffffffffffffffffffffffffffffffffffff16815260200191505060405180910390f35b341561064957600080fd5b61067e600480803573ffffffffffffffffffffffffffffffffffffffff16906020019091908035906020019091905050611a79565b604051808215151515815260200191505060405180910390f35b34156106a357600080fd5b6106ab611bf0565b604051808273ffffffffffffffffffffffffffffffffffffffff1673ffffffffffffffffffffffffffffffffffffffff16815260200191505060405180910390f35b34156106f857600080fd5b610700611c16565b604051808273ffffffffffffffffffffffffffffffffffffffff1673ffffffffffffffffffffffffffffffffffffffff16815260200191505060405180910390f35b341561074d57600080fd5b610755611c3c565b604051808273ffffffffffffffffffffffffffffffffffffffff1673ffffffffffffffffffffffffffffffffffffffff16815260200191505060405180910390f35b34156107a257600080fd5b6107aa611c62565b604051808273ffffffffffffffffffffffffffffffffffffffff1673ffffffffffffffffffffffffffffffffffffffff16815260200191505060405180910390f35b34156107f757600080fd5b610823600480803573ffffffffffffffffffffffffffffffffffffffff16906020019091905050611c88565b6040518082815260200191505060405180910390f35b341561084457600080fd5b610879600480803573ffffffffffffffffffffffffffffffffffffffff16906020019091908035906020019091905050611cd1565b604051808215151515815260200191505060405180910390f35b341561089e57600080fd5b6108a6611d6d565b604051808273ffffffffffffffffffffffffffffffffffffffff1673ffffffffffffffffffffffffffffffffffffffff16815260200191505060405180910390f35b34156108f357600080fd5b61091f600480803573ffffffffffffffffffffffffffffffffffffffff16906020019091905050611d93565b6040518082815260200191505060405180910390f35b341561094057600080fd5b61096160048080351515906020019091908035906020019091905050611dab565b005b341561096e57600080fd5b610976611f91565b6040518082815260200191505060405180910390f35b341561099757600080fd5b61099f611fa0565b604051808273ffffffffffffffffffffffffffffffffffffffff1673ffffffffffffffffffffffffffffffffffffffff16815260200191505060405180910390f35b34156109ec57600080fd5b6109f4611fc6565b604051808273ffffffffffffffffffffffffffffffffffffffff1673ffffffffffffffffffffffffffffffffffffffff16815260200191505060405180910390f35b3415610a4157600080fd5b610a49611fec565b6040518080602001828103825283818151815260200191508051906020019080838360005b83811015610a89578082015181840152602081019050610a6e565b50505050905090810190601f168015610ab65780820380516001836020036101000a031916815260200191505b509250505060405180910390f35b3415610acf57600080fd5b610b04600480803573ffffffffffffffffffffffffffffffffffffffff16906020019091908035906020019091905050612025565b604051808215151515815260200191505060405180910390f35b3415610b2957600080fd5b610b55600480803573ffffffffffffffffffffffffffffffffffffffff16906020019091905050612503565b005b3415610b6257600080fd5b610b8e600480803573ffffffffffffffffffffffffffffffffffffffff169060200190919050506125df565b6040518082815260200191505060405180910390f35b3415610baf57600080fd5b610bdb600480803573ffffffffffffffffffffffffffffffffffffffff16906020019091905050612826565b6040518082815260200191505060405180910390f35b3415610bfc57600080fd5b610c28600480803573ffffffffffffffffffffffffffffffffffffffff1690602001909190505061283e565b604051808215151515815260200191505060405180910390f35b3415610c4d57600080fd5b610c5561285e565b6040518082815260200191505060405180910390f35b3415610c7657600080fd5b610cab600480803573ffffffffffffffffffffffffffffffffffffffff1690602001909190803590602001909190505061286d565b005b3415610cb857600080fd5b610d03600480803573ffffffffffffffffffffffffffffffffffffffff1690602001909190803573ffffffffffffffffffffffffffffffffffffffff169060200190919050506129b6565b6040518082815260200191505060405180910390f35b3415610d2457600080fd5b610d2c612a3d565b6040518082815260200191505060405180910390f35b3415610d4d57600080fd5b610d79600480803573ffffffffffffffffffffffffffffffffffffffff16906020019091905050612a43565b005b6040805190810160405280600681526020017f426967626f6d000000000000000000000000000000000000000000000000000081525081565b600080821480610e4057506000600260003373ffffffffffffffffffffffffffffffffffffffff1673ffffffffffffffffffffffffffffffffffffffff16815260200190815260200160002060008573ffffffffffffffffffffffffffffffffffffffff1673ffffffffffffffffffffffffffffffffffffffff16815260200190815260200160002054145b1515610e4b57600080fd5b81600260003373ffffffffffffffffffffffffffffffffffffffff1673ffffffffffffffffffffffffffffffffffffffff16815260200190815260200160002060008573ffffffffffffffffffffffffffffffffffffffff1673ffffffffffffffffffffffffffffffffffffffff168152602001908152602001600020819055508273ffffffffffffffffffffffffffffffffffffffff163373ffffffffffffffffffffffffffffffffffffffff167f8c5be1e5ebec7d5bd14f71427d1e84f3dd0314c0f7b2291e5b200ac8c7c3b925846040518082815260200191505060405180910390a36001905092915050565b600360009054906101000a900473ffffffffffffffffffffffffffffffffffffffff1673ffffffffffffffffffffffffffffffffffffffff163373ffffffffffffffffffffffffffffffffffffffff16141515610f9757600080fd5b600b54421080610fa85750600c5442115b1515610fb357600080fd5b8142101515610fc157600080fd5b8082101515610fcf57600080fd5b81600b8190555080600c819055505050565b60045481565b6aa56fa5b99019a5c800000081565b600b5481565b600a60009054906101000a900473ffffffffffffffffffffffffffffffffffffffff1681565b6000806000806000600c54421115801561103e5750600b544210155b156110a057600d60009054906101000a900473ffffffffffffffffffffffffffffffffffffffff1673ffffffffffffffffffffffffffffffffffffffff163373ffffffffffffffffffffffffffffffffffffffff1614151561109f57600080fd5b5b86600073ffffffffffffffffffffffffffffffffffffffff168173ffffffffffffffffffffffffffffffffffffffff16141515156110dd57600080fd5b3073ffffffffffffffffffffffffffffffffffffffff168173ffffffffffffffffffffffffffffffffffffffff161415151561111857600080fd5b600f60008273ffffffffffffffffffffffffffffffffffffffff1673ffffffffffffffffffffffffffffffffffffffff16815260200190815260200160002060009054906101000a900460ff1615151561117157600080fd5b88600f60008273ffffffffffffffffffffffffffffffffffffffff1673ffffffffffffffffffffffffffffffffffffffff16815260200190815260200160002060009054906101000a900460ff161515156111cb57600080fd5b600560009054906101000a900473ffffffffffffffffffffffffffffffffffffffff1673ffffffffffffffffffffffffffffffffffffffff168a73ffffffffffffffffffffffffffffffffffffffff1614806112745750600660009054906101000a900473ffffffffffffffffffffffffffffffffffffffff1673ffffffffffffffffffffffffffffffffffffffff168a73ffffffffffffffffffffffffffffffffffffffff16145b806112cc5750600760009054906101000a900473ffffffffffffffffffffffffffffffffffffffff1673ffffffffffffffffffffffffffffffffffffffff168a73ffffffffffffffffffffffffffffffffffffffff16145b806113245750600860009054906101000a900473ffffffffffffffffffffffffffffffffffffffff1673ffffffffffffffffffffffffffffffffffffffff168a73ffffffffffffffffffffffffffffffffffffffff16145b8061137c5750600960009054906101000a900473ffffffffffffffffffffffffffffffffffffffff1673ffffffffffffffffffffffffffffffffffffffff168a73ffffffffffffffffffffffffffffffffffffffff16145b156114e757601160008b73ffffffffffffffffffffffffffffffffffffffff1673ffffffffffffffffffffffffffffffffffffffff1681526020019081526020016000205495506113cc8a6125df565b945085850393508784101515156113e257600080fd5b87841415611451576113f48989612b1a565b9250611404600162015180611dab565b6000601160008c73ffffffffffffffffffffffffffffffffffffffff1673ffffffffffffffffffffffffffffffffffffffff168152602001908152602001600020819055508296506114f5565b6114a388601160008d73ffffffffffffffffffffffffffffffffffffffff1673ffffffffffffffffffffffffffffffffffffffff16815260200190815260200160002054612cb590919063ffffffff16565b601160008c73ffffffffffffffffffffffffffffffffffffffff1673ffffffffffffffffffffffffffffffffffffffff168152602001908152602001600020819055505b6114f28a8a8a612cd3565b96505b5050505050509392505050565b6a73ce27351811f40c00000081565b6b01f04ef12cb04cf15800000081565b601281565b600360009054906101000a900473ffffffffffffffffffffffffffffffffffffffff1673ffffffffffffffffffffffffffffffffffffffff163373ffffffffffffffffffffffffffffffffffffffff1614151561158257600080fd5b600073ffffffffffffffffffffffffffffffffffffffff168173ffffffffffffffffffffffffffffffffffffffff16141515156115be57600080fd5b600b544210806115cf5750600c5442115b15156115da57600080fd5b80600d60006101000a81548173ffffffffffffffffffffffffffffffffffffffff021916908373ffffffffffffffffffffffffffffffffffffffff16021790555050565b6a31a17e847807b1bc00000081565b6000600c5442111580156116435750600b544210155b156116a557600d60009054906101000a900473ffffffffffffffffffffffffffffffffffffffff1673ffffffffffffffffffffffffffffffffffffffff163373ffffffffffffffffffffffffffffffffffffffff161415156116a457600080fd5b5b6116f782600160003373ffffffffffffffffffffffffffffffffffffffff1673ffffffffffffffffffffffffffffffffffffffff16815260200190815260200160002054612f8390919063ffffffff16565b600160003373ffffffffffffffffffffffffffffffffffffffff1673ffffffffffffffffffffffffffffffffffffffff1681526020019081526020016000208190555061174f82600454612f8390919063ffffffff16565b6004819055503373ffffffffffffffffffffffffffffffffffffffff167fcc16f5dbb4873280815c1ee09dbd06736cffcc184412cf7a71a0fdb75d397ca5836040518082815260200191505060405180910390a2600073ffffffffffffffffffffffffffffffffffffffff163373ffffffffffffffffffffffffffffffffffffffff167fddf252ad1be2c89b69c2b068fc378daa952ba7f163c4a11628f55a4df523b3ef846040518082815260200191505060405180910390a360019050919050565b6000600360009054906101000a900473ffffffffffffffffffffffffffffffffffffffff1673ffffffffffffffffffffffffffffffffffffffff163373ffffffffffffffffffffffffffffffffffffffff1614151561187057600080fd5b82151561192857601060008573ffffffffffffffffffffffffffffffffffffffff1673ffffffffffffffffffffffffffffffffffffffff1681526020019081526020016000205490508042101515156118c857600080fd5b82600f60008673ffffffffffffffffffffffffffffffffffffffff1673ffffffffffffffffffffffffffffffffffffffff16815260200190815260200160002060006101000a81548160ff02191690831515021790555060009150611980565b82600f60008673ffffffffffffffffffffffffffffffffffffffff1673ffffffffffffffffffffffffffffffffffffffff16815260200190815260200160002060006101000a81548160ff0219169083151502179055505b814201601060008673ffffffffffffffffffffffffffffffffffffffff1673ffffffffffffffffffffffffffffffffffffffff168152602001908152602001600020819055507fe498f5de034ff24e6c60a58f79f46177b3549748e793928ba8588593e9fec1b9848484604051808473ffffffffffffffffffffffffffffffffffffffff1673ffffffffffffffffffffffffffffffffffffffff16815260200183151515158152602001828152602001935050505060405180910390a150505050565b6b020d427af9f6516e5b00000081565b600860009054906101000a900473ffffffffffffffffffffffffffffffffffffffff1681565b6000600360009054906101000a900473ffffffffffffffffffffffffffffffffffffffff1673ffffffffffffffffffffffffffffffffffffffff163373ffffffffffffffffffffffffffffffffffffffff16141515611ad757600080fd5b826000600b544211151515611aeb57600080fd5b600e60009054906101000a900473ffffffffffffffffffffffffffffffffffffffff1673ffffffffffffffffffffffffffffffffffffffff1663b3aefb75836000604051602001526040518263ffffffff167c0100000000000000000000000000000000000000000000000000000000028152600401808273ffffffffffffffffffffffffffffffffffffffff1673ffffffffffffffffffffffffffffffffffffffff168152602001915050602060405180830381600087803b1515611bb057600080fd5b6102c65a03f11515611bc157600080fd5b505050604051805190509050600081111515611bdc57600080fd5b611be68585612025565b9250505092915050565b600560009054906101000a900473ffffffffffffffffffffffffffffffffffffffff1681565b600e60009054906101000a900473ffffffffffffffffffffffffffffffffffffffff1681565b600d60009054906101000a900473ffffffffffffffffffffffffffffffffffffffff1681565b600760009054906101000a900473ffffffffffffffffffffffffffffffffffffffff1681565b6000600160008373ffffffffffffffffffffffffffffffffffffffff1673ffffffffffffffffffffffffffffffffffffffff168152602001908152602001600020549050919050565b6000600c544211158015611ce75750600b544210155b15611d4957600d60009054906101000a900473ffffffffffffffffffffffffffffffffffffffff1673ffffffffffffffffffffffffffffffffffffffff163373ffffffffffffffffffffffffffffffffffffffff16141515611d4857600080fd5b5b611d54833384611022565b1515611d5c57fe5b611d658261162d565b905092915050565b600660009054906101000a900473ffffffffffffffffffffffffffffffffffffffff1681565b60116020528060005260406000206000915090505481565b600062093a808211151515611dbf57600080fd5b821515611e7757601060003373ffffffffffffffffffffffffffffffffffffffff1673ffffffffffffffffffffffffffffffffffffffff168152602001908152602001600020549050804210151515611e1757600080fd5b82600f60003373ffffffffffffffffffffffffffffffffffffffff1673ffffffffffffffffffffffffffffffffffffffff16815260200190815260200160002060006101000a81548160ff02191690831515021790555060009150611ecf565b82600f60003373ffffffffffffffffffffffffffffffffffffffff1673ffffffffffffffffffffffffffffffffffffffff16815260200190815260200160002060006101000a81548160ff0219169083151502179055505b814201601060003373ffffffffffffffffffffffffffffffffffffffff1673ffffffffffffffffffffffffffffffffffffffff168152602001908152602001600020819055507fe498f5de034ff24e6c60a58f79f46177b3549748e793928ba8588593e9fec1b9338484604051808473ffffffffffffffffffffffffffffffffffffffff1673ffffffffffffffffffffffffffffffffffffffff16815260200183151515158152602001828152602001935050505060405180910390a1505050565b6ae37983df262343f300000081565b600360009054906101000a900473ffffffffffffffffffffffffffffffffffffffff1681565b600960009054906101000a900473ffffffffffffffffffffffffffffffffffffffff1681565b6040805190810160405280600381526020017f42424f000000000000000000000000000000000000000000000000000000000081525081565b6000806000806000600c5442111580156120415750600b544210155b156120a357600d60009054906101000a900473ffffffffffffffffffffffffffffffffffffffff1673ffffffffffffffffffffffffffffffffffffffff163373ffffffffffffffffffffffffffffffffffffffff161415156120a257600080fd5b5b86600073ffffffffffffffffffffffffffffffffffffffff168173ffffffffffffffffffffffffffffffffffffffff16141515156120e057600080fd5b3073ffffffffffffffffffffffffffffffffffffffff168173ffffffffffffffffffffffffffffffffffffffff161415151561211b57600080fd5b600f60008273ffffffffffffffffffffffffffffffffffffffff1673ffffffffffffffffffffffffffffffffffffffff16815260200190815260200160002060009054906101000a900460ff1615151561217457600080fd5b33600f60008273ffffffffffffffffffffffffffffffffffffffff1673ffffffffffffffffffffffffffffffffffffffff16815260200190815260200160002060009054906101000a900460ff161515156121ce57600080fd5b600560009054906101000a900473ffffffffffffffffffffffffffffffffffffffff1673ffffffffffffffffffffffffffffffffffffffff163373ffffffffffffffffffffffffffffffffffffffff1614806122775750600660009054906101000a900473ffffffffffffffffffffffffffffffffffffffff1673ffffffffffffffffffffffffffffffffffffffff163373ffffffffffffffffffffffffffffffffffffffff16145b806122cf5750600760009054906101000a900473ffffffffffffffffffffffffffffffffffffffff1673ffffffffffffffffffffffffffffffffffffffff163373ffffffffffffffffffffffffffffffffffffffff16145b806123275750600860009054906101000a900473ffffffffffffffffffffffffffffffffffffffff1673ffffffffffffffffffffffffffffffffffffffff163373ffffffffffffffffffffffffffffffffffffffff16145b8061237f5750600960009054906101000a900473ffffffffffffffffffffffffffffffffffffffff1673ffffffffffffffffffffffffffffffffffffffff163373ffffffffffffffffffffffffffffffffffffffff16145b156124ea57601160003373ffffffffffffffffffffffffffffffffffffffff1673ffffffffffffffffffffffffffffffffffffffff1681526020019081526020016000205495506123cf336125df565b945085850393508784101515156123e557600080fd5b87841415612454576123f78989612b1a565b9250612407600162015180611dab565b6000601160003373ffffffffffffffffffffffffffffffffffffffff1673ffffffffffffffffffffffffffffffffffffffff168152602001908152602001600020819055508296506124f7565b6124a688601160003373ffffffffffffffffffffffffffffffffffffffff1673ffffffffffffffffffffffffffffffffffffffff16815260200190815260200160002054612cb590919063ffffffff16565b601160003373ffffffffffffffffffffffffffffffffffffffff1673ffffffffffffffffffffffffffffffffffffffff168152602001908152602001600020819055505b6124f48989612b1a565b96505b50505050505092915050565b600360009054906101000a900473ffffffffffffffffffffffffffffffffffffffff1673ffffffffffffffffffffffffffffffffffffffff163373ffffffffffffffffffffffffffffffffffffffff1614151561255f57600080fd5b600073ffffffffffffffffffffffffffffffffffffffff168173ffffffffffffffffffffffffffffffffffffffff161415151561259b57600080fd5b80600e60006101000a81548173ffffffffffffffffffffffffffffffffffffffff021916908373ffffffffffffffffffffffffffffffffffffffff16021790555050565b600080600160008473ffffffffffffffffffffffffffffffffffffffff1673ffffffffffffffffffffffffffffffffffffffff168152602001908152602001600020549050600560009054906101000a900473ffffffffffffffffffffffffffffffffffffffff1673ffffffffffffffffffffffffffffffffffffffff168373ffffffffffffffffffffffffffffffffffffffff161415612689576a084595161401484a00000090505b600660009054906101000a900473ffffffffffffffffffffffffffffffffffffffff1673ffffffffffffffffffffffffffffffffffffffff168373ffffffffffffffffffffffffffffffffffffffff1614156126ee576a084595161401484a00000090505b600760009054906101000a900473ffffffffffffffffffffffffffffffffffffffff1673ffffffffffffffffffffffffffffffffffffffff168373ffffffffffffffffffffffffffffffffffffffff161415612753576a211654585005212800000090505b600860009054906101000a900473ffffffffffffffffffffffffffffffffffffffff1673ffffffffffffffffffffffffffffffffffffffff168373ffffffffffffffffffffffffffffffffffffffff1614156127b8576a108b2a2c2802909400000090505b600960009054906101000a900473ffffffffffffffffffffffffffffffffffffffff1673ffffffffffffffffffffffffffffffffffffffff168373ffffffffffffffffffffffffffffffffffffffff16141561281d576a0540aa3094621824c0000090505b80915050919050565b60106020528060005260406000206000915090505481565b600f6020528060005260406000206000915054906101000a900460ff1681565b6a211654585005212800000081565b600360009054906101000a900473ffffffffffffffffffffffffffffffffffffffff1673ffffffffffffffffffffffffffffffffffffffff163373ffffffffffffffffffffffffffffffffffffffff161415156128c957600080fd5b8173ffffffffffffffffffffffffffffffffffffffff1663a9059cbb600360009054906101000a900473ffffffffffffffffffffffffffffffffffffffff16836000604051602001526040518363ffffffff167c0100000000000000000000000000000000000000000000000000000000028152600401808373ffffffffffffffffffffffffffffffffffffffff1673ffffffffffffffffffffffffffffffffffffffff16815260200182815260200192505050602060405180830381600087803b151561299657600080fd5b6102c65a03f115156129a757600080fd5b50505060405180519050505050565b6000600260008473ffffffffffffffffffffffffffffffffffffffff1673ffffffffffffffffffffffffffffffffffffffff16815260200190815260200160002060008373ffffffffffffffffffffffffffffffffffffffff1673ffffffffffffffffffffffffffffffffffffffff16815260200190815260200160002054905092915050565b600c5481565b600360009054906101000a900473ffffffffffffffffffffffffffffffffffffffff1673ffffffffffffffffffffffffffffffffffffffff163373ffffffffffffffffffffffffffffffffffffffff16141515612a9f57600080fd5b600073ffffffffffffffffffffffffffffffffffffffff168173ffffffffffffffffffffffffffffffffffffffff16141515612b175780600360006101000a81548173ffffffffffffffffffffffffffffffffffffffff021916908373ffffffffffffffffffffffffffffffffffffffff1602179055505b50565b6000612b6e82600160003373ffffffffffffffffffffffffffffffffffffffff1673ffffffffffffffffffffffffffffffffffffffff16815260200190815260200160002054612f8390919063ffffffff16565b600160003373ffffffffffffffffffffffffffffffffffffffff1673ffffffffffffffffffffffffffffffffffffffff16815260200190815260200160002081905550612c0382600160008673ffffffffffffffffffffffffffffffffffffffff1673ffffffffffffffffffffffffffffffffffffffff16815260200190815260200160002054612cb590919063ffffffff16565b600160008573ffffffffffffffffffffffffffffffffffffffff1673ffffffffffffffffffffffffffffffffffffffff168152602001908152602001600020819055508273ffffffffffffffffffffffffffffffffffffffff163373ffffffffffffffffffffffffffffffffffffffff167fddf252ad1be2c89b69c2b068fc378daa952ba7f163c4a11628f55a4df523b3ef846040518082815260200191505060405180910390a36001905092915050565b6000808284019050838110151515612cc957fe5b8091505092915050565b600080600260008673ffffffffffffffffffffffffffffffffffffffff1673ffffffffffffffffffffffffffffffffffffffff16815260200190815260200160002060003373ffffffffffffffffffffffffffffffffffffffff1673ffffffffffffffffffffffffffffffffffffffff168152602001908152602001600020549050612da783600160008873ffffffffffffffffffffffffffffffffffffffff1673ffffffffffffffffffffffffffffffffffffffff16815260200190815260200160002054612f8390919063ffffffff16565b600160008773ffffffffffffffffffffffffffffffffffffffff1673ffffffffffffffffffffffffffffffffffffffff16815260200190815260200160002081905550612e3c83600160008773ffffffffffffffffffffffffffffffffffffffff1673ffffffffffffffffffffffffffffffffffffffff16815260200190815260200160002054612cb590919063ffffffff16565b600160008673ffffffffffffffffffffffffffffffffffffffff1673ffffffffffffffffffffffffffffffffffffffff16815260200190815260200160002081905550612e928382612f8390919063ffffffff16565b600260008773ffffffffffffffffffffffffffffffffffffffff1673ffffffffffffffffffffffffffffffffffffffff16815260200190815260200160002060003373ffffffffffffffffffffffffffffffffffffffff1673ffffffffffffffffffffffffffffffffffffffff168152602001908152602001600020819055508373ffffffffffffffffffffffffffffffffffffffff168573ffffffffffffffffffffffffffffffffffffffff167fddf252ad1be2c89b69c2b068fc378daa952ba7f163c4a11628f55a4df523b3ef856040518082815260200191505060405180910390a360019150509392505050565b6000828211151515612f9157fe5b8183039050929150505600a165627a7a72305820e58d4caafc7b2e2d14dc9495d63a68a6306432121f603873c838ea65163804480029",
  "source": "pragma solidity ^0.4.19;\n\nimport './zeppelin/token/StandardToken.sol';\nimport './zeppelin/ownership/Ownable.sol';\nimport './BigbomPrivateSaleList.sol';\n\ncontract BigbomToken is StandardToken, Ownable {\n    \n    string  public  constant name = \"Bigbom\";\n    string  public  constant symbol = \"BBO\";\n    uint    public  constant decimals = 18;\n    uint    public   totalSupply = 2000000000 * 1e18; //2,000,000,000\n\n    uint    public  constant founderAmount = 200000000 * 1e18; // 200,000,000\n    uint    public  constant coreStaffAmount = 60000000 * 1e18; // 60,000,000\n    uint    public  constant advisorAmount = 140000000 * 1e18; // 140,000,000\n    uint    public  constant networkGrowthAmount = 600000000 * 1e18; //600,000,000\n    uint    public  constant reserveAmount = 635000000 * 1e18; // 635,000,000\n    uint    public  constant bountyAmount = 40000000 * 1e18; // 40,000,000\n    uint    public  constant publicSaleAmount = 275000000 * 1e18; // 275,000,000\n\n    address public   bbFounderCoreStaffWallet ;\n    address public   bbAdvisorWallet;\n    address public   bbAirdropWallet;\n    address public   bbNetworkGrowthWallet;\n    address public   bbReserveWallet;\n    address public   bbPublicSaleWallet;\n\n    uint    public  saleStartTime;\n    uint    public  saleEndTime;\n\n    address public  tokenSaleContract;\n    BigbomPrivateSaleList public privateSaleList;\n\n    mapping (address => bool) public frozenAccount;\n    mapping (address => uint) public frozenTime;\n    mapping (address => uint) public maxAllowedAmount;\n\n    /* This generates a public event on the blockchain that will notify clients */\n    event FrozenFunds(address target, bool frozen, uint _seconds);\n   \n\n    function checkMaxAllowed(address target)  public constant  returns (uint) {\n        var maxAmount  = balances[target];\n        if(target == bbFounderCoreStaffWallet){\n            maxAmount = 10000000 * 1e18;\n        }\n        if(target == bbAdvisorWallet){\n            maxAmount = 10000000 * 1e18;\n        }\n        if(target == bbAirdropWallet){\n            maxAmount = 40000000 * 1e18;\n        }\n        if(target == bbNetworkGrowthWallet){\n            maxAmount = 20000000 * 1e18;\n        }\n        if(target == bbReserveWallet){\n            maxAmount = 6350000 * 1e18;\n        }\n        return maxAmount;\n    }\n\n    function selfFreeze(bool freeze, uint _seconds) public {\n        // selfFreeze cannot more than 7 days\n        require(_seconds <= 7 * 24 * 3600);\n        // if unfreeze\n        if(!freeze){\n            // get End time of frozenAccount\n            var frozenEndTime = frozenTime[msg.sender];\n            // if now > frozenEndTime\n            require (now >= frozenEndTime);\n            // unfreeze account\n            frozenAccount[msg.sender] = freeze;\n            // set time to 0\n            _seconds = 0;           \n        }else{\n            frozenAccount[msg.sender] = freeze;\n            \n        }\n        // set endTime = now + _seconds to freeze\n        frozenTime[msg.sender] = now + _seconds;\n        FrozenFunds(msg.sender, freeze, _seconds);\n        \n    }\n\n    function freezeAccount(address target, bool freeze, uint _seconds) onlyOwner public {\n        \n        // if unfreeze\n        if(!freeze){\n            // get End time of frozenAccount\n            var frozenEndTime = frozenTime[target];\n            // if now > frozenEndTime\n            require (now >= frozenEndTime);\n            // unfreeze account\n            frozenAccount[target] = freeze;\n            // set time to 0\n            _seconds = 0;           \n        }else{\n            frozenAccount[target] = freeze;\n            \n        }\n        // set endTime = now + _seconds to freeze\n        frozenTime[target] = now + _seconds;\n        FrozenFunds(target, freeze, _seconds);\n        \n    }\n\n    modifier validDestination( address to ) {\n        require(to != address(0x0));\n        require(to != address(this) );\n        require(!frozenAccount[to]);                       // Check if recipient is frozen\n        _;\n    }\n    modifier validFrom(address from){\n        require(!frozenAccount[from]);                     // Check if sender is frozen\n        _;\n    }\n    modifier onlyWhenTransferEnabled() {\n        if( now <= saleEndTime && now >= saleStartTime ) {\n            require( msg.sender == tokenSaleContract );\n        }\n        _;\n    }\n    modifier onlyPrivateListEnabled(address _to){\n        require(now <= saleStartTime);\n        uint allowcap = privateSaleList.getCap(_to);\n        require (allowcap > 0);\n        _;\n    }\n    function setPrivateList(BigbomPrivateSaleList _privateSaleList)   onlyOwner public {\n        require(_privateSaleList != address(0x0));\n        privateSaleList = _privateSaleList;\n\n    }\n    \n    function BigbomToken(uint startTime, uint endTime, address admin, address _bbFounderCoreStaffWallet, address _bbAdvisorWallet,\n        address _bbAirdropWallet,\n        address _bbNetworkGrowthWallet,\n        address _bbReserveWallet, \n        address _bbPublicSaleWallet\n        ) public {\n\n        require(admin!=address(0x0));\n        require(_bbAirdropWallet!=address(0x0));\n        require(_bbAdvisorWallet!=address(0x0));\n        require(_bbReserveWallet!=address(0x0));\n        require(_bbNetworkGrowthWallet!=address(0x0));\n        require(_bbFounderCoreStaffWallet!=address(0x0));\n        require(_bbPublicSaleWallet!=address(0x0));\n\n        // Mint all tokens. Then disable minting forever.\n        balances[msg.sender] = totalSupply;\n        Transfer(address(0x0), msg.sender, totalSupply);\n        // init internal amount limit\n        // set address when deploy\n        bbAirdropWallet = _bbAirdropWallet;\n        bbAdvisorWallet = _bbAdvisorWallet;\n        bbReserveWallet = _bbReserveWallet;\n        bbNetworkGrowthWallet = _bbNetworkGrowthWallet;\n        bbFounderCoreStaffWallet = _bbFounderCoreStaffWallet;\n        bbPublicSaleWallet = _bbPublicSaleWallet;\n        \n        saleStartTime = startTime;\n        saleEndTime = endTime;\n        transferOwnership(admin); // admin could drain tokens that were sent here by mistake\n    }\n\n    function setTimeSale(uint startTime, uint endTime) onlyOwner public {\n        require (now < saleStartTime || now > saleEndTime);\n        require (now < startTime);\n        require ( startTime < endTime);\n        saleStartTime = startTime;\n        saleEndTime = endTime;\n    }\n\n    function setTokenSaleContract(address _tokenSaleContract) onlyOwner public {\n        // check address ! 0\n        require(_tokenSaleContract != address(0x0));\n        // do not allow run when saleStartTime <= now <= saleEndTime\n        require (now < saleStartTime || now > saleEndTime);\n\n        tokenSaleContract = _tokenSaleContract;\n    }\n    function transfer(address _to, uint _value)\n        onlyWhenTransferEnabled\n        validDestination(_to)\n        validFrom(msg.sender)\n        public \n        returns (bool) {\n        if (msg.sender == bbFounderCoreStaffWallet || msg.sender == bbAdvisorWallet|| \n            msg.sender == bbAirdropWallet|| msg.sender == bbNetworkGrowthWallet|| msg.sender == bbReserveWallet){\n\n            // check maxAllowedAmount\n            var withdrawAmount =  maxAllowedAmount[msg.sender]; \n            var defaultAllowAmount = checkMaxAllowed(msg.sender);\n            var maxAmount = defaultAllowAmount - withdrawAmount;\n            // _value transfer must <= maxAmount\n            require(maxAmount >= _value); // \n\n            // if maxAmount = 0, need to block this msg.sender\n            if(maxAmount==_value){\n               \n                var isTransfer = super.transfer(_to, _value);\n                 // freeze account\n                selfFreeze(true, 24 * 3600); // temp freeze account 24h\n                maxAllowedAmount[msg.sender] = 0;\n                return isTransfer;\n            }else{\n                // set max withdrawAmount\n                maxAllowedAmount[msg.sender] = maxAllowedAmount[msg.sender].add(_value); // \n                \n            }\n        }\n        return  super.transfer(_to, _value);\n            \n    }\n\n    function transferPrivateSale(address _to, uint _value)\n        onlyOwner\n        onlyPrivateListEnabled(_to) \n        public \n        returns (bool) {\n         return transfer( _to,  _value);\n    }\n\n    function transferFrom(address _from, address _to, uint _value)\n        onlyWhenTransferEnabled\n        validDestination(_to)\n        validFrom(_from)\n        public \n        returns (bool) {\n            if (_from == bbFounderCoreStaffWallet || _from == bbAdvisorWallet|| \n                _from == bbAirdropWallet|| _from == bbNetworkGrowthWallet|| _from == bbReserveWallet){\n\n                  // check maxAllowedAmount\n                var withdrawAmount =  maxAllowedAmount[_from]; \n                var defaultAllowAmount = checkMaxAllowed(_from);\n                var maxAmount = defaultAllowAmount - withdrawAmount; \n                // _value transfer must <= maxAmount\n                require(maxAmount >= _value); \n\n                // if maxAmount = 0, need to block this _from\n                if(maxAmount==_value){\n                   \n                    var isTransfer = super.transfer(_to, _value);\n                     // freeze account\n                    selfFreeze(true, 24 * 3600); \n                    maxAllowedAmount[_from] = 0;\n                    return isTransfer;\n                }else{\n                    // set max withdrawAmount\n                    maxAllowedAmount[_from] = maxAllowedAmount[_from].add(_value); \n                    \n                }\n            }\n            return super.transferFrom(_from, _to, _value);\n    }\n\n    event Burn(address indexed _burner, uint _value);\n\n    function burn(uint _value) onlyWhenTransferEnabled\n        public \n        returns (bool){\n        balances[msg.sender] = balances[msg.sender].sub(_value);\n        totalSupply = totalSupply.sub(_value);\n        Burn(msg.sender, _value);\n        Transfer(msg.sender, address(0x0), _value);\n        return true;\n    }\n\n    // save some gas by making only one contract call\n    function burnFrom(address _from, uint256 _value) onlyWhenTransferEnabled\n        public \n        returns (bool) {\n        assert( transferFrom( _from, msg.sender, _value ) );\n        return burn(_value);\n    }\n\n    function emergencyERC20Drain( ERC20 token, uint amount ) onlyOwner public {\n        token.transfer( owner, amount );\n    }\n}\n",
  "sourcePath": "/Users/yena/Documents/tuongnguyen/BigBomTokenSale/contracts/BigbomToken.sol",
  "compiler": {
    "name": "solc",
    "version": "0.4.19+commit.c4cbbb05.Emscripten.clang"
  },
  "schemaVersion": "2.0.0",
  "updatedAt": "2018-04-23T14:55:47.810Z"
}