{
  "contractName": "BigbomTokenSecondSale",
  "abi": [
    {
      "constant": true,
      "inputs": [],
      "name": "openSaleStartTime",
      "outputs": [
        {
          "name": "",
          "type": "uint256"
        }
      ],
      "payable": false,
      "stateMutability": "view",
      "type": "function"
    },
    {
      "constant": true,
      "inputs": [],
      "name": "list",
      "outputs": [
        {
          "name": "",
          "type": "address"
        }
      ],
      "payable": false,
      "stateMutability": "view",
      "type": "function"
    },
    {
      "constant": true,
      "inputs": [],
      "name": "haltSale",
      "outputs": [
        {
          "name": "",
          "type": "bool"
        }
      ],
      "payable": false,
      "stateMutability": "view",
      "type": "function"
    },
    {
      "constant": true,
      "inputs": [],
      "name": "bigbomMultiSigWallet",
      "outputs": [
        {
          "name": "",
          "type": "address"
        }
      ],
      "payable": false,
      "stateMutability": "view",
      "type": "function"
    },
    {
      "constant": true,
      "inputs": [
        {
          "name": "",
          "type": "address"
        }
      ],
      "name": "participated",
      "outputs": [
        {
          "name": "",
          "type": "uint256"
        }
      ],
      "payable": false,
      "stateMutability": "view",
      "type": "function"
    },
    {
      "constant": true,
      "inputs": [],
      "name": "raisedWei",
      "outputs": [
        {
          "name": "",
          "type": "uint256"
        }
      ],
      "payable": false,
      "stateMutability": "view",
      "type": "function"
    },
    {
      "constant": true,
      "inputs": [],
      "name": "openSaleEndTime",
      "outputs": [
        {
          "name": "",
          "type": "uint256"
        }
      ],
      "payable": false,
      "stateMutability": "view",
      "type": "function"
    },
    {
      "constant": true,
      "inputs": [],
      "name": "admin",
      "outputs": [
        {
          "name": "",
          "type": "address"
        }
      ],
      "payable": false,
      "stateMutability": "view",
      "type": "function"
    },
    {
      "constant": true,
      "inputs": [],
      "name": "token",
      "outputs": [
        {
          "name": "",
          "type": "address"
        }
      ],
      "payable": false,
      "stateMutability": "view",
      "type": "function"
    },
    {
      "inputs": [
        {
          "name": "_admin",
          "type": "address"
        },
        {
          "name": "_bigbomMultiSigWallet",
          "type": "address"
        },
        {
          "name": "_whilteListContract",
          "type": "address"
        },
        {
          "name": "_publicSaleStartTime",
          "type": "uint256"
        },
        {
          "name": "_publicSaleEndTime",
          "type": "uint256"
        },
        {
          "name": "_token",
          "type": "address"
        }
      ],
      "payable": false,
      "stateMutability": "nonpayable",
      "type": "constructor"
    },
    {
      "payable": true,
      "stateMutability": "payable",
      "type": "fallback"
    },
    {
      "anonymous": false,
      "inputs": [
        {
          "indexed": false,
          "name": "_buyer",
          "type": "address"
        },
        {
          "indexed": false,
          "name": "_tokens",
          "type": "uint256"
        },
        {
          "indexed": false,
          "name": "_payedWei",
          "type": "uint256"
        },
        {
          "indexed": false,
          "name": "_bonus",
          "type": "uint256"
        }
      ],
      "name": "Buy",
      "type": "event"
    },
    {
      "anonymous": false,
      "inputs": [],
      "name": "FinalizeSale",
      "type": "event"
    },
    {
      "anonymous": false,
      "inputs": [
        {
          "indexed": false,
          "name": "_buyer",
          "type": "address"
        },
        {
          "indexed": false,
          "name": "_tokens",
          "type": "uint256"
        },
        {
          "indexed": false,
          "name": "_payedWei",
          "type": "uint256"
        },
        {
          "indexed": false,
          "name": "_bonus",
          "type": "uint256"
        },
        {
          "indexed": false,
          "name": "depositTx",
          "type": "string"
        }
      ],
      "name": "Erc20Buy",
      "type": "event"
    },
    {
      "anonymous": false,
      "inputs": [
        {
          "indexed": false,
          "name": "_buyer",
          "type": "address"
        },
        {
          "indexed": false,
          "name": "_erc20RefundAmount",
          "type": "uint256"
        }
      ],
      "name": "Erc20Refund",
      "type": "event"
    },
    {
      "constant": true,
      "inputs": [],
      "name": "saleEnded",
      "outputs": [
        {
          "name": "",
          "type": "bool"
        }
      ],
      "payable": false,
      "stateMutability": "view",
      "type": "function"
    },
    {
      "constant": true,
      "inputs": [],
      "name": "saleStarted",
      "outputs": [
        {
          "name": "",
          "type": "bool"
        }
      ],
      "payable": false,
      "stateMutability": "view",
      "type": "function"
    },
    {
      "constant": false,
      "inputs": [
        {
          "name": "halt",
          "type": "bool"
        }
      ],
      "name": "setHaltSale",
      "outputs": [],
      "payable": false,
      "stateMutability": "nonpayable",
      "type": "function"
    },
    {
      "constant": true,
      "inputs": [
        {
          "name": "contributor",
          "type": "address"
        }
      ],
      "name": "contributorMinCap",
      "outputs": [
        {
          "name": "",
          "type": "uint256"
        }
      ],
      "payable": false,
      "stateMutability": "view",
      "type": "function"
    },
    {
      "constant": true,
      "inputs": [
        {
          "name": "contributor",
          "type": "address"
        },
        {
          "name": "amountInWei",
          "type": "uint256"
        }
      ],
      "name": "contributorMaxCap",
      "outputs": [
        {
          "name": "",
          "type": "uint256"
        }
      ],
      "payable": false,
      "stateMutability": "view",
      "type": "function"
    },
    {
      "constant": true,
      "inputs": [
        {
          "name": "_tokens",
          "type": "uint256"
        }
      ],
      "name": "getBonus",
      "outputs": [
        {
          "name": "",
          "type": "uint256"
        }
      ],
      "payable": false,
      "stateMutability": "pure",
      "type": "function"
    },
    {
      "constant": false,
      "inputs": [
        {
          "name": "recipient",
          "type": "address"
        }
      ],
      "name": "buy",
      "outputs": [
        {
          "name": "",
          "type": "uint256"
        }
      ],
      "payable": true,
      "stateMutability": "payable",
      "type": "function"
    },
    {
      "constant": false,
      "inputs": [],
      "name": "finalizeSale",
      "outputs": [],
      "payable": false,
      "stateMutability": "nonpayable",
      "type": "function"
    },
    {
      "constant": false,
      "inputs": [
        {
          "name": "anyToken",
          "type": "address"
        }
      ],
      "name": "emergencyDrain",
      "outputs": [
        {
          "name": "",
          "type": "bool"
        }
      ],
      "payable": false,
      "stateMutability": "nonpayable",
      "type": "function"
    },
    {
      "constant": false,
      "inputs": [],
      "name": "debugBuy",
      "outputs": [],
      "payable": true,
      "stateMutability": "payable",
      "type": "function"
    },
    {
      "constant": true,
      "inputs": [
        {
          "name": "erc20Name",
          "type": "string"
        }
      ],
      "name": "getErc20Rate",
      "outputs": [
        {
          "name": "",
          "type": "uint256"
        }
      ],
      "payable": false,
      "stateMutability": "view",
      "type": "function"
    },
    {
      "constant": false,
      "inputs": [
        {
          "name": "erc20Name",
          "type": "string"
        },
        {
          "name": "rate",
          "type": "uint256"
        }
      ],
      "name": "setErc20Rate",
      "outputs": [],
      "payable": false,
      "stateMutability": "nonpayable",
      "type": "function"
    },
    {
      "constant": true,
      "inputs": [
        {
          "name": "_tx",
          "type": "string"
        }
      ],
      "name": "getDepositTxMap",
      "outputs": [
        {
          "name": "",
          "type": "uint256"
        }
      ],
      "payable": false,
      "stateMutability": "view",
      "type": "function"
    },
    {
      "constant": false,
      "inputs": [
        {
          "name": "recipient",
          "type": "address"
        },
        {
          "name": "erc20Amount",
          "type": "uint256"
        },
        {
          "name": "erc20Name",
          "type": "string"
        },
        {
          "name": "depositTx",
          "type": "string"
        }
      ],
      "name": "erc20Buy",
      "outputs": [
        {
          "name": "",
          "type": "uint256"
        }
      ],
      "payable": false,
      "stateMutability": "nonpayable",
      "type": "function"
    }
  ],
  "bytecode": "0x6060604052341561000f57600080fd5b60405160c080611d9383398101604052808051906020019091908051906020019091908051906020019091908051906020019091908051906020019091908051906020019091905050818310151561006657600080fd5b600073ffffffffffffffffffffffffffffffffffffffff168673ffffffffffffffffffffffffffffffffffffffff16141515156100a257600080fd5b600073ffffffffffffffffffffffffffffffffffffffff168573ffffffffffffffffffffffffffffffffffffffff16141515156100de57600080fd5b600073ffffffffffffffffffffffffffffffffffffffff168473ffffffffffffffffffffffffffffffffffffffff161415151561011a57600080fd5b600073ffffffffffffffffffffffffffffffffffffffff168173ffffffffffffffffffffffffffffffffffffffff161415151561015657600080fd5b856000806101000a81548173ffffffffffffffffffffffffffffffffffffffff021916908373ffffffffffffffffffffffffffffffffffffffff16021790555084600160006101000a81548173ffffffffffffffffffffffffffffffffffffffff021916908373ffffffffffffffffffffffffffffffffffffffff16021790555083600760006101000a81548173ffffffffffffffffffffffffffffffffffffffff021916908373ffffffffffffffffffffffffffffffffffffffff160217905550826005819055508160068190555080600260006101000a81548173ffffffffffffffffffffffffffffffffffffffff021916908373ffffffffffffffffffffffffffffffffffffffff160217905550505050505050611b178061027c6000396000f300606060405260043610610133576000357c0100000000000000000000000000000000000000000000000000000000900463ffffffff168063053e31691461013f5780630992e4c3146101685780630f560cd7146101be578063361b94be146102135780634aa66b281461026057806358a687ec146102975780635c474f9e146102ac5780635fbaa390146102d957806361ef8d911461030657806362aac84d1461036c57806371a18bfb146103915780639b8906ae146103e25780639d119a7b1461040f578063a6f07a5c14610480578063b1f56187146104d5578063b3bd870a146104df578063bc59d45a1461052c578063e00be2a914610555578063e58018c5146105c6578063f088d547146105ef578063f851a44014610631578063faa5ca9314610686578063fc0c546a14610762575b61013c336107b7565b50005b341561014a57600080fd5b610152610a7b565b6040518082815260200191505060405180910390f35b341561017357600080fd5b6101a8600480803573ffffffffffffffffffffffffffffffffffffffff16906020019091908035906020019091905050610a81565b6040518082815260200191505060405180910390f35b34156101c957600080fd5b6101d1610bea565b604051808273ffffffffffffffffffffffffffffffffffffffff1673ffffffffffffffffffffffffffffffffffffffff16815260200191505060405180910390f35b341561021e57600080fd5b61024a600480803573ffffffffffffffffffffffffffffffffffffffff16906020019091905050610c10565b6040518082815260200191505060405180910390f35b341561026b57600080fd5b6102816004808035906020019091905050610cf9565b6040518082815260200191505060405180910390f35b34156102a257600080fd5b6102aa610d29565b005b34156102b757600080fd5b6102bf610efe565b604051808215151515815260200191505060405180910390f35b34156102e457600080fd5b6102ec610f0b565b604051808215151515815260200191505060405180910390f35b341561031157600080fd5b61036a600480803590602001908201803590602001908080601f01602080910402602001604051908101604052809392919081815260200183838082843782019150505050505091908035906020019091905050610f1e565b005b341561037757600080fd5b61038f60048080351515906020019091905050610fed565b005b341561039c57600080fd5b6103c8600480803573ffffffffffffffffffffffffffffffffffffffff16906020019091905050611065565b604051808215151515815260200191505060405180910390f35b34156103ed57600080fd5b6103f5611303565b604051808215151515815260200191505060405180910390f35b341561041a57600080fd5b61046a600480803590602001908201803590602001908080601f0160208091040260200160405190810160405280939291908181526020018383808284378201915050505050509190505061130f565b6040518082815260200191505060405180910390f35b341561048b57600080fd5b610493611384565b604051808273ffffffffffffffffffffffffffffffffffffffff1673ffffffffffffffffffffffffffffffffffffffff16815260200191505060405180910390f35b6104dd6113aa565b005b34156104ea57600080fd5b610516600480803573ffffffffffffffffffffffffffffffffffffffff169060200190919050506113c4565b6040518082815260200191505060405180910390f35b341561053757600080fd5b61053f6113dc565b6040518082815260200191505060405180910390f35b341561056057600080fd5b6105b0600480803590602001908201803590602001908080601f016020809104026020016040519081016040528093929190818152602001838380828437820191505050505050919050506113e2565b6040518082815260200191505060405180910390f35b34156105d157600080fd5b6105d9611457565b6040518082815260200191505060405180910390f35b61061b600480803573ffffffffffffffffffffffffffffffffffffffff169060200190919050506107b7565b6040518082815260200191505060405180910390f35b341561063c57600080fd5b61064461145d565b604051808273ffffffffffffffffffffffffffffffffffffffff1673ffffffffffffffffffffffffffffffffffffffff16815260200191505060405180910390f35b341561069157600080fd5b61074c600480803573ffffffffffffffffffffffffffffffffffffffff1690602001909190803590602001909190803590602001908201803590602001908080601f0160208091040260200160405190810160405280939291908181526020018383808284378201915050505050509190803590602001908201803590602001908080601f01602080910402602001604051908101604052809392919081815260200183838082843782019150505050505091905050611482565b6040518082815260200191505060405180910390f35b341561076d57600080fd5b610775611925565b604051808273ffffffffffffffffffffffffffffffffffffffff1673ffffffffffffffffffffffffffffffffffffffff16815260200191505060405180910390f35b600080600080600080600460009054906101000a900460ff161515156107dc57600080fd5b6107e4610efe565b15156107ef57600080fd5b6107f7611303565b15151561080357600080fd5b61080c87610c10565b9450610818873461194b565b935034925060008511151561082c57600080fd5b60008411151561083b57600080fd5b84341015151561084a57600080fd5b833411156108a8578392503373ffffffffffffffffffffffffffffffffffffffff166108fc61088286346119f990919063ffffffff16565b9081150290604051600060405180830381858888f1935050505015156108a757600080fd5b5b6108b183611a12565b6108c683600354611a7790919063ffffffff16565b6003819055506108e1614e2084611a9590919063ffffffff16565b91506108ec82610cf9565b90506109018183611a7790919063ffffffff16565b9150600260009054906101000a900473ffffffffffffffffffffffffffffffffffffffff1673ffffffffffffffffffffffffffffffffffffffff1663a9059cbb88846000604051602001526040518363ffffffff167c0100000000000000000000000000000000000000000000000000000000028152600401808373ffffffffffffffffffffffffffffffffffffffff1673ffffffffffffffffffffffffffffffffffffffff16815260200182815260200192505050602060405180830381600087803b15156109d057600080fd5b6102c65a03f115156109e157600080fd5b5050506040518051905015156109f357fe5b7fbeae048c6d270d9469f86cf6e8fedda3c60ad770f16c24c9fc131c8e9a09101d87838584604051808573ffffffffffffffffffffffffffffffffffffffff1673ffffffffffffffffffffffffffffffffffffffff16815260200184815260200183815260200182815260200194505050505060405180910390a13495505050505050919050565b60055481565b6000806000600760009054906101000a900473ffffffffffffffffffffffffffffffffffffffff1673ffffffffffffffffffffffffffffffffffffffff166394a5601a866000604051602001526040518263ffffffff167c0100000000000000000000000000000000000000000000000000000000028152600401808273ffffffffffffffffffffffffffffffffffffffff1673ffffffffffffffffffffffffffffffffffffffff168152602001915050602060405180830381600087803b1515610b4b57600080fd5b6102c65a03f11515610b5c57600080fd5b5050506040518051905091506000821415610b7a5760009250610be2565b610bcc600860008773ffffffffffffffffffffffffffffffffffffffff1673ffffffffffffffffffffffffffffffffffffffff16815260200190815260200160002054836119f990919063ffffffff16565b905083811115610bde57839250610be2565b8092505b505092915050565b600760009054906101000a900473ffffffffffffffffffffffffffffffffffffffff1681565b6000600760009054906101000a900473ffffffffffffffffffffffffffffffffffffffff1673ffffffffffffffffffffffffffffffffffffffff166330184635836000604051602001526040518263ffffffff167c0100000000000000000000000000000000000000000000000000000000028152600401808273ffffffffffffffffffffffffffffffffffffffff1673ffffffffffffffffffffffffffffffffffffffff168152602001915050602060405180830381600087803b1515610cd757600080fd5b6102c65a03f11515610ce857600080fd5b505050604051805190509050919050565b6000610d226064610d14600a85611a9590919063ffffffff16565b611ad090919063ffffffff16565b9050919050565b610d31611303565b1515610d3c57600080fd5b600260009054906101000a900473ffffffffffffffffffffffffffffffffffffffff1673ffffffffffffffffffffffffffffffffffffffff166342966c68600260009054906101000a900473ffffffffffffffffffffffffffffffffffffffff1673ffffffffffffffffffffffffffffffffffffffff166370a08231306000604051602001526040518263ffffffff167c0100000000000000000000000000000000000000000000000000000000028152600401808273ffffffffffffffffffffffffffffffffffffffff1673ffffffffffffffffffffffffffffffffffffffff168152602001915050602060405180830381600087803b1515610e3f57600080fd5b6102c65a03f11515610e5057600080fd5b505050604051805190506000604051602001526040518263ffffffff167c010000000000000000000000000000000000000000000000000000000002815260040180828152602001915050602060405180830381600087803b1515610eb457600080fd5b6102c65a03f11515610ec557600080fd5b50505060405180519050507f49943394d1d9872d58364da1ca74d2b7af3f9be1146ac3c37513b0b1cb97ae2b60405160405180910390a1565b6000600554421015905090565b600460009054906101000a900460ff1681565b6000809054906101000a900473ffffffffffffffffffffffffffffffffffffffff1673ffffffffffffffffffffffffffffffffffffffff163373ffffffffffffffffffffffffffffffffffffffff16141515610f7957600080fd5b80600a836040518082805190602001908083835b602083101515610fb25780518252602082019150602081019050602083039250610f8d565b6001836020036101000a0380198251168184511680821785525050505050509050019150509081526020016040518091039020819055505050565b6000809054906101000a900473ffffffffffffffffffffffffffffffffffffffff1673ffffffffffffffffffffffffffffffffffffffff163373ffffffffffffffffffffffffffffffffffffffff1614151561104857600080fd5b80600460006101000a81548160ff02191690831515021790555050565b60008060009054906101000a900473ffffffffffffffffffffffffffffffffffffffff1673ffffffffffffffffffffffffffffffffffffffff163373ffffffffffffffffffffffffffffffffffffffff161415156110c257600080fd5b6110ca611303565b15156110d557600080fd5b60003073ffffffffffffffffffffffffffffffffffffffff16311115611116576111153073ffffffffffffffffffffffffffffffffffffffff1631611a12565b5b600073ffffffffffffffffffffffffffffffffffffffff168273ffffffffffffffffffffffffffffffffffffffff161415156112fa578173ffffffffffffffffffffffffffffffffffffffff1663a9059cbb600160009054906101000a900473ffffffffffffffffffffffffffffffffffffffff168473ffffffffffffffffffffffffffffffffffffffff166370a08231306000604051602001526040518263ffffffff167c0100000000000000000000000000000000000000000000000000000000028152600401808273ffffffffffffffffffffffffffffffffffffffff1673ffffffffffffffffffffffffffffffffffffffff168152602001915050602060405180830381600087803b151561122e57600080fd5b6102c65a03f1151561123f57600080fd5b505050604051805190506000604051602001526040518363ffffffff167c0100000000000000000000000000000000000000000000000000000000028152600401808373ffffffffffffffffffffffffffffffffffffffff1673ffffffffffffffffffffffffffffffffffffffff16815260200182815260200192505050602060405180830381600087803b15156112d657600080fd5b6102c65a03f115156112e757600080fd5b5050506040518051905015156112f957fe5b5b60019050919050565b60006006544211905090565b60006009826040518082805190602001908083835b6020831015156113495780518252602082019150602081019050602083039250611324565b6001836020036101000a0380198251168184511680821785525050505050509050019150509081526020016040518091039020549050919050565b600160009054906101000a900473ffffffffffffffffffffffffffffffffffffffff1681565b6000341115156113b957600080fd5b6113c234611a12565b565b60086020528060005260406000206000915090505481565b60035481565b6000600a826040518082805190602001908083835b60208310151561141c57805182526020820191506020810190506020830392506113f7565b6001836020036101000a0380198251168184511680821785525050505050509050019150509081526020016040518091039020549050919050565b60065481565b6000809054906101000a900473ffffffffffffffffffffffffffffffffffffffff1681565b6000806000806000806000806000809054906101000a900473ffffffffffffffffffffffffffffffffffffffff1673ffffffffffffffffffffffffffffffffffffffff163373ffffffffffffffffffffffffffffffffffffffff161415156114e957600080fd5b600460009054906101000a900460ff1615151561150557600080fd5b61150d610efe565b151561151857600080fd5b611520611303565b15151561152c57600080fd5b670de0b6b3a76400008b61153f8c6113e2565b0281151561154957fe5b0496506115558c610c10565b95506115618c8861194b565b9450600061156e8a61130f565b14151561157a57600080fd5b60008711151561158957600080fd5b86935060008611151561159b57600080fd5b6000851115156115aa57600080fd5b8587101515156115b957600080fd5b848711156116795784935061160b6115d08b6113e2565b6115fd670de0b6b3a76400006115ef898c6119f990919063ffffffff16565b611a9590919063ffffffff16565b611ad090919063ffffffff16565b92507fa5b86bc27c7e66ec8dcbef387507a53c7512ecf23c9c6bf284fbe8a1b0ccf8f98c84604051808373ffffffffffffffffffffffffffffffffffffffff1673ffffffffffffffffffffffffffffffffffffffff1681526020018281526020019250505060405180910390a15b61168e84600354611a7790919063ffffffff16565b6003819055506116a9614e2085611a9590919063ffffffff16565b91506116b482610cf9565b90506116c98183611a7790919063ffffffff16565b9150600260009054906101000a900473ffffffffffffffffffffffffffffffffffffffff1673ffffffffffffffffffffffffffffffffffffffff1663a9059cbb8d846000604051602001526040518363ffffffff167c0100000000000000000000000000000000000000000000000000000000028152600401808373ffffffffffffffffffffffffffffffffffffffff1673ffffffffffffffffffffffffffffffffffffffff16815260200182815260200192505050602060405180830381600087803b151561179857600080fd5b6102c65a03f115156117a957600080fd5b5050506040518051905015156117bb57fe5b8660098a6040518082805190602001908083835b6020831015156117f457805182526020820191506020810190506020830392506117cf565b6001836020036101000a0380198251168184511680821785525050505050509050019150509081526020016040518091039020819055507ff25d3860625e04323372db6e6d9c615084035d7493695cb9571d947e5d3ebcb88c8386848d604051808673ffffffffffffffffffffffffffffffffffffffff1673ffffffffffffffffffffffffffffffffffffffff16815260200185815260200184815260200183815260200180602001828103825283818151815260200191508051906020019080838360005b838110156118d55780820151818401526020810190506118ba565b50505050905090810190601f1680156119025780820380516001836020036101000a031916815260200191505b50965050505050505060405180910390a183975050505050505050949350505050565b600260009054906101000a900473ffffffffffffffffffffffffffffffffffffffff1681565b6000806119588484610a81565b90506119ac81600860008773ffffffffffffffffffffffffffffffffffffffff1673ffffffffffffffffffffffffffffffffffffffff16815260200190815260200160002054611a7790919063ffffffff16565b600860008673ffffffffffffffffffffffffffffffffffffffff1673ffffffffffffffffffffffffffffffffffffffff168152602001908152602001600020819055508091505092915050565b6000828211151515611a0757fe5b818303905092915050565b600160009054906101000a900473ffffffffffffffffffffffffffffffffffffffff1673ffffffffffffffffffffffffffffffffffffffff166108fc829081150290604051600060405180830381858888f193505050501515611a7457600080fd5b50565b6000808284019050838110151515611a8b57fe5b8091505092915050565b6000806000841415611aaa5760009150611ac9565b8284029050828482811515611abb57fe5b04141515611ac557fe5b8091505b5092915050565b6000808284811515611ade57fe5b04905080915050929150505600a165627a7a723058200207040e51e7c384c30fe95cc7f4aa35b785dbd8e028a8f53a7e8452dc73e9950029",
  "source": "pragma solidity ^0.4.19;\n\nimport './BigbomTokenExtended.sol';\nimport './zeppelin/ownership/Ownable.sol';\nimport './BigbomContributorWhiteList.sol';\nimport './BigbomPrivateSaleList.sol';\nimport './zeppelin/math/SafeMath.sol';\n\ncontract BigbomTokenSecondSale{\n    address             public admin;\n    address             public bigbomMultiSigWallet;\n    BigbomTokenExtended         public token;\n    uint                public raisedWei;\n    bool                public haltSale;\n    uint                public openSaleStartTime;\n    uint                public openSaleEndTime;\n    \n\n    BigbomContributorWhiteList public list;\n\n    mapping(address=>uint)    public participated;\n    mapping(string=>uint)     depositTxMap;\n    mapping(string=>uint)     erc20Rate;\n\n    using SafeMath for uint;\n\n    function BigbomTokenSecondSale( address _admin,\n                              address _bigbomMultiSigWallet,\n                              BigbomContributorWhiteList _whilteListContract,\n                              uint _publicSaleStartTime,\n                              uint _publicSaleEndTime,\n                              BigbomTokenExtended _token) public       \n    {\n        require (_publicSaleStartTime < _publicSaleEndTime);\n        require (_admin != address(0x0));\n        require (_bigbomMultiSigWallet != address(0x0));\n        require (_whilteListContract != address(0x0));\n        require (_token != address(0x0));\n\n        admin = _admin;\n        bigbomMultiSigWallet = _bigbomMultiSigWallet;\n        list = _whilteListContract;\n        openSaleStartTime = _publicSaleStartTime;\n        openSaleEndTime = _publicSaleEndTime;\n        token = _token;\n    }\n    \n    function saleEnded() public constant returns(bool) {\n        return now > openSaleEndTime;\n    }\n\n    function saleStarted() public constant returns(bool) {\n        return now >= openSaleStartTime;\n    }\n\n    function setHaltSale( bool halt ) public {\n        require( msg.sender == admin );\n        haltSale = halt;\n    }\n    // this is a seperate function so user could query it before crowdsale starts\n    function contributorMinCap( address contributor ) public constant returns(uint) {\n        return list.getMinCap( contributor );\n    }\n    function contributorMaxCap( address contributor, uint amountInWei ) public constant returns(uint) {\n        uint cap = list.getMaxCap( contributor );\n        if( cap == 0 ) return 0;\n        uint remainedCap = cap.sub( participated[ contributor ] );\n\n        if( remainedCap > amountInWei ) return amountInWei;\n        else return remainedCap;\n    }\n\n    function checkMaxCap( address contributor, uint amountInWei ) internal returns(uint) {\n        uint result = contributorMaxCap( contributor, amountInWei );\n        participated[contributor] = participated[contributor].add( result );\n        return result;\n    }\n\n    function() payable public {\n        buy( msg.sender );\n    }\n\n\n\n    function getBonus(uint _tokens) public pure returns (uint){\n        return _tokens.mul(10).div(100);\n    }\n\n    event Buy( address _buyer, uint _tokens, uint _payedWei, uint _bonus );\n    function buy( address recipient ) payable public returns(uint){\n        //require( tx.gasprice <= 50000000000 wei );\n\n        require( ! haltSale );\n        require( saleStarted() );\n        require( ! saleEnded() );\n\n        uint mincap = contributorMinCap(recipient);\n\n        uint maxcap = checkMaxCap(recipient, msg.value );\n        uint allowValue = msg.value;\n        require( mincap > 0 );\n        require( maxcap > 0 );\n        // fail if msg.value < mincap\n        require (msg.value >= mincap);\n        // send to msg.sender, not to recipient if value > maxcap\n        if( msg.value > maxcap  ) {\n            allowValue = maxcap;\n            //require (allowValue >= mincap);\n            msg.sender.transfer( msg.value.sub( maxcap ) );\n        }\n\n        // send payment to wallet\n        sendETHToMultiSig(allowValue);\n        raisedWei = raisedWei.add( allowValue );\n        // 1ETH = 20000 BBO\n        uint recievedTokens = allowValue.mul( 20000 );\n        // TODO bounce\n        uint bonus = getBonus(recievedTokens);\n        \n        recievedTokens = recievedTokens.add(bonus);\n        assert( token.transfer( recipient, recievedTokens ) );\n        //\n\n        Buy( recipient, recievedTokens, allowValue, bonus );\n\n        return msg.value;\n    }\n\n    function sendETHToMultiSig( uint value ) internal {\n        bigbomMultiSigWallet.transfer( value );\n    }\n\n    event FinalizeSale();\n    // function is callable by everyone\n    function finalizeSale() public {\n        require( saleEnded() );\n        //require( msg.sender == admin );\n\n        // burn remaining tokens\n        token.burn(token.balanceOf(this));\n\n        FinalizeSale();\n    }\n\n    // ETH balance is always expected to be 0.\n    // but in case something went wrong, we use this function to extract the eth.\n    function emergencyDrain(ERC20 anyToken) public returns(bool){\n        require( msg.sender == admin );\n        require( saleEnded() );\n\n        if( this.balance > 0 ) {\n            sendETHToMultiSig( this.balance );\n        }\n\n        if( anyToken != address(0x0) ) {\n            assert( anyToken.transfer(bigbomMultiSigWallet, anyToken.balanceOf(this)) );\n        }\n\n        return true;\n    }\n\n    // just to check that funds goes to the right place\n    // tokens are not given in return\n    function debugBuy() payable public {\n        require( msg.value > 0 );\n        sendETHToMultiSig( msg.value );\n    }\n\n    function getErc20Rate(string erc20Name) public constant returns(uint){\n        return erc20Rate[erc20Name];\n    }\n\n    function setErc20Rate(string erc20Name, uint rate) public{\n        require (msg.sender == admin);\n        erc20Rate[erc20Name] = rate;\n    }\n\n    function getDepositTxMap(string _tx) public constant returns(uint){\n        return depositTxMap[_tx];\n    }\n    event Erc20Buy( address _buyer, uint _tokens, uint _payedWei, uint _bonus, string depositTx );\n\n    event Erc20Refund( address _buyer, uint _erc20RefundAmount );\n    function erc20Buy( address recipient, uint erc20Amount, string erc20Name, string depositTx )  public returns(uint){\n        require (msg.sender == admin);\n        //require( tx.gasprice <= 50000000000 wei );\n\n        require( ! haltSale );\n        require( saleStarted() );\n        require( ! saleEnded() );\n        uint ethAmount = getErc20Rate(erc20Name) * erc20Amount / 1e18;\n        uint mincap = contributorMinCap(recipient);\n\n        uint maxcap = checkMaxCap(recipient, ethAmount );\n        require (getDepositTxMap(depositTx) == 0);\n        require (ethAmount > 0);\n        uint allowValue = ethAmount;\n        require( mincap > 0 );\n        require( maxcap > 0 );\n        // fail if msg.value < mincap\n        require (ethAmount >= mincap);\n        // send to msg.sender, not to recipient if value > maxcap\n        if( ethAmount > maxcap  ) {\n            allowValue = maxcap;\n            //require (allowValue >= mincap);\n            // send event refund\n            // msg.sender.transfer( ethAmount.sub( maxcap ) );\n            uint erc20RefundAmount = ethAmount.sub( maxcap ).mul(1e18).div(getErc20Rate(erc20Name));\n            Erc20Refund(recipient, erc20RefundAmount);\n        }\n\n        raisedWei = raisedWei.add( allowValue );\n        // 1ETH = 20000 BBO\n        uint recievedTokens = allowValue.mul( 20000 );\n        // TODO bounce\n        uint bonus = getBonus(recievedTokens);\n        \n        recievedTokens = recievedTokens.add(bonus);\n        assert( token.transfer( recipient, recievedTokens ) );\n        // set tx\n        depositTxMap[depositTx] = ethAmount;\n        //\n\n        Erc20Buy( recipient, recievedTokens, allowValue, bonus, depositTx);\n\n        return allowValue;\n    }\n\n}\n",
  "sourcePath": "/Users/applepen/Documents/git/bigbom/BigBomTokenSale/contracts/BigbomTokenSecondSale.sol",
  "compiler": {
    "name": "solc",
    "version": "0.4.19+commit.c4cbbb05.Emscripten.clang"
  },
  "schemaVersion": "2.0.0",
  "updatedAt": "2018-04-24T08:01:16.166Z"
}