{
  "contractName": "Killable",
  "abi": [
    {
      "inputs": [],
      "payable": true,
      "stateMutability": "payable",
      "type": "constructor"
    },
    {
      "constant": false,
      "inputs": [
        {
          "name": "to",
          "type": "address"
        }
      ],
      "name": "destroy",
      "outputs": [],
      "payable": false,
      "stateMutability": "nonpayable",
      "type": "function"
    }
  ],
  "bytecode": "0x606060405260be806100126000396000f300606060405260043610603e576000357c0100000000000000000000000000000000000000000000000000000000900463ffffffff168062f55d9d146043575b600080fd5b3415604d57600080fd5b6077600480803573ffffffffffffffffffffffffffffffffffffffff169060200190919050506079565b005b8073ffffffffffffffffffffffffffffffffffffffff16ff00a165627a7a723058207e64053e5c02f00f356656bf61c1278a8b9535c8b551f6583c4cf591733b310f0029",
  "source": "pragma solidity ^0.4.19;\n\ncontract Killable {\n    function Killable() payable {\n\n    }\n    \n    function destroy(address to) {\n        selfdestruct(to);    \n    }\n}",
  "sourcePath": "/Users/applepen/Documents/git/bigbom/BigBomTokenSale/contracts/mock/Killable.sol",
  "compiler": {
    "name": "solc",
    "version": "0.4.19+commit.c4cbbb05.Emscripten.clang"
  },
  "schemaVersion": "2.0.0",
  "updatedAt": "2018-03-07T15:37:29.280Z"
}