{
  "contractName": "TomoCoin",
  "abi": [
    {
      "constant": true,
      "inputs": [],
      "name": "name",
      "outputs": [
        {
          "name": "",
          "type": "string"
        }
      ],
      "payable": false,
      "stateMutability": "view",
      "type": "function"
    },
    {
      "constant": true,
      "inputs": [],
      "name": "tokenSaleAddress",
      "outputs": [
        {
          "name": "",
          "type": "address"
        }
      ],
      "payable": false,
      "stateMutability": "view",
      "type": "function"
    },
    {
      "constant": true,
      "inputs": [],
      "name": "totalSupply",
      "outputs": [
        {
          "name": "",
          "type": "uint256"
        }
      ],
      "payable": false,
      "stateMutability": "view",
      "type": "function"
    },
    {
      "constant": false,
      "inputs": [
        {
          "name": "_from",
          "type": "address"
        },
        {
          "name": "_to",
          "type": "address"
        },
        {
          "name": "_value",
          "type": "uint256"
        }
      ],
      "name": "transferFrom",
      "outputs": [
        {
          "name": "",
          "type": "bool"
        }
      ],
      "payable": false,
      "stateMutability": "nonpayable",
      "type": "function"
    },
    {
      "constant": true,
      "inputs": [],
      "name": "decimals",
      "outputs": [
        {
          "name": "",
          "type": "uint256"
        }
      ],
      "payable": false,
      "stateMutability": "view",
      "type": "function"
    },
    {
      "constant": false,
      "inputs": [],
      "name": "unpause",
      "outputs": [
        {
          "name": "",
          "type": "bool"
        }
      ],
      "payable": false,
      "stateMutability": "nonpayable",
      "type": "function"
    },
    {
      "constant": true,
      "inputs": [],
      "name": "paused",
      "outputs": [
        {
          "name": "",
          "type": "bool"
        }
      ],
      "payable": false,
      "stateMutability": "view",
      "type": "function"
    },
    {
      "constant": false,
      "inputs": [],
      "name": "pause",
      "outputs": [
        {
          "name": "",
          "type": "bool"
        }
      ],
      "payable": false,
      "stateMutability": "nonpayable",
      "type": "function"
    },
    {
      "constant": true,
      "inputs": [],
      "name": "owner",
      "outputs": [
        {
          "name": "",
          "type": "address"
        }
      ],
      "payable": false,
      "stateMutability": "view",
      "type": "function"
    },
    {
      "constant": true,
      "inputs": [],
      "name": "symbol",
      "outputs": [
        {
          "name": "",
          "type": "string"
        }
      ],
      "payable": false,
      "stateMutability": "view",
      "type": "function"
    },
    {
      "constant": true,
      "inputs": [],
      "name": "tomoDeposit",
      "outputs": [
        {
          "name": "",
          "type": "uint256"
        }
      ],
      "payable": false,
      "stateMutability": "view",
      "type": "function"
    },
    {
      "constant": true,
      "inputs": [
        {
          "name": "_owner",
          "type": "address"
        },
        {
          "name": "_spender",
          "type": "address"
        }
      ],
      "name": "allowance",
      "outputs": [
        {
          "name": "",
          "type": "uint256"
        }
      ],
      "payable": false,
      "stateMutability": "view",
      "type": "function"
    },
    {
      "constant": true,
      "inputs": [],
      "name": "tomoDepositAddress",
      "outputs": [
        {
          "name": "",
          "type": "address"
        }
      ],
      "payable": false,
      "stateMutability": "view",
      "type": "function"
    },
    {
      "constant": false,
      "inputs": [
        {
          "name": "newOwner",
          "type": "address"
        }
      ],
      "name": "transferOwnership",
      "outputs": [],
      "payable": false,
      "stateMutability": "nonpayable",
      "type": "function"
    },
    {
      "inputs": [
        {
          "name": "_tomoDepositAddress",
          "type": "address"
        }
      ],
      "payable": false,
      "stateMutability": "nonpayable",
      "type": "constructor"
    },
    {
      "anonymous": false,
      "inputs": [],
      "name": "Pause",
      "type": "event"
    },
    {
      "anonymous": false,
      "inputs": [],
      "name": "Unpause",
      "type": "event"
    },
    {
      "anonymous": false,
      "inputs": [
        {
          "indexed": true,
          "name": "from",
          "type": "address"
        },
        {
          "indexed": true,
          "name": "to",
          "type": "address"
        },
        {
          "indexed": false,
          "name": "value",
          "type": "uint256"
        }
      ],
      "name": "Transfer",
      "type": "event"
    },
    {
      "anonymous": false,
      "inputs": [
        {
          "indexed": true,
          "name": "owner",
          "type": "address"
        },
        {
          "indexed": true,
          "name": "spender",
          "type": "address"
        },
        {
          "indexed": false,
          "name": "value",
          "type": "uint256"
        }
      ],
      "name": "Approval",
      "type": "event"
    },
    {
      "constant": false,
      "inputs": [
        {
          "name": "_to",
          "type": "address"
        },
        {
          "name": "_value",
          "type": "uint256"
        }
      ],
      "name": "transfer",
      "outputs": [
        {
          "name": "success",
          "type": "bool"
        }
      ],
      "payable": false,
      "stateMutability": "nonpayable",
      "type": "function"
    },
    {
      "constant": false,
      "inputs": [
        {
          "name": "_spender",
          "type": "address"
        },
        {
          "name": "_value",
          "type": "uint256"
        }
      ],
      "name": "approve",
      "outputs": [
        {
          "name": "success",
          "type": "bool"
        }
      ],
      "payable": false,
      "stateMutability": "nonpayable",
      "type": "function"
    },
    {
      "constant": true,
      "inputs": [
        {
          "name": "_owner",
          "type": "address"
        }
      ],
      "name": "balanceOf",
      "outputs": [
        {
          "name": "balance",
          "type": "uint256"
        }
      ],
      "payable": false,
      "stateMutability": "view",
      "type": "function"
    },
    {
      "constant": false,
      "inputs": [
        {
          "name": "_tokenSaleAddress",
          "type": "address"
        }
      ],
      "name": "setTokenSaleAddress",
      "outputs": [],
      "payable": false,
      "stateMutability": "nonpayable",
      "type": "function"
    },
    {
      "constant": false,
      "inputs": [
        {
          "name": "_recipient",
          "type": "address"
        },
        {
          "name": "_value",
          "type": "uint256"
        }
      ],
      "name": "mint",
      "outputs": [
        {
          "name": "success",
          "type": "bool"
        }
      ],
      "payable": false,
      "stateMutability": "nonpayable",
      "type": "function"
    }
  ],
  "bytecode": "0x60606040526000600360146101000a81548160ff021916908315150217905550341561002a57600080fd5b6040516020806117f38339810160405280805190602001909190505033600360006101000a81548173ffffffffffffffffffffffffffffffffffffffff021916908373ffffffffffffffffffffffffffffffffffffffff16021790555080600560006101000a81548173ffffffffffffffffffffffffffffffffffffffff021916908373ffffffffffffffffffffffffffffffffffffffff1602179055506012600a0a6305f5e10002600080600560009054906101000a900473ffffffffffffffffffffffffffffffffffffffff1673ffffffffffffffffffffffffffffffffffffffff1673ffffffffffffffffffffffffffffffffffffffff16815260200190815260200160002081905550600560009054906101000a900473ffffffffffffffffffffffffffffffffffffffff1673ffffffffffffffffffffffffffffffffffffffff1660007fddf252ad1be2c89b69c2b068fc378daa952ba7f163c4a11628f55a4df523b3ef6012600a0a6305f5e100026040518082815260200191505060405180910390a36012600a0a6305f5e100026002819055505061161f806101d46000396000f300606060405260043610610107576000357c0100000000000000000000000000000000000000000000000000000000900463ffffffff16806306fdde031461010c578063095ea7b31461019a5780631448b3ca146101f457806318160ddd1461024957806323b872dd14610272578063313ce567146102eb5780633f4ba83a1461031457806340c10f19146103415780635afe52071461039b5780635c975abb146103d457806370a08231146104015780638456cb591461044e5780638da5cb5b1461047b57806395d89b41146104d0578063a9059cbb1461055e578063be16dccd146105b8578063dd62ed3e146105e1578063ebbfcfef1461064d578063f2fde38b146106a2575b600080fd5b341561011757600080fd5b61011f6106db565b6040518080602001828103825283818151815260200191508051906020019080838360005b8381101561015f578082015181840152602081019050610144565b50505050905090810190601f16801561018c5780820380516001836020036101000a031916815260200191505b509250505060405180910390f35b34156101a557600080fd5b6101da600480803573ffffffffffffffffffffffffffffffffffffffff16906020019091908035906020019091905050610714565b604051808215151515815260200191505060405180910390f35b34156101ff57600080fd5b610207610744565b604051808273ffffffffffffffffffffffffffffffffffffffff1673ffffffffffffffffffffffffffffffffffffffff16815260200191505060405180910390f35b341561025457600080fd5b61025c61076a565b6040518082815260200191505060405180910390f35b341561027d57600080fd5b6102d1600480803573ffffffffffffffffffffffffffffffffffffffff1690602001909190803573ffffffffffffffffffffffffffffffffffffffff16906020019091908035906020019091905050610774565b604051808215151515815260200191505060405180910390f35b34156102f657600080fd5b6102fe610b2e565b6040518082815260200191505060405180910390f35b341561031f57600080fd5b610327610b33565b604051808215151515815260200191505060405180910390f35b341561034c57600080fd5b610381600480803573ffffffffffffffffffffffffffffffffffffffff16906020019091908035906020019091905050610bfa565b604051808215151515815260200191505060405180910390f35b34156103a657600080fd5b6103d2600480803573ffffffffffffffffffffffffffffffffffffffff16906020019091905050610e7e565b005b34156103df57600080fd5b6103e7610f55565b604051808215151515815260200191505060405180910390f35b341561040c57600080fd5b610438600480803573ffffffffffffffffffffffffffffffffffffffff16906020019091905050610f68565b6040518082815260200191505060405180910390f35b341561045957600080fd5b610461610f7a565b604051808215151515815260200191505060405180910390f35b341561048657600080fd5b61048e611042565b604051808273ffffffffffffffffffffffffffffffffffffffff1673ffffffffffffffffffffffffffffffffffffffff16815260200191505060405180910390f35b34156104db57600080fd5b6104e3611068565b6040518080602001828103825283818151815260200191508051906020019080838360005b83811015610523578082015181840152602081019050610508565b50505050905090810190601f1680156105505780820380516001836020036101000a031916815260200191505b509250505060405180910390f35b341561056957600080fd5b61059e600480803573ffffffffffffffffffffffffffffffffffffffff169060200190919080359060200190919050506110a1565b604051808215151515815260200191505060405180910390f35b34156105c357600080fd5b6105cb6110d1565b6040518082815260200191505060405180910390f35b34156105ec57600080fd5b610637600480803573ffffffffffffffffffffffffffffffffffffffff1690602001909190803573ffffffffffffffffffffffffffffffffffffffff169060200190919050506110df565b6040518082815260200191505060405180910390f35b341561065857600080fd5b610660611166565b604051808273ffffffffffffffffffffffffffffffffffffffff1673ffffffffffffffffffffffffffffffffffffffff16815260200191505060405180910390f35b34156106ad57600080fd5b6106d9600480803573ffffffffffffffffffffffffffffffffffffffff1690602001909190505061118c565b005b6040805190810160405280600881526020017f546f6d6f636f696e00000000000000000000000000000000000000000000000081525081565b6000600360149054906101000a900460ff1615151561073257600080fd5b61073c8383611263565b905092915050565b600460009054906101000a900473ffffffffffffffffffffffffffffffffffffffff1681565b6000600254905090565b60008073ffffffffffffffffffffffffffffffffffffffff168373ffffffffffffffffffffffffffffffffffffffff16141515156107b157600080fd5b6000808573ffffffffffffffffffffffffffffffffffffffff1673ffffffffffffffffffffffffffffffffffffffff1681526020019081526020016000205482111515156107fe57600080fd5b600160008573ffffffffffffffffffffffffffffffffffffffff1673ffffffffffffffffffffffffffffffffffffffff16815260200190815260200160002060003373ffffffffffffffffffffffffffffffffffffffff1673ffffffffffffffffffffffffffffffffffffffff16815260200190815260200160002054821115151561088957600080fd5b6108da826000808773ffffffffffffffffffffffffffffffffffffffff1673ffffffffffffffffffffffffffffffffffffffff1681526020019081526020016000205461135590919063ffffffff16565b6000808673ffffffffffffffffffffffffffffffffffffffff1673ffffffffffffffffffffffffffffffffffffffff1681526020019081526020016000208190555061096d826000808673ffffffffffffffffffffffffffffffffffffffff1673ffffffffffffffffffffffffffffffffffffffff1681526020019081526020016000205461136e90919063ffffffff16565b6000808573ffffffffffffffffffffffffffffffffffffffff1673ffffffffffffffffffffffffffffffffffffffff16815260200190815260200160002081905550610a3e82600160008773ffffffffffffffffffffffffffffffffffffffff1673ffffffffffffffffffffffffffffffffffffffff16815260200190815260200160002060003373ffffffffffffffffffffffffffffffffffffffff1673ffffffffffffffffffffffffffffffffffffffff1681526020019081526020016000205461135590919063ffffffff16565b600160008673ffffffffffffffffffffffffffffffffffffffff1673ffffffffffffffffffffffffffffffffffffffff16815260200190815260200160002060003373ffffffffffffffffffffffffffffffffffffffff1673ffffffffffffffffffffffffffffffffffffffff168152602001908152602001600020819055508273ffffffffffffffffffffffffffffffffffffffff168473ffffffffffffffffffffffffffffffffffffffff167fddf252ad1be2c89b69c2b068fc378daa952ba7f163c4a11628f55a4df523b3ef846040518082815260200191505060405180910390a3600190509392505050565b601281565b6000600360009054906101000a900473ffffffffffffffffffffffffffffffffffffffff1673ffffffffffffffffffffffffffffffffffffffff163373ffffffffffffffffffffffffffffffffffffffff16141515610b9157600080fd5b600360149054906101000a900460ff161515610bac57600080fd5b6000600360146101000a81548160ff0219169083151502179055507f7805862f689e2f13df9f062ff482ad3ad112aca9e0847911ed832e158c525b3360405160405180910390a16001905090565b6000600360149054906101000a900460ff16151515610c1857600080fd5b600082111515610c2757600080fd5b600460009054906101000a900473ffffffffffffffffffffffffffffffffffffffff1673ffffffffffffffffffffffffffffffffffffffff163373ffffffffffffffffffffffffffffffffffffffff16141515610c8357600080fd5b610cf682600080600560009054906101000a900473ffffffffffffffffffffffffffffffffffffffff1673ffffffffffffffffffffffffffffffffffffffff1673ffffffffffffffffffffffffffffffffffffffff1681526020019081526020016000205461135590919063ffffffff16565b600080600560009054906101000a900473ffffffffffffffffffffffffffffffffffffffff1673ffffffffffffffffffffffffffffffffffffffff1673ffffffffffffffffffffffffffffffffffffffff16815260200190815260200160002081905550610dab826000808673ffffffffffffffffffffffffffffffffffffffff1673ffffffffffffffffffffffffffffffffffffffff1681526020019081526020016000205461136e90919063ffffffff16565b6000808573ffffffffffffffffffffffffffffffffffffffff1673ffffffffffffffffffffffffffffffffffffffff168152602001908152602001600020819055508273ffffffffffffffffffffffffffffffffffffffff16600560009054906101000a900473ffffffffffffffffffffffffffffffffffffffff1673ffffffffffffffffffffffffffffffffffffffff167fddf252ad1be2c89b69c2b068fc378daa952ba7f163c4a11628f55a4df523b3ef846040518082815260200191505060405180910390a36001905092915050565b600360009054906101000a900473ffffffffffffffffffffffffffffffffffffffff1673ffffffffffffffffffffffffffffffffffffffff163373ffffffffffffffffffffffffffffffffffffffff16141515610eda57600080fd5b600073ffffffffffffffffffffffffffffffffffffffff168173ffffffffffffffffffffffffffffffffffffffff16141515610f525780600460006101000a81548173ffffffffffffffffffffffffffffffffffffffff021916908373ffffffffffffffffffffffffffffffffffffffff1602179055505b50565b600360149054906101000a900460ff1681565b6000610f738261138c565b9050919050565b6000600360009054906101000a900473ffffffffffffffffffffffffffffffffffffffff1673ffffffffffffffffffffffffffffffffffffffff163373ffffffffffffffffffffffffffffffffffffffff16141515610fd857600080fd5b600360149054906101000a900460ff16151515610ff457600080fd5b6001600360146101000a81548160ff0219169083151502179055507f6985a02210a168e66602d3235cb6db0e70f92b3ba4d376a33c0f3d9434bff62560405160405180910390a16001905090565b600360009054906101000a900473ffffffffffffffffffffffffffffffffffffffff1681565b6040805190810160405280600481526020017f544f4d4f0000000000000000000000000000000000000000000000000000000081525081565b6000600360149054906101000a900460ff161515156110bf57600080fd5b6110c983836113d4565b905092915050565b6012600a0a6305f5e1000281565b6000600160008473ffffffffffffffffffffffffffffffffffffffff1673ffffffffffffffffffffffffffffffffffffffff16815260200190815260200160002060008373ffffffffffffffffffffffffffffffffffffffff1673ffffffffffffffffffffffffffffffffffffffff16815260200190815260200160002054905092915050565b600560009054906101000a900473ffffffffffffffffffffffffffffffffffffffff1681565b600360009054906101000a900473ffffffffffffffffffffffffffffffffffffffff1673ffffffffffffffffffffffffffffffffffffffff163373ffffffffffffffffffffffffffffffffffffffff161415156111e857600080fd5b600073ffffffffffffffffffffffffffffffffffffffff168173ffffffffffffffffffffffffffffffffffffffff161415156112605780600360006101000a81548173ffffffffffffffffffffffffffffffffffffffff021916908373ffffffffffffffffffffffffffffffffffffffff1602179055505b50565b600081600160003373ffffffffffffffffffffffffffffffffffffffff1673ffffffffffffffffffffffffffffffffffffffff16815260200190815260200160002060008573ffffffffffffffffffffffffffffffffffffffff1673ffffffffffffffffffffffffffffffffffffffff168152602001908152602001600020819055508273ffffffffffffffffffffffffffffffffffffffff163373ffffffffffffffffffffffffffffffffffffffff167f8c5be1e5ebec7d5bd14f71427d1e84f3dd0314c0f7b2291e5b200ac8c7c3b925846040518082815260200191505060405180910390a36001905092915050565b600082821115151561136357fe5b818303905092915050565b600080828401905083811015151561138257fe5b8091505092915050565b60008060008373ffffffffffffffffffffffffffffffffffffffff1673ffffffffffffffffffffffffffffffffffffffff168152602001908152602001600020549050919050565b60008073ffffffffffffffffffffffffffffffffffffffff168373ffffffffffffffffffffffffffffffffffffffff161415151561141157600080fd5b6000803373ffffffffffffffffffffffffffffffffffffffff1673ffffffffffffffffffffffffffffffffffffffff16815260200190815260200160002054821115151561145e57600080fd5b6114af826000803373ffffffffffffffffffffffffffffffffffffffff1673ffffffffffffffffffffffffffffffffffffffff1681526020019081526020016000205461135590919063ffffffff16565b6000803373ffffffffffffffffffffffffffffffffffffffff1673ffffffffffffffffffffffffffffffffffffffff16815260200190815260200160002081905550611542826000808673ffffffffffffffffffffffffffffffffffffffff1673ffffffffffffffffffffffffffffffffffffffff1681526020019081526020016000205461136e90919063ffffffff16565b6000808573ffffffffffffffffffffffffffffffffffffffff1673ffffffffffffffffffffffffffffffffffffffff168152602001908152602001600020819055508273ffffffffffffffffffffffffffffffffffffffff163373ffffffffffffffffffffffffffffffffffffffff167fddf252ad1be2c89b69c2b068fc378daa952ba7f163c4a11628f55a4df523b3ef846040518082815260200191505060405180910390a360019050929150505600a165627a7a7230582027c1e17f18a3af85ad7ed2f86c66cab8f051458bb417d1759c21adc8b1ff704b0029",
  "source": "pragma solidity 0.4.19;\n\n// ================= Ownable Contract start =============================\n/*\n * Ownable\n *\n * Base contract with an owner.\n * Provides onlyOwner modifier, which prevents function from running if it is called by anyone other than the owner.\n */\ncontract Ownable {\n  address public owner;\n\n  function Ownable() public {\n    owner = msg.sender;\n  }\n\n  modifier onlyOwner() {\n    require(msg.sender == owner);\n    _;\n  }\n\n  function transferOwnership(address newOwner) public onlyOwner {\n    if (newOwner != address(0)) {\n      owner = newOwner;\n    }\n  }\n}\n// ================= Ownable Contract end ===============================\n\n// ================= Safemath Lib ============================\nlibrary SafeMath {\n\n  /**\n  * @dev Multiplies two numbers, throws on overflow.\n  */\n  function mul(uint256 a, uint256 b) internal pure returns (uint256) {\n    if (a == 0) {\n      return 0;\n    }\n    uint256 c = a * b;\n    assert(c / a == b);\n    return c;\n  }\n\n  /**\n  * @dev Integer division of two numbers, truncating the quotient.\n  */\n  function div(uint256 a, uint256 b) internal pure returns (uint256) {\n    // assert(b > 0); // Solidity automatically throws when dividing by 0\n    uint256 c = a / b;\n    // assert(a == b * c + a % b); // There is no case in which this doesn't hold\n    return c;\n  }\n\n  /**\n  * @dev Substracts two numbers, throws on overflow (i.e. if subtrahend is greater than minuend).\n  */\n  function sub(uint256 a, uint256 b) internal pure returns (uint256) {\n    assert(b <= a);\n    return a - b;\n  }\n\n  /**\n  * @dev Adds two numbers, throws on overflow.\n  */\n  function add(uint256 a, uint256 b) internal pure returns (uint256) {\n    uint256 c = a + b;\n    assert(c >= a);\n    return c;\n  }\n}\n// ================= Safemath Lib end ==============================\n\n// ================= ERC20 Token Contract start =========================\n/*\n * ERC20 interface\n * see https://github.com/ethereum/EIPs/issues/20\n */\ncontract ERC20 {\n  function totalSupply() public view returns (uint256);\n  function balanceOf(address who) public view returns (uint256);\n  function transfer(address to, uint256 value) public returns (bool);\n  function allowance(address owner, address spender) public view returns (uint256);\n  function transferFrom(address from, address to, uint256 value) public returns (bool);\n  function approve(address spender, uint256 value) public returns (bool);\n  event Transfer(address indexed from, address indexed to, uint256 value);\n  event Approval(address indexed owner, address indexed spender, uint256 value);\n}\n// ================= ERC20 Token Contract end ===========================\n\n// ================= Standard Token Contract start ======================\ncontract StandardToken is ERC20 {\n  using SafeMath for uint256;\n\n  mapping(address => uint256) balances;\n  mapping (address => mapping (address => uint256)) internal allowed;\n\n  uint256 totalSupply_;\n\n  /**\n  * @dev total number of tokens in existence\n  */\n  function totalSupply() public view returns (uint256) {\n    return totalSupply_;\n  }\n\n  /**\n  * @dev transfer token for a specified address\n  * @param _to The address to transfer to.\n  * @param _value The amount to be transferred.\n  */\n  function transfer(address _to, uint256 _value) public returns (bool) {\n    require(_to != address(0));\n    require(_value <= balances[msg.sender]);\n\n    // SafeMath.sub will throw if there is not enough balance.\n    balances[msg.sender] = balances[msg.sender].sub(_value);\n    balances[_to] = balances[_to].add(_value);\n    Transfer(msg.sender, _to, _value);\n    return true;\n  }\n\n  /**\n  * @dev Gets the balance of the specified address.\n  * @param _owner The address to query the the balance of.\n  * @return An uint256 representing the amount owned by the passed address.\n  */\n  function balanceOf(address _owner) public view returns (uint256 balance) {\n    return balances[_owner];\n  }\n\n\n  /**\n   * @dev Transfer tokens from one address to another\n   * @param _from address The address which you want to send tokens from\n   * @param _to address The address which you want to transfer to\n   * @param _value uint256 the amount of tokens to be transferred\n   */\n  function transferFrom(address _from, address _to, uint256 _value) public returns (bool) {\n    require(_to != address(0));\n    require(_value <= balances[_from]);\n    require(_value <= allowed[_from][msg.sender]);\n\n    balances[_from] = balances[_from].sub(_value);\n    balances[_to] = balances[_to].add(_value);\n    allowed[_from][msg.sender] = allowed[_from][msg.sender].sub(_value);\n    Transfer(_from, _to, _value);\n    return true;\n  }\n\n  /**\n   * @dev Approve the passed address to spend the specified amount of tokens on behalf of msg.sender.\n   *\n   * Beware that changing an allowance with this method brings the risk that someone may use both the old\n   * and the new allowance by unfortunate transaction ordering. One possible solution to mitigate this\n   * race condition is to first reduce the spender's allowance to 0 and set the desired value afterwards:\n   * https://github.com/ethereum/EIPs/issues/20#issuecomment-263524729\n   * @param _spender The address which will spend the funds.\n   * @param _value The amount of tokens to be spent.\n   */\n  function approve(address _spender, uint256 _value) public returns (bool) {\n    allowed[msg.sender][_spender] = _value;\n    Approval(msg.sender, _spender, _value);\n    return true;\n  }\n\n  /**\n   * @dev Function to check the amount of tokens that an owner allowed to a spender.\n   * @param _owner address The address which owns the funds.\n   * @param _spender address The address which will spend the funds.\n   * @return A uint256 specifying the amount of tokens still available for the spender.\n   */\n  function allowance(address _owner, address _spender) public view returns (uint256) {\n    return allowed[_owner][_spender];\n  }\n}\n// ================= Standard Token Contract end ========================\n\n// ================= Pausable Token Contract start ======================\n/**\n * @title Pausable\n * @dev Base contract which allows children to implement an emergency stop mechanism.\n */\ncontract Pausable is Ownable {\n  event Pause();\n  event Unpause();\n\n  bool public paused = false;\n\n\n  /**\n  * @dev modifier to allow actions only when the contract IS paused\n  */\n  modifier whenNotPaused() {\n    require (!paused);\n    _;\n  }\n\n  /**\n  * @dev modifier to allow actions only when the contract IS NOT paused\n  */\n  modifier whenPaused {\n    require (paused) ;\n    _;\n  }\n\n  /**\n  * @dev called by the owner to pause, triggers stopped state\n  */\n  function pause() public onlyOwner whenNotPaused returns (bool) {\n    paused = true;\n    Pause();\n    return true;\n  }\n\n  /**\n  * @dev called by the owner to unpause, returns to normal state\n  */\n  function unpause() public onlyOwner whenPaused returns (bool) {\n    paused = false;\n    Unpause();\n    return true;\n  }\n}\n// ================= Pausable Token Contract end ========================\n\n// ================= Tomocoin  start =======================\ncontract TomoCoin is StandardToken, Pausable {\n  string public constant name = 'Tomocoin';\n  string public constant symbol = 'TOMO';\n  uint256 public constant decimals = 18;\n  address public tokenSaleAddress;\n  address public tomoDepositAddress; // multisig wallet\n\n  uint256 public constant tomoDeposit = 100000000 * 10**decimals;\n\n  function TomoCoin(address _tomoDepositAddress) public { \n    tomoDepositAddress = _tomoDepositAddress;\n\n    balances[tomoDepositAddress] = tomoDeposit;\n    Transfer(0x0, tomoDepositAddress, tomoDeposit);\n    totalSupply_ = tomoDeposit;\n  }\n\n  function transfer(address _to, uint256 _value) public whenNotPaused returns (bool success) {\n    return super.transfer(_to,_value);\n  }\n\n  function approve(address _spender, uint256 _value) public whenNotPaused returns (bool success) {\n    return super.approve(_spender, _value);\n  }\n\n  function balanceOf(address _owner) public view returns (uint256 balance) {\n    return super.balanceOf(_owner);\n  }\n\n  // Setup Token Sale Smart Contract\n  function setTokenSaleAddress(address _tokenSaleAddress) public onlyOwner {\n    if (_tokenSaleAddress != address(0)) {\n      tokenSaleAddress = _tokenSaleAddress;\n    }\n  }\n\n  function mint(address _recipient, uint256 _value) public whenNotPaused returns (bool success) {\n      require(_value > 0);\n      // This function is only called by Token Sale Smart Contract\n      require(msg.sender == tokenSaleAddress);\n\n      balances[tomoDepositAddress] = balances[tomoDepositAddress].sub(_value);\n      balances[ _recipient ] = balances[_recipient].add(_value);\n\n      Transfer(tomoDepositAddress, _recipient, _value);\n      return true;\n  }\n}\n// ================= Ico Token Contract end =======================\n\n\n// ================= Whitelist start ====================\ncontract TomoContributorWhitelist is Ownable {\n    mapping(address => uint256) public whitelist;\n\n    function TomoContributorWhitelist() public {}\n\n    event ListAddress( address _user, uint256 cap, uint256 _time );\n\n    function listAddress( address _user, uint256 cap ) public onlyOwner {\n        whitelist[_user] = cap;\n        ListAddress( _user, cap, now );\n    }\n\n    function listAddresses( address[] _users, uint256[] _caps ) public onlyOwner {\n        for( uint i = 0 ; i < _users.length ; i++ ) {\n            listAddress( _users[i], _caps[i] );\n        }\n    }\n\n    function getCap( address _user ) public view returns(uint) {\n        return whitelist[_user];\n    }\n}\n// ================= Whitelist end ====================\n\n// ================= Actual Sale Contract Start ====================\ncontract TomoTokenSale is Pausable {\n  using SafeMath for uint256;\n\n  TomoCoin tomo;\n  TomoContributorWhitelist whitelist;\n  mapping(address => uint256) public participated;\n\n  address public ethFundDepositAddress;\n  address public tomoDepositAddress;\n\n  uint256 public constant tokenCreationCap = 4000000 * 10**18;\n  uint256 public totalTokenSold = 0;\n  uint256 public constant fundingStartTime = 1519876800; // 2018/03/01 04:00:00\n  uint256 public constant fundingPoCEndTime = 1519963200; // 2018/03/02 04:00:00\n  uint256 public constant fundingEndTime = 1520136000; // 2018/03/04 04:00:00\n  uint256 public constant minContribution = 0.1 ether;\n  uint256 public constant maxContribution = 10 ether;\n  uint256 public constant tokenExchangeRate = 4000;\n  uint256 public maxCap = maxContribution.mul(tokenExchangeRate);\n\n  bool public isFinalized;\n\n  event MintTomo(address from, address to, uint256 val);\n  event RefundTomo(address to, uint256 val);\n\n  function TomoTokenSale(\n    TomoCoin _tomoCoinAddress,\n    TomoContributorWhitelist _tomoContributorWhitelistAddress,\n    address _ethFundDepositAddress,\n    address _tomoDepositAddress\n  ) public\n  {\n    tomo = TomoCoin(_tomoCoinAddress);\n    whitelist = TomoContributorWhitelist(_tomoContributorWhitelistAddress);\n    ethFundDepositAddress = _ethFundDepositAddress;\n    tomoDepositAddress = _tomoDepositAddress;\n\n    isFinalized = false;\n  }\n\n  function buy(address to, uint256 val) internal returns (bool success) {\n    MintTomo(tomoDepositAddress, to, val);\n    return tomo.mint(to, val);\n  }\n\n  function () public payable {    \n    createTokens(msg.sender, msg.value);\n  }\n\n  function createTokens(address _beneficiary, uint256 _value) internal whenNotPaused {\n    require (now >= fundingStartTime);\n    require (now <= fundingEndTime);\n    require (_value >= minContribution);\n    require (_value <= maxContribution);\n    require (!isFinalized);\n\n    uint256 tokens = _value.mul(tokenExchangeRate);\n\n    uint256 cap = whitelist.getCap(_beneficiary);\n    require (cap > 0);\n\n    uint256 tokensToAllocate = 0;\n    uint256 tokensToRefund = 0;\n    uint256 etherToRefund = 0;\n\n    // running while PoC Buying Time\n    if (now <= fundingPoCEndTime) {\n      tokensToAllocate = cap.sub(participated[_beneficiary]);\n    } else {\n      tokensToAllocate = maxCap.sub(participated[_beneficiary]);\n    }\n\n    // calculate refund if over max cap or individual cap\n    if (tokens > tokensToAllocate) {\n      tokensToRefund = tokens.sub(tokensToAllocate);\n      etherToRefund = tokensToRefund.div(tokenExchangeRate);\n    } else {\n      // user can buy amount they want\n      tokensToAllocate = tokens;\n    }\n\n    uint256 checkedTokenSold = totalTokenSold.add(tokensToAllocate);\n\n    // if reaches hard cap\n    if (tokenCreationCap < checkedTokenSold) {\n      tokensToAllocate = tokenCreationCap.sub(totalTokenSold);\n      tokensToRefund   = tokens.sub(tokensToAllocate);\n      etherToRefund = tokensToRefund.div(tokenExchangeRate);\n      totalTokenSold = tokenCreationCap;\n    } else {\n      totalTokenSold = checkedTokenSold;\n    }\n\n    // save to participated data\n    participated[_beneficiary] = participated[_beneficiary].add(tokensToAllocate);\n\n    // allocate tokens\n    require(buy(_beneficiary, tokensToAllocate));\n    if (etherToRefund > 0) {\n      // refund in case user buy over hard cap, individual cap\n      RefundTomo(msg.sender, etherToRefund);\n      msg.sender.transfer(etherToRefund);\n    }\n    ethFundDepositAddress.transfer(this.balance);\n    return;\n  }\n\n  /// @dev Ends the funding period and sends the ETH home\n  function finalize() external onlyOwner {\n    require (!isFinalized);\n    // move to operational\n    isFinalized = true;\n    ethFundDepositAddress.transfer(this.balance);\n  }\n}\n",
  "sourcePath": "/Users/applepen/Documents/git/bigbom/ico-contracts/contracts/TomoTokenSale.sol",
  "compiler": {
    "name": "solc",
    "version": "0.4.19+commit.c4cbbb05.Emscripten.clang"
  },
  "schemaVersion": "2.0.0",
  "updatedAt": "2018-04-23T03:28:06.705Z"
}